:020000040800F2
:10000000400F00209D010008B14B0008E7360008B2
:10001000AD4B0008510800082D63000800000000E7
:10002000000000000000000000000000AD570008C4
:100030003B0D0008000000000D4E00087D58000830
:10004000B7010008B7010008B7010008B7010008B0
:10005000B7010008B7010008B7010008B7010008A0
:10006000B7010008B7010008B7010008B701000890
:10007000110C0008B7010008B7010008B70100081B
:10008000B7010008B7010008B7010008B701000870
:1000900055080008B7010008B7010008B7010008BB
:1000A000B7010008B7010008B7010008B701000850
:1000B00059590008B7010008B7010008B701000846
:1000C000B7010008B7010008B7010008B701000830
:1000D000B7010008DD620008B7010008ED62000802
:1000E000B7010008B7010008B7010008B701000810
:1000F000B7010008B7010008B7010008B701000800
:10010000B7010008B7010008B7010008B7010008EF
:10011000B7010008B7010008B7010008B7010008DF
:10012000B7010008210C0008B7010008B70100085A
:10013000B7010008B7010008B7010008B7010008BF
:1001400065080008B7010008B7010008B7010008FA
:10015000B7010008B7010008B701000801630008F3
:10016000B7010008B7010008B7010008B70100088F
:10017000B7010008B7010008B7010008000000003F
:10018000B7010008B7010008DFF80CD000F04EFB03
:100190000048004795710008400F0020064880473E
:1001A00006480047FEE7FEE7FEE7FEE7FEE7FEE75C
:1001B000FEE7FEE7FEE7FEE73D590008890100087B
:1001C0002DE9F05F0546002092469B46884606468C
:1001D000814640241BE0284641464746224600F01F
:1001E0003EFA53465A46C01A914110D3114618465A
:1001F000224600F025FA2D1A67EB01084F462246E9
:100200000120002100F01CFA17EB00094E41201ECE
:10021000A4F10104DFDC484631462A464346BDE8E6
:10022000F09FD2B201E000F8012B491EFBD27047CB
:100230000022F6E710B513460A4604461946FFF7B2
:10024000F0FF204610BD2DE9FE4F804681EA0300F5
:10025000C00F0C46009021F0004123F00045B8EBA0
:100260000200A94105D24046214690461C460B4655
:10027000024623F00040104347D0270DC7F30A0081
:10028000C3F30A510290401A019040286BDAC3F37D
:10029000130040F4801B0098924620B10023D2EB5B
:1002A000030A63EB0B0B01985946C0F1400250461C
:1002B00000F0C6F906460D4650465946019A00F030
:1002C000DEF910EB08006141002487EA115284EA4C
:1002D000E7731A4340D0009A62B3019A012A4FEAA9
:1002E000075215DC001B61EB02014FF0004202EAED
:1002F0000752CDE90042001C41F5801132462B46E1
:1003000000F015FA03B0BDE8F08F40462146F9E74A
:10031000001B61EB0201001C41F5801300185B41DA
:100320002018A2F5001747EB030140EAD570B61973
:100330006D4111E06D084FEA360645EAC0754FEA97
:100340000752001B61EB0201001C41F580114908B6
:100350004FEA30000019514132462B4603B0BDE848
:10036000F04F00F0D5B90098012240000023D0EBF7
:10037000020263EBE073009821464FEAE074B8EBA9
:10038000000061EB0401E9E783F000435BE781F0E3
:10039000004158E72DE9FE4F81EA030404F00044D0
:1003A00021F0004100944FF0000B23F0004350EA8D
:1003B00001045ED052EA03045BD0C3F30A54C1F3D4
:1003C0000A552C44A4F2F3340194A0FB0254C1F367
:1003D000130141F48011C3F3130343F4801301FBB1
:1003E000024400FB034E840A970A44EA815447EA18
:1003F0008357A4FB076802958D0A05FB07854FEA22
:10040000932C04FB0C542705029D4FEA065847EA3B
:100410001637B5EB08056EEB070C870E920E47EA10
:10042000811742EA8312A7FB0201B6EB0B0164EBD2
:1004300000042B0D43EA0C335E1844EB1C50DA46E3
:100440005146E7FB0201C5F313044FEA0B3343EABD
:1004500014534FEA0432019C43EA0603A4F10C044E
:100460000294009CCDE900B400F061F903B0BDE84E
:10047000F08F00200146F9E72DE9F04D81EA0304F1
:1004800004F0004B21F0004514464FF0000A23F021
:10049000004150EA050220D054EA01021DD0C5F304
:1004A0000A570246C5F31303C1F31300C1F30A56FA
:1004B00040F4801543F48013A7EB0608101BD646C2
:1004C00008F2FD3873EB050002D308F1010801E0E2
:1004D00092185B41B8F1000F03DA00200146BDE835
:1004E000F08D00204FF48011064684460EE0171B65
:1004F00073EB050705D3121B63EB050306434CEAB8
:10050000010C49084FEA300092185B4150EA01079C
:10051000EDD152EA030012D082EA040083EA050119
:10052000084305D0101BAB4106D20122002306E090
:1005300000224FF0004302E06FF0010253101AEB6B
:1005400006004CEB085110EB0A0041EB0B01BDE833
:10055000F04D00F0DDB80EB5C10F80EAE070084440
:10056000CA07002140F233438DE80E000A460B46CD
:1005700000F0DDF803B000BD70B5C1F30A5201F020
:1005800000450024C1F3130140F2FF3341F4801110
:100590009A4201DA002070BD40F233439A42A2F23F
:1005A000334203DC524200F05AF800E090402C4302
:1005B000F1D0404270BD00F0004230F000400AD05F
:1005C000C10D01F56071C0F3160042EA0151C20885
:1005D00040071143704700200146704701F0004377
:1005E00030B421F0004150EA010206D00A0DA2F514
:1005F0006072C1F31301002A02DC30BC0020704796
:10060000440F44EAC104C100E01830BC00EBC25002
:1006100000F047B830B50B460146002020220124E7
:1006200009E021FA02F59D4205D303FA02F5491BC0
:1006300004FA02F52844151EA2F10102F1DC30BDD6
:10064000202A04DB203A00FA02F100207047914092
:10065000C2F1200320FA03F3194390407047202A87
:1006600004DB203A21FA02F00021704721FA02F35C
:10067000D040C2F120029140084319467047202A19
:1006800006DBCB17203A41FA02F043EAE07306E0BA
:1006900041FA02F3D040C2F12002914008431946CA
:1006A00070470029A8BF7047401C490008BF20F0D0
:1006B0000100704710B4B0FA80FC00FA0CF050EA68
:1006C000010404BF10BC704749B1CCF1200421FAE9
:1006D00004F411FA0CF118BF012121430843A3EBE4
:1006E0000C01CB1D4FEA00614FEA102042BF0020F1
:1006F00010BC704700EBC35010440029A4BF10BCCD
:100700007047401C490008BF20F0010010BC704732
:1007100010B5141E73F1000408DA401C41F1000109
:1007200092185B411A4301D120F0010010BD2DE960
:10073000F04D92469B4611B1B1FA81F202E0B0FA57
:1007400080F220329046FFF77BFF04460F4640EAD6
:100750000A0041EA0B0153465A46084313D011469A
:1007600053EA010019D0C8F140025046FFF777FF65
:1007700005460E46504659464246FFF761FF08437C
:1007800005D0012004E020463946BDE8F08D002068
:10079000054346EAE0762C4337430A986305E40AAA
:1007A000A0EB08000022FD0A44EA47540A3002D5B3
:1007B00000200146E9E7010510196941DDE9084516
:1007C00000196941BDE8F04DA2E7C1F30A52C1F337
:1007D000130140F2FF3341F480119A4202DA002003
:1007E0000146704740F233439A42A2F2334202DCA0
:1007F0005242FFF734BFFFF723BF000030B5041E9D
:1008000071F1000404DB4FF00044404264EB01014D
:10081000141E73F1000405DB1C464FF000435242E6
:1008200063EB0403994208BF904230BD064C074D6C
:1008300006E0E06840F0010394E8070098471034B0
:10084000AC42F6D3FFF7A4FC207A0008407A0008F7
:1008500000BFFEE710B5024800F05EFD10BD0000CD
:10086000E000002010B5024800F056FD10BD000069
:1008700008010020F8B507460C4615461E464FF401
:1008800000700D49086000208860C8600820086179
:10089000380A0A4908704F70200A8870CC70280AFC
:1008A00008714D71300A8871CE716B460A46024953
:1008B000034800F036FBF8BDA403002040000020F0
:1008C000E0000020F8B507460C4615461E4640F2EB
:1008D000FF100D49086000208860C860082008618A
:1008E000380A0A4908704F70200A8870CC70280AAC
:1008F00008714D71300A8871CE716B460A46024903
:10090000034800F00EFBF8BD8C03002038000020E7
:1009100008010020F8B507460C4615461E4640F271
:10092000FF100D49086000208860C8600820086139
:10093000380A0A4908704F70200A8870CC70280A5B
:1009400008714D71300A8871CE716B460A460249B2
:10095000034800F0E6FAF8BDA403002040000020A0
:10096000E000002070B52DED028B04460D461646C2
:10097000B0EE408A9FED280A28EE000ADFED270A34
:1009800080EE201A264880ED031AD0ED030AB0EE5F
:10099000600A00F11001143006F0C6FA2048D0EDCC
:1009A000050A00EE104AB8EEC00A60EE800A90ED2B
:1009B000041A00EE105AB8EEC00A40EE010ABDEE6D
:1009C000E00A10EE100A00B2154948800846D0ED42
:1009D000050A684200EE100AB8EEC00A60EE800A0E
:1009E000084690ED041A00EE104AB8EEC00A40EE38
:1009F000010ABDEEE00A10EE100A00B208800A46B5
:100A0000B2F90210B2F9000001234FF4FA6200F0CB
:100A100079F8BDEC028B70BD0000B44300F8FF45CF
:100A2000FC0800202DE9F0412DED028B05460E4615
:100A30001446B0EE408AF0EE608AF0EE680AB0EE3E
:100A4000480A094804F0B6F8BDEEC00A10EE100AD4
:100A500007B223463A463146284600F053F8BDEC2B
:100A6000028BBDE8F0810000140900200EB50022C1
:100A70001B49012003F01AFA00221A49022003F050
:100A800015FA00221849032003F010FA0022174932
:100A9000042003F00BFA0020154908804880888064
:100AA0009FED140A084680ED040A9FED120A80EDBE
:100AB000050A9FED100A80ED020A9FED0E0A80EDF7
:100AC000030A0D4A07CA8DE80700DFED0C0A9FED07
:100AD0000B0A6A4600210A4804F064F90EBD0000C2
:100AE0006C06002010070020B407002058080020E2
:100AF000FC080020000000001072000800409C4527
:100B0000140900202DE9F04F2DED028B83B004462F
:100B10000D4616461F463A4803F05EF9394803F081
:100B20005BF9394803F058F9384803F055F9601972
:100B300006FB070000B208EE100A601B06FB070068
:100B400000B208EE900A601B06FB17000FFA80F84F
:100B5000601906FB17000FFA80F92948B0F9040064
:100B600000EE900AF8EEE00AB0EE600AF8EEC80A6D
:100B700023480C3003F076FA82462248B0F904008C
:100B800000EE900AF8EEE00AB0EE600AC8F100004C
:100B900000EE900AF8EEE00A1A480C3003F062FA10
:100BA00083461948B0F9040000EE900AF8EEE00A16
:100BB000B0EE600AC9F1000000EE900AF8EEE00A1B
:100BC00011480C3003F04EFA02901048B0F90400BE
:100BD00000EE900AF8EEE00AB0EE600AF8EEE80ADD
:100BE0000A480C3003F03EFA019059465046DDE9C0
:100BF0000132FFF73FFE03B0BDEC028BBDE8F08F82
:100C00006C06002010070020B407002058080020C0
:100C100010B5024800F0B2FF10BD000070020020C5
:100C200010B5024800F0AAFF10BD0000D00200205D
:100C30000146087810381823B0FBF3F20848805CAE
:100C4000C865032A05D908686FF30900001D886587
:100C500003E008686FF309008865886D704700003D
:100C6000F0710008014600208A6A8B69CBB932B165
:100C7000012A0DD0022A03D0032A10D10EE000BFB2
:100C8000CB6A03F08073B3F1807F00D1012007E0CD
:100C9000CB6AB3F1C07F00D1012001E000E000BFCA
:100CA00034E08B69B3F5005F1AD132B1012A07D065
:100CB000022A03D0032A11D10AE000BF01200EE06E
:100CC000CB6A03F08073B3F1807F00D1012006E08E
:100CD000CB6AB3F1C07F00D1012000E000BF15E076
:100CE00032B1012A05D0022A04D0032A0CD103E034
:100CF00000BF00BF012008E0CB6A03F08073B3F1AE
:100D0000807F00D1012000E000BF00BF704730B5F8
:100D10000468246824F4802405682C6004686360F7
:100D20008468402C04D10468A2600468E16003E098
:100D30000468A1600468E26030BD704710B50748E0
:100D4000007E10B1012806D102E004F0CFFB02E0E2
:100D500004F0E4FA00BF00BF10BD0000BC03002097
:100D6000002002490860024908607047CC0000205A
:100D7000D00000207047000090ED060A144A82ED72
:100D8000000A4A88A2F5B852E63A12B2114B1A800C
:100D90001A4612884FF4B47312FB03F241F6FF7344
:100DA00092FBF3F200EE102AB8EEC00A0A4A82ED76
:100DB000000A074A92ED000A074AD2ED000A30EE17
:100DC000600A064A82ED000A92ED000A70470000B0
:100DD000A0000020B4000020B8000020A8000020DF
:100DE00010B5FF2300221549022003F075FAFF23F6
:100DF00000221349012003F06FFA4FF47A60114981
:100E000008609FED110A114880ED000A9FED0E0A5F
:100E10000F4880ED000A9FED0C0A0E4880ED000A95
:100E200000200D4908600D4908600D4908809FEDBC
:100E3000060A0C4880ED000A10BD00006009002081
:100E4000500A0020940000200000000098000020BC
:100E50009C000020A0000020AC000020B00000207A
:100E6000B4000020B800002010B52DED028B82B038
:100E700004466088A0F601304FF4B471484341F64F
:100E8000FF7190FBF1F000EE100AB8EEC00AB0EE70
:100E9000408A9FED150A8DED010A9FED130A8DED35
:100EA000000A01A96846B0EE480A06F03DF89DED3B
:100EB000010A0E4880ED000A9DED000A0C4880ED05
:100EC000000A0C4890ED000AB8EEC00A0748D0EDC1
:100ED000000A20EE200ABDEEC00A10EE100A00B291
:100EE00002B0BDEC028B10BD000000009800002095
:100EF0009C0000209400002010B5024692F820309B
:100F0000012B01D0022B06D11068406908431468F8
:100F10006061002010BD506A40F4802050620120C2
:100F2000F8E7F0B504460D461E4694F82070206898
:100F30008368A86800B900E000BF012F01D0022F2C
:100F40007CD103F0806030B903F0006018B903F081
:100F50008050002873D0C3F30161022905D9606A6B
:100F600040F4000060620120F0BD01208840306044
:100F7000A86860B9B5F800C0E86840EA4C5C206831
:100F800000F5C07000EB0110C0F800C00FE0D5E91B
:100F900001C040EACC00D5F80CC040EA0C00D4F8FF
:100FA00000C00CF5C07C0CEB011CCCF80000D5F89F
:100FB00010C0206800F5C07000EB0110C0F804C03C
:100FC000287D01280ED1206800F5C07000EB0110CB
:100FD000406840F4807C206800F5C07000EB011090
:100FE000C0F804C0D079000692F806C040EA0C4070
:100FF00092F805C040EA0C2C10794CEA000C2068ED
:1010000000F5C07000EB0110C0F80CC0D0780006ED
:1010100092F802C040EA0C4092F801C040EA0C206D
:1010200092F800C040EA0C00D4F800C00CF5C07C77
:101030000CEB011CCCF80800206801E016E00FE082
:1010400000F5C07000EB0110006840F0010C206852
:1010500000F5C07000EB0110C0F800C0002083E76D
:10106000606A40F40010606201207DE7606A40F42D
:1010700080206062012077E7F0B504460A462168C7
:1010800094F82050012D01D0022D7ED1424901F566
:101090000071086840F001000860086820F47C5086
:1010A00008600868566A40EA06200860107D00F073
:1010B0001F06012000FA06F3C8699843C861A1F52C
:1010C0000071D069C8B9D1F80C029843C1F80C027C
:1010D000908880B2968940EA064601F510705769FB
:1010E00040F83760108880B2168940EA064601F55C
:1010F0001070576900EBC7004660D069012819D10C
:10110000D1F80C021843C1F80C02908880B21688FE
:1011100040EA064601F51070576940F8376090893B
:1011200080B2168940EA064601F51070576900EB57
:10113000C7004660906928B9D1F804029843C1F805
:10114000040204E0D1F804021843C1F80402106953
:1011500028B9D1F814029843C1F8140204E0D1F878
:1011600014021843C1F81402106A012804D1D1F8FE
:101170001C021843C1F81C02D1F8000220F0010043
:10118000C1F800020020F0BDFFE7606A40F4802053
:1011900060620120F7E7000000640040704770B50E
:1011A000044694F82050012D01D0022D7DD151B973
:1011B0002068C06800F0030080B9606A40F4001045
:1011C0006062012070BD2068006900F0030028B94A
:1011D000606A40F4001060620120F3E7206800F5C7
:1011E000D87000EB0110006800F004009060906877
:1011F00040B9206800F5D87000EB01100068400D80
:10120000106007E0206800F5D87000EB011000685E
:10121000C0085060206800F5D87000EB011000682D
:1012200000F00200D060206800F5D87000EB0110DB
:10123000406800F00F001061206800F5D87000EBE6
:101240000110406800F47F40000A9061206800F5BA
:10125000D87000EB01104068000C5061206800F568
:10126000D87000EB011080681870206800F5D87005
:1012700000EB0110806800F47F40000A587020687D
:1012800000F5D87000EB0110806800F47F00000CBE
:101290009870206800F5D87000EB01108068000E8F
:1012A000D870206800F5D87000E02FE000EB011046
:1012B000C0681871206800F5D87000EB0110C06894
:1012C00000F47F40000A5871206800F5D87000EBE8
:1012D0000110C06800F47F00000C9871206800F5D0
:1012E000D87000EB0110C068000ED87131B92068C9
:1012F000C06840F020002668F06005E020680069C2
:1013000040F020002668306100205BE7606A40F40E
:1013100080206062012055E72DE9F05F044600253A
:10132000206846692068D0F80490206887682068A3
:10133000D0F80CA02068D0F810B02068D0F8188041
:1013400006F00100002855D007F00100C0B10120CF
:101350002168886007F0020018B1204600F09FFB6A
:101360000EE007F0040010B145F4006508E007F056
:10137000080010B145F4805502E0204600F08EFBD5
:1013800007F48070C8B14FF480702168886007F45A
:10139000007018B1204600F084FB0EE007F4806076
:1013A00010B145F4005508E007F4006010B145F4B1
:1013B000804502E0204600F073FB07F48030C8B19E
:1013C0004FF480302168886007F4003018B120465F
:1013D00000F069FB0EE007F4802010B145F40045F1
:1013E00008E007F4002010B145F4803502E0204603
:1013F00000F058FB06F0080038B10AF0100020B1E8
:1014000045F4007510202168C86006F0040040B162
:101410000AF0080028B108202168C860204600F0C2
:101420000DFA06F0020038B12068C06800F0030031
:1014300010B1204600F004FA06F0400038B10BF07D
:10144000100020B145F4806510202168086106F085
:10145000200040B10BF0080028B108202168086185
:10146000204600F0E9FA06F0100038B12068006963
:1014700000F0030010B1204600F0DFFA06F400305F
:1014800040B109F0100028B11020216848602046C2
:1014900000F0D4FA06F4803040B109F0080028B119
:1014A000082021684860204600F0FEFA06F400405B
:1014B00088B309F0040078B306F4807020B108F016
:1014C000010008B145F0010506F4007020B108F0F4
:1014D000020008B145F0020506F4806020B108F072
:1014E000040008B145F0040506F40060A0B108F05E
:1014F000700088B108F07000402817D006DC102872
:101500000BD020280CD0302819D10CE0502810D056
:10151000602814D110E01DE019E045F008050FE047
:1015200045F010050CE045F0200509E045F04005C8
:1015300006E045F0800503E045F4807500E000BF5B
:1015400000BF2068806920F0700021688861042055
:10155000216848602DB1606A284360622046FFF729
:101560001DFEBDE8F09F70B504460CB9012070BDAA
:1015700094F8200010B9204600F0B0F82068006808
:1015800020F002002168086000F0D8FD05460DE05B
:1015900000F0D4FD401B0A2808D9606A40F40030EE
:1015A0006062052084F820000120E0E720684068A0
:1015B00000F002000028EBD12068006840F0010034
:1015C0002168086000F0BAFD05460DE000F0B6FDA8
:1015D000401B0A2808D9606A40F400306062052088
:1015E00084F820000120C2E72068406800F0010074
:1015F0000028EBD0207E012806D12068006840F04A
:1016000080002168086005E02068006820F0800004
:1016100021680860607E012806D12068006840F0DB
:1016200040002168086005E02068006820F0400064
:1016300021680860A07E012806D12068006840F07B
:1016400020002168086005E02068006820F0200084
:1016500021680860E07E012806D12068006820F03B
:1016600010002168086005E02068006840F0100064
:1016700021680860207F012806D12068006840F0BA
:1016800008002168086005E02068006820F0080074
:1016900021680860607F012806D12068006840F05A
:1016A00004002168086005E02068006820F004005C
:1016B00021680860D4E9020108432169084361698F
:1016C00008436168491E08432168C86100206062C0
:1016D000012084F82000002049E7000010B586B002
:1016E0000446142101A8FEF7A3FD4E492068884254
:1016F00041D14D480068401C4B49086008460068CD
:1017000001280FD100BF002000904848006840F039
:101710000070464908600846006800F000700090BC
:1017200000BF00BF00BF0020009040481038006894
:1017300040F008003D49103908600846006800F094
:101740000800009000BF00BF03200190022002901B
:1017500000200390032004900920059001A934483B
:1017600000F0ECFB00221146142000F071FD142063
:1017700000F05EFD54E02F492068884250D100BF40
:10178000002000902948006840F0806027490860E8
:101790000846006800F08060009000BF00BF22484B
:1017A0000068401C204908600846006801280FD1E5
:1017B00000BF002000901D48006840F000701B49E9
:1017C00008600846006800F00070009000BF00BF8D
:1017D00000BF0020009015481038006840F002005B
:1017E0001249103908600846006800F002000090B5
:1017F00000BF00BF602001900220029000200390F3
:10180000032004900920059001A90B4800F096FBE5
:1018100000221146402000F01BFD402000F008FD92
:1018200006B010BD00640040240000204038024093
:10183000000C0240006800400004024070470000B5
:1018400010B58AB004467749206888427ED101AB42
:1018500003AA00212046FFF7A2FC0398A0F2012072
:1018600005284DD2DFE800F0030405064D0000BF57
:1018700000BF00BF0398401E6B49087008460078FF
:1018800000EB8000694931F8100000B26649097820
:1018900001EB8101654A02EB410108819DF80500D9
:1018A0009DF8041040EA01205F49097801EB8101AD
:1018B00022F811009DF807009DF8061040EA01206B
:1018C00000B25949097801EB810102EB41014880DE
:1018D0009DF809009DF8081040EA012000B2524925
:1018E000097801EB810102EB410188809DF80A0033
:1018F0004D49097801EB810102EB410188712BE030
:1019000000BF4A48B0F8500001B24848A0F858104B
:101910009DF805009DF8041040EA01204349A1F814
:1019200050009DF807009DF8061040EA012001B222
:101930003E48A0F852109DF809009DF8081040EAB2
:10194000012001B23948A0F8541000E006E09DF8EB
:101950000A1080F8561000BF00BF00BF344920684D
:1019600088425CD101AB03AA00212046FFF717FC97
:101970000398A0F2052030B1012805D0022804D038
:10198000032849D102E000BF00BF00BF0398401EFA
:10199000284908700846007800EB8000234931F898
:1019A000100000B22349097801EB81011F4A02EBC4
:1019B000410108819DF805009DF8041040EA0120CE
:1019C0001C49097801EB810122F811009DF80700FC
:1019D0009DF8061040EA012000B21649097801EB93
:1019E000810102EB410148809DF809009DF8081033
:1019F00040EA012000B20F49097801EB810102EBB6
:101A0000410188809DF80A000A49097801EB8101AB
:101A100002EB4101887100E000BF00BF00BF0AB0C7
:101A200010BD00000064004048000020300300208A
:101A3000006800404900002070477047704770B54B
:101A4000044694F82000012822D1022084F82000C6
:101A50002068006820F001002168086000F06EFB3B
:101A600005460DE000F06AFB401B0A2808D9606AB1
:101A700040F400306062052084F82000012070BD31
:101A80002068406800F001000028EBD16062F6E7B2
:101A9000606A40F4002060620120F0E77047704700
:101AA0007047704770477047704770B50446A56D22
:101AB00000F044FB064694F83500022808D0802048
:101AC000606500BF002084F8340000BF012070BDB5
:101AD0002068006820F016002168086020684069CE
:101AE00020F0800021684861206C08B9A06C28B102
:101AF0002068006820F008002168086020680068FD
:101B000020F00100216808600FE000F017FB801B47
:101B100005280AD92020606500BF002084F8340021
:101B200000BF032084F83500D1E72068006800F08A
:101B300001000028E9D194F85C103F208840A8609B
:101B400000BF002084F8340000BF012084F8350075
:101B50000020BCE7014691F83500022803D0802020
:101B6000486501207047052081F835000868006845
:101B700020F001000A6810600020F3E7F8B5044681
:101B8000002000908C4800684FF41651B0FBF1F72C
:101B9000A56D2E6894F85C1008208840304098B1FC
:101BA0002068006800F0040070B12068006820F030
:101BB00004002168086094F85C1008208840A86040
:101BC000606D40F00100606594F85C100120884071
:101BD000304068B12068406900F0800040B194F85E
:101BE0005C1001208840A860606D40F002006065D4
:101BF00094F85C1004208840304068B12068006888
:101C000000F0020040B194F85C1004208840A86005
:101C1000606D40F00400606594F85C10102088400E
:101C2000304078B32068006800F0080050B394F8A2
:101C30005C1010208840A8602068006800F48020B4
:101C400080B12068006800F4002028B9206CC8B179
:101C50002046216C884715E0A06C98B12046A16C05
:101C600088470FE02068006800F4807028B9206879
:101C7000006820F0080021680860206C10B1204640
:101C8000216C884794F85C10202088403040002860
:101C900065D02068006800F0100000285FD094F83C
:101CA0005C1020208840A86094F83500052828D1D1
:101CB0002068006820F016002168086020684069EC
:101CC00020F0800021684861206C08B9A06C28B120
:101CD0002068006820F008002168086094F85C1013
:101CE0003F208840A86000BF002084F8340000BF77
:101CF000012084F83500206D10B12046216D884701
:101D0000F8BD2068006800F4802080B12068006879
:101D100000F4002028B9606C10B12046616C88473F
:101D20001DE0E06BD8B12046E16B884717E02068E2
:101D3000006800F4807068B92068006820F0100026
:101D40002168086000BF002084F8340000BF012033
:101D500084F83500E06B10B12046E16B8847606D78
:101D600038B3606D00F00100F0B1052084F8350053
:101D70002068006820F001002168086000BF00981A
:101D8000401C0090B84200D905E02068006800F0CF
:101D900001000028F3D100BF00BF002084F8340008
:101DA00000BF012084F83500E06C10B12046E16CE2
:101DB000884700BFA4E70000340000202DE9F0416F
:101DC0000446002500F0BAF9074614B90120BDE821
:101DD000F081606A00B100BF00BF002084F83400C9
:101DE00000BF022084F835002068006820F0010060
:101DF000216808600AE000F0A1F9C01B052805D998
:101E000020206065032084F83500E0E72068006842
:101E100000F001000028EED1206805682148054047
:101E2000D4E901010843E168084321690843616975
:101E30000843A1690843E1690843216A084305434F
:101E4000606A042803D1D4E90B01084305432068E4
:101E500005602068456925F00705606A0543606AEA
:101E600004280DD1A06A0543E06A48B12046FEF778
:101E7000F9FE28B140206065012084F83500A6E70E
:101E8000206845612046FEF7D3FE064694F85C10B4
:101E90003F208840B06000206065012084F8350054
:101EA000002094E73F8010F02DE9F04704460D46EE
:101EB00016461F464FF00008D4F8589000BF94F81B
:101EC0003400012802D10220BDE8F087012084F807
:101ED000340000BF94F83500012825D1022084F891
:101EE0003500002060653B46324629462046FEF715
:101EF0000EFF94F85C103F208840C9F80800206865
:101F0000006840F0160021680860206C28B1206845
:101F1000006840F00800216808602068006840F010
:101F200001002168086006E000BF002084F834004A
:101F300000BF4FF002084046C6E70000F8B5024671
:101F40000B460025002400200021DCE0012606FAD3
:101F500001F51E6806EA0504AC4273D15E68012EE5
:101F600008D05E68022E05D05E68112E02D05E6831
:101F7000122E13D190684F000326BE40B0434F008D
:101F8000DE68BE4030439060506801268E40B0430A
:101F90001E79C6F300168E4030435060D0684F0063
:101FA0000326BE40B0434F009E68BE403043D06021
:101FB0005E68022E02D05E68122E13D1CF0802F1A5
:101FC000200656F827004E07F70E0F26BE40B043F6
:101FD0004F07FF0E1E69BE403043CF0802F12006B6
:101FE00046F8270010684F000326BE40B0431E7914
:101FF00006F003064F00BE40304310605E6806F0F6
:102000008056B6F1805F7DD100BF00260096404E1D
:10201000366846F480463E4F3E603E46366806F4DB
:102020008046009600BF00BF3A4E8F0856F8270042
:102030008E07370F0F26BE40B043374EB24202D153
:10204000002624E05EE0354EB24201D101261EE0BA
:10205000334EB24201D1022619E0324EB24201D1D2
:10206000032614E0304EB24201D104260FE02F4E79
:10207000B24201D105260AE02D4EB24201D1062618
:1020800005E02C4EB24201D1072600E008268F075A
:102090003F0FBE4030431F4E8F0846F82700264EA4
:1020A0003068A0435E6806F48036B6F5803F00D104
:1020B0002043214E3060361D3068A0435E6806F430
:1020C0000036B6F5003F00D120431B4E361D306070
:1020D000361D3068A0435E6806F48016B6F5801F92
:1020E00000D12043144E08363060361D3068A043BE
:1020F0005E6806F40016B6F5001F00D120430E4EB0
:102100000C363060491C1029FFF420AFF8BD0000E8
:1021100044380240083801400000024000040240F8
:1021200000080240000C024000100240001402406F
:1021300000180240001C0240003C014001480068B9
:102140007047000028000020034800680349097810
:102150000844014908607047280000203000002032
:1021600010B50D48006840F400700B49086008463F
:10217000006840F4806008600846006840F48070A1
:102180000860032000F0A2F8002000F007F800F03B
:102190002BF8002010BD0000003C024070B5044642
:1021A0000E4800784FF47A71B1FBF0F00C490968E1
:1021B000B1FBF0F5284600F021FC08B1012070BD0C
:1021C000102C07D200222146501E00F041F805488D
:1021D000046001E00120F2E70020F0E73000002079
:1021E000340000202C00002008B500BF0020009023
:1021F0000E48006840F480400C49086008460068BA
:1022000000F48040009000BF00BF00BF002000909D
:10221000081F006840F08050091F086008460068E9
:1022200000F08050009000BF00BF08BD443802405D
:1022300001460846002809DB00F01F0301229A40EE
:1022400043099B0003F1E023C3F8002100BF70475E
:102250002DE9F05F80460D461646002704F0D6F9BA
:10226000074639462A46334601F00700C0F1070AFF
:10227000BAF1040F02D94FF0040A01E0C0F1070AD5
:10228000D14600F1040ABAF1070F02D24FF0000A5A
:1022900001E0A0F1030AD4464FF0010A0AFA09FA54
:1022A000AAF1010A0AEA020A0AFA0CFA4FF0010B33
:1022B0000BFA0CFBABF1010B0BEA030B4AEA0B0424
:1022C0002146404604F0AAF9BDE8F09F00BF00F0A7
:1022D0000702064B19684FF6FF031940044B0B43E6
:1022E00043EA0221014B196000BF70470CED00E08A
:1022F0000000FA0570B504460D460CB9012070BD0A
:102300005848006800F00F00A84209D255490D70E6
:102310000846006800F00F00A84201D00120EEE757
:10232000207800F0020002281DD1207800F004007F
:10233000042805D14C48006840F4E0504A49086040
:10234000207800F00800082805D14748006840F4CC
:102350006040454908604448006820F0F000A168EA
:10236000084341490860207800F00100A8B3606884
:10237000012807D13C4808380068C0F34040B8B98C
:102380000120BCE76068022802D06068032807D1FA
:10239000354808380068C0F3406048B90120AEE70E
:1023A000314808380068C0F3400008B90120A6E7AA
:1023B0002D48006820F00300616808432A4908603E
:1023C000FFF7BCFE064609E0FFF7B8FE801B41F2AE
:1023D0008831884202D9032091E707E0224800684B
:1023E00000F00C006168B0EB810FEDD11D48006872
:1023F00000F00F00A84209D91A490D70084600687C
:1024000000F00F00A84201D0012078E7207800F00A
:102410000400042807D11448006820F4E050E16863
:10242000084311490860207800F00800082808D106
:102430000D48006820F46040216940EAC1000A4963
:10244000086000F03FF808490968C1F30311074A22
:10245000515CC8400649086006480068FFF79EFEC8
:1024600000204CE7003C024008380240F8710008A8
:10247000340000202C000020014800687047000054
:102480003400002000B5FFF7F7FF04490968C1F3E5
:102490008221034A515CC84000BD00000838024058
:1024A0000872000800B5FFF7E7FF04490968C1F3A7
:1024B0004231034A515CC84000BD00000838024068
:1024C000087200082DE9F047002400250026A146E7
:1024D0002548006800F00C0020B1042805D0082829
:1024E0003AD105E0DFF8849039E0DFF8849036E0F7
:1024F0001D48001F006800F03F041B48001F0068D3
:1025000000F4800078B11A481749091F0968C1F31F
:102510008811A0FB01700146224600233846FDF7D2
:102520004FFE05460EE011480F49091F0968C1F327
:102530008811A0FB01700146224600233846FDF7B2
:102540003FFE05460848001F0068C0F30140401CDC
:102550004600B5FBF6F902E0DFF8109000BF00BFBF
:102560004846BDE8F0870000083802400024F40027
:1025700040787D01F8B504460CB90120F8BD2078FB
:1025800000F00100002874D0F948006800F00C0049
:1025900004280DD0F648006800F00C00082813D17C
:1025A000F348001F006800F48000B0F5800F0BD1E5
:1025B000EF4808380068C0F34040002859D06068F0
:1025C000002856D10120D9E700BF6068B0F5803FF0
:1025D00008D1E7480838006840F48030E4490839F9
:1025E00008601EE06068B0F5A02F0DD1E048083803
:1025F000006840F48020DE49083908600846006819
:1026000040F4803008600CE0D9480838006820F4B5
:102610008030D749083908600846006820F48020D7
:10262000086000BF606890B1FFF788FD054606E0CE
:10263000FFF784FD401B642801D903209EE7CC48A6
:1026400008380068C0F340400028F1D011E0FFF7DF
:1026500075FD054606E0FFF771FD401B642801D9B2
:1026600003208BE7C24808380068C0F340400028C8
:10267000F1D1207800F0020002285FD1BC48006848
:1026800000F00C0058B1BA48006800F00C000828AF
:102690001CD1B748001F006800F48000B0B9B448EE
:1026A00008380068C0F3400020B1E068012801D07C
:1026B000012063E7AE480838006820F0F80021697F
:1026C00040EAC100AA490839086037E0E06800B371
:1026D0000120A8490860FFF731FD054606E0FFF735
:1026E0002DFD401B022801D9032047E7A0480838E8
:1026F0000068C0F340000028F1D09D480838006809
:1027000020F0F800216940EAC100994908390860C1
:1027100014E0002097490860FFF710FD054606E029
:10272000FFF70CFD401B022801D9032026E7904843
:1027300008380068C0F340000028F1D1207800F08C
:10274000080008282CD16069A8B101208A490860D6
:10275000FFF7F4FC054606E0FFF7F0FC401B0228FB
:1027600001D903200AE782486C300068C0F34000BA
:102770000028F1D014E000207F490860FFF7DEFC5C
:10278000054606E0FFF7DAFC401B022801D90320CA
:10279000F4E677486C300068C0F340000028F1D1BF
:1027A000207800F00400042870D1002770483830E9
:1027B000006800F0805090B900BF002000906C4885
:1027C0003830006840F08050694938310860084668
:1027D000006800F08050009000BF00BF01276748EC
:1027E000006800F48070B0B96448006840F48070FC
:1027F00062490860FFF7A2FC054606E0FFF79EFC71
:10280000401B022801D90320B8E65C48006800F4A8
:1028100080700028F2D000BFA068012808D1544879
:102820006830006840F001005149683108601DE0DF
:10283000A06805280DD14E486830006840F00400BB
:102840004B49683108600846006840F001000860A4
:102850000CE047486830006820F0010044496831C6
:1028600008600846006820F00400086000BFA06807
:10287000A8B1FFF763FC054609E0FFF75FFC401BCA
:1028800041F28831884202D9032077E626E03848B1
:1028900068300068C0F340000028EED013E0FFF776
:1028A0004DFC054608E0FFF749FC401B41F288312A
:1028B000884201D9032061E62D4868300068C0F3E2
:1028C00040000028EFD1012F07D129483830006897
:1028D00020F0805026493831086000BFA0690028E8
:1028E00045D02348006800F00C0008285DD0A0699E
:1028F000022845D100201F490866FFF71FFC054646
:1029000006E0FFF71BFC401B022801D9032035E637
:10291000174808380068C0F340600028F1D1D4E9B6
:1029200007010843616A40EA81110122A06AC2EBF3
:10293000500041EA00412C20005D41EA00600C4952
:10294000091F086001200B490866FFF7F7FB0546E1
:1029500006E0FFF7F3FB401B022801D903200DE638
:10296000034808380068C0F340600028F1D03FE019
:102970000838024000004742800E47420070004085
:1029800000201C490866FFF7D9FB054606E0FFF763
:10299000D5FB401B022801D90320EFE5164800684B
:1029A000C0F340600028F2D122E0A069012800D1E4
:1029B000E4E51148001D066806F48001E0698142E3
:1029C00014D106F03F01206A81420FD147F6C07052
:1029D0003040616A884209D106F44031A06A8142E0
:1029E00004D106F07061E06A814201D00120C5E5A2
:1029F0000020C3E5000047420038024070B504469D
:102A00002546681EB0F1807F01D301200FE0681ECB
:102A10004FF0E02148610F214FF0FF3003F0FEFD41
:102A200000204FF0E021886107200861002070BD80
:102A30007047704710B50346002200BF93F83C0072
:102A4000012801D1022010BD012083F83C0000BF05
:102A500022F0FF00CC6840EA040222F440708C6847
:102A600040EA040222F480604C6840EA040222F446
:102A700000600C6840EA040222F480500C6940EACD
:102A8000040222F400504C6940EA040222F480401F
:102A9000CC6940EA04021868426400BF002083F851
:102AA0003C0000BF00BFCEE730B502460B4600BF7A
:102AB00092F83C00012801D1022030BD012082F8AB
:102AC0003C0000BF022082F83D0010684468106896
:102AD000816824F070041868044310684460184D3D
:102AE0001068A8421BD01068B0F1804F17D0154D68
:102AF0001068A84213D0144D1068A8420FD0134D8F
:102B00001068A8420BD0124D1068A84207D0114D92
:102B10001068A84203D0104D1068A84205D121F0DA
:102B200080015868014310688160012082F83D00EF
:102B300000BF002082F83C0000BF00BFBDE70000DE
:102B4000000001400004004000080040000C00406C
:102B500000040140004001400018004010B5044648
:102B60000CB9012010BD94F83D0028B9002084F86C
:102B70003C00204600F00CF8022084F83D00211DA6
:102B8000206802F0F1FE012084F83D000020E9E712
:102B900038B504461949206888420FD100BF00208B
:102BA00000901748006840F0010015490860084689
:102BB000006800F00100009000BF1DE02068B0F147
:102BC000804F19D100BF002000900D48001F006801
:102BD00040F001000A49091F08600846006800F03B
:102BE0000100009000BF00BF002211461C20FFF72B
:102BF0002FFB1C20FFF71CFB38BD0000000001402C
:102C00004438024001460868C06840F001000B6883
:102C1000D8600868806800F00702062A05D00868B6
:102C2000006840F001000B681860002070472DE933
:102C3000F04104460D4600BF94F83C00012802D143
:102C40000220BDE8F081012084F83C0000BF022092
:102C500084F83D002068866826F0770626F47F46D3
:102C6000206886602868502833D00CDC202850D09B
:102C700004DC00284BD0102851D149E0302849D03D
:102C800040284CD139E060282DD0702807D0B0F50D
:102C9000805F03D0B0F5005F41D10DE040E0D5E9A1
:102CA00002136A68206802F0CBFE2068866846F04E
:102CB00077062068866033E0D5E902136A682068E9
:102CC00002F0BEFE2068806840F480402168886081
:102CD00026E0EA686968206802F0A2FF50212068B7
:102CE00002F0B9FE1CE0EA686968206802F0ABFFF8
:102CF0006021206802F0AFFE12E0EA68696820688F
:102D000002F08EFF4021206802F0A5FE08E000BF1F
:102D100000BF00BF2968206802F09DFE00E000BFF0
:102D200000BF012084F83D0000BF002084F83C0073
:102D300000BF00BF85E7704710B5044620680069F2
:102D4000C0F34000D8B12068C068C0F34000B0B103
:102D50006FF00200216808610120207720688069F7
:102D600000F0030018B12046FFF7E5FF05E020461C
:102D700000F0E0F8204600F07DF900202077206880
:102D80000069C0F38000D8B12068C068C0F380003B
:102D9000B0B16FF00400216808610220207720683C
:102DA000806900F4407018B12046FFF7C4FF05E0C9
:102DB000204600F0BFF8204600F05CF900202077A4
:102DC00020680069C0F3C000D8B12068C068C0F3B3
:102DD000C000B0B16FF008002168086104202077BE
:102DE0002068C06900F0030018B12046FFF7A3FF78
:102DF00005E0204600F09EF8204600F03BF9002058
:102E0000207720680069C0F30010D8B12068C0683E
:102E1000C0F30010B0B16FF0100021680861082005
:102E200020772068C06900F4407018B12046FFF791
:102E300082FF05E0204600F07DF8204600F01AF9F8
:102E4000002020772068006900F0010058B1206858
:102E5000C06800F0010030B16FF001002168086126
:102E6000204600F009F920680069C0F3C01058B18D
:102E70002068C068C0F3C01030B16FF080002168D6
:102E800008612046FFF7D4FD20680069C0F3801078
:102E900058B12068C068C0F3801030B16FF04000B6
:102EA00021680861204600F0F7F820680069C0F347
:102EB000401058B12068C068C0F3401030B16FF0C6
:102EC0002000216808612046FFF7B3FD10BD000017
:102ED00010B586B00446142101A8FDF7A9F91249DE
:102EE000206888421DD100BF002000900F48006874
:102EF00040F010000D4908600846006800F010001E
:102F0000009000BF00BF4FF4D44001900220029017
:102F10000020039004900120059001A90448FFF7C8
:102F20000DF806B010BD000000000140303802402E
:102F300000100240704770B504460D46164600BFAB
:102F400094F83C00012801D1022070BD012084F8D2
:102F50003C0000BF022084F83D0036B1042E1BD097
:102F6000082E31D00C2E5ED145E02946206802F0B3
:102F70007BFD2068806940F0080021688861206836
:102F8000806920F0040021688861206880692969CF
:102F900008432168886147E02946206802F09CFDCB
:102FA0002068806940F40060216888612068806939
:102FB00020F480602168886120688069296940EA7E
:102FC0000120216888612FE02946206802F0C2FDB7
:102FD0002068C06940F008002168C8612068C069A5
:102FE00020F004002168C8612068C069296908438D
:102FF0002168C86118E02946206802F0E7FD2068D2
:10300000C06940F400602168C8612068C06920F48C
:1030100080602168C8612068C069296940EA012090
:103020002168C86100E000BF00BF012084F83D00B6
:1030300000BF002084F83C0000BF00BF85E710B54A
:1030400004460CB9012010BD94F83D0028B90020B9
:1030500084F83C00204600F00CF8022084F83D0083
:10306000211D206802F080FC012084F83D00002032
:10307000E9E770477047000010B504462068B0F1DA
:10308000804F06D103480068401C02490860FDF7E4
:1030900055FE10BD00000020704770B504460025A5
:1030A00020684069C0F3C01594F8390021280ED17A
:1030B0006DB12068406920F0800021684861206B74
:1030C00010B1206BFEF7F1FC204602F04CFE2068A8
:1030D0004069C0F3801594F83A0022280ED16DB1F2
:1030E0002068406920F0400021684861606B10B1A1
:1030F000606BFEF7DAFC204602F015FE002070BD82
:10310000704700002DE9F0470446206805682068F4
:10311000C668206847694FF00008C14605F00F08EF
:10312000B8F1000F0AD105F0200038B106F02000F8
:1031300020B1204602F021FEBDE8F087B8F1000F73
:1031400072D007F0010018B906F4907000286BD017
:1031500005F0010030B106F4807018B1E06B40F06A
:103160000100E06305F0040030B107F0010018B180
:10317000E06B40F00200E06305F0020030B107F0C0
:10318000010018B1E06B40F00400E06305F00800B6
:1031900048B106F0200010B907F0010018B1E06B4B
:1031A00040F00800E063E06B70B305F0200028B148
:1031B00006F0200010B1204602F0DFFD20684069D3
:1031C000C0F38019E06B00F0080010B9B9F1000FEE
:1031D00023D0204602F0A7FD2068406900F040009F
:1031E000402816D12068406920F0400021684861DD
:1031F000606B50B11748616B0865606BFEF7AAFC05
:1032000010B1606B016D88470CE02046FFF778FF36
:1032100008E02046FFF774FF04E02046FFF770FF48
:103220000020E06388E7FFE705F0800030B106F09A
:10323000800018B1204602F0E7FF7DE705F040006E
:1032400030B106F0400018B1204602F07CFD73E773
:1032500000BF71E76F5C000810B504460CB901208F
:1032600010BDA06900B100E000BF94F8390028B992
:10327000002084F83800204600F028F8242084F844
:1032800039002068C06820F400502168C8602046DA
:1032900002F0C6FD2068006920F4904021680861B2
:1032A0002068406920F02A00216848612068C068D1
:1032B00040F400502168C8600020E063202084F8BA
:1032C000390084F83A000020CAE7000010B586B043
:1032D0000446142101A8FCF7ABFF8E492068884200
:1032E00056D100BF002000908B48006840F01000CD
:1032F000894908600846006800F01000009000BF8F
:1033000000BF00BF0020009083481438006840F0E0
:1033100002008149143908600846006800F0020084
:10332000009000BF00BF00BF00200090084600686A
:1033300040F0010008600846006800F001000090BD
:1033400000BF00BF80200190022002900020039067
:10335000032004900720059001A97048FEF7EEFDB8
:103360004FF400700190022002900020039003208F
:1033700004900720059001A96948FEF7DFFD0022AF
:1033800011462520FEF764FF2520FEF751FFBFE020
:103390006449206888425DD100BF002000905E48EB
:1033A000001F006840F480205B49091F0860084640
:1033B000006800F48020009000BF00BF00BF002024
:1033C000009055481438006840F004005249143900
:1033D00008600846006800F00400009000BF00BFCD
:1033E0004FF44060019002200290002003900320DF
:1033F00004900720059001A94B48FEF79FFD4B481C
:103400004B4908604FF000604860002148488160E7
:10341000C1604FF4806101610021416181614FF41D
:103420008071C1614FF44031016200214162FEF7B9
:10343000C5FC08B1FDF79EFC00BF3D486063846396
:1034400000BF002211462720FEF702FF2720FEF7CB
:10345000EFFE5DE037492068884259D100BF002067
:1034600000902D48006840F020002B490860084675
:10347000006800F02000009000BF00BF00BF0020E7
:10348000009025481438006840F040002249143963
:1034900008600846006800F04000009000BF00BFD0
:1034A0004FF48440019002200290002003900320FA
:1034B00004900820059001A91F48FEF73FFD1F4812
:1034C0001F4908608005486000211D488160C16077
:1034D0004FF4806101610021416181614FF480718D
:1034E000C1614FF44031016200214162FEF766FC88
:1034F00008B1FDF73FFC00BF11486063846300BF63
:10350000002211464720FEF7A3FE4720FEF790FE5B
:1035100006B010BD001001404438024000040240D3
:1035200000000240004800400008024028600240BD
:10353000700200200014014000180240286402407C
:10354000D002002077B581B00446154694F83A00C1
:10355000202850D1029800B115B9012004B070BDE7
:1035600000BF94F83800012801D10220F6E70120BD
:1035700084F8380000BF0298A062A5850020E063AF
:10358000222084F83A001D48616BC8631C48616BB7
:1035900008641C48616BC8640020616B086502AE5A
:1035A00032682368191D2B46606BFEF77DFC00BF57
:1035B000002000902068006800902068406800901B
:1035C00000BF00BF00BF002084F8380000BF2068A3
:1035D000C06840F480702168C8602068406940F08D
:1035E0000100216848612068406940F0400021687E
:1035F00048610020B2E70220B0E70000D35C000879
:10360000195D0008835C0008704770472DE9F84396
:1036100004460D4616461F464FF0000994F839003F
:1036200020285DD105B116B90120BDE8F88300BF9F
:1036300094F83800012801D10220F6E7012084F82F
:10364000380000BF0020E063212084F83900FEF735
:1036500075FD8146A684E68400BF002084F838000A
:1036600000BF2BE0E08C401EE084A068B0F5805FD6
:1036700016D14B46002280212046009702F0F8FD2B
:1036800008B10320D1E7A846B8F80000C0F308004D
:1036900021684860206908B9AD1C0FE06D1C0DE081
:1036A0004B46002280212046009702F0E1FD08B140
:1036B0000320BAE715F8010B21684860E08C002868
:1036C000D0D14B46002240212046009702F0D0FD89
:1036D00008B10320A9E7202084F839000020A4E7DE
:1036E0000220A2E7704700BFFEE7000038B514488B
:1036F00000680068C0F3001008B300BF002000900D
:103700000F480068006800900D480068406800900D
:1037100000BF00BF0A48FFF7C0FC0A4800684568C0
:10372000C5F10B042CB9084800F0E0F8064800F099
:103730003BF80B220449C91C0148FFF703FF38BDC1
:1037400030020020D00200200404002038B51348C5
:1037500000680068C0F30010F8B100BF00200090BE
:103760000E480068006800900C48006840680090AF
:1037700000BF00BF0948FFF790FC09480068456892
:10378000C5F1120414B901F0BBFB01E001F02AFC01
:10379000122204490148FFF7D5FE38BDF001002090
:1037A00070020020D603002000B97047374909682D
:1037B00041B990ED060A364981ED000A0121334AEC
:1037C000116061E0D0ED060A314991ED001A70EE0A
:1037D000C10AB0EE600ADFED2F0AB4EEE00AF1EEA6
:1037E00010FA03D329490968022916D1DFED2A0A04
:1037F000B4EEE00AF1EE10FA03DD0121234A116074
:1038000034E00221214A1160D0ED060A9FED231A0F
:1038100070EE810AC0ED090A28E0DFED1F0AB4EE60
:10382000E00AF1EE10FA03DC18490968032916D101
:10383000DFED180AB4EEE00AF1EE10FA03D202212D
:10384000124A116012E00321104A1160D0ED060AFD
:103850009FED131A70EE810AC0ED090A06E00121FE
:103860000A4A1160D0ED060AC0ED090AD0ED040A3B
:10387000C0ED070AD0ED050AC0ED080AD0ED060A32
:103880000349C1ED000A00BF00BF8EE78800002099
:10389000840000200000AAC30000AA430000B44333
:1038A0000000B4C308B50F4802F042FD00BF00207D
:1038B00000900D480068006800900B480068406860
:1038C000009000BF00BF08480068C06840F01000CA
:1038D00005490968C8600B220249C91C0248FFF764
:1038E00031FE08BD040400203002002070B52DED2B
:1038F000088B044614B9BDEC088B70BD60780B28AA
:1039000000DAF8E7002555E105EB450000EBC501BD
:10391000E01C405CA178884200D0ECE705EB450054
:1039200000EBC500401CE11C085C513809282DD271
:10393000DFE800F0052D557D9D9EBBFDFC0005EBED
:10394000450000EBC500801CE11C08449C4902684E
:103950000A6040684860002016E0994931F910106B
:1039600000EE101AF8EEC00A9FED961A80EE810A5A
:10397000F3EE000A20EE200A04F1280101EB800199
:1039800081ED000A411CC8B20328E6DB0FE105EB1C
:10399000450000EBC500801CE11C08448A49026810
:1039A0000A6040684860002016E0874931F910102D
:1039B00000EE101AF8EEC00A9FED821A80EE810A1E
:1039C000DFED820A20EE200A04F1340101EB8001D0
:1039D00081ED000A411CC8B20328E6DBE7E005EBF5
:1039E000450000EBC500801CE11C084478490268D2
:1039F0000A6040684860002016E0754931F91010EF
:103A000000EE101AF8EEC00A9FED6E1A80EE810AE1
:103A1000DFED700A20EE200A04F1100101EB8001B5
:103A200081ED000A411CC8B20328E6DBBFE005EBCC
:103A3000450000EBC500801CE11C014466480A6893
:103A400002604968416000200EE0634931F91010BE
:103A500000EE101AB8EEC00A04F1400101EB80013B
:103A600081ED000A411CC8B20328EEDB9FE09EE016
:103A700005EB450000EBC500801CE11C01445748E4
:103A80000A6802604968416090ED000AB8EEC00A19
:103A900084ED130A90ED010AB8EEC00ADFED500A7A
:103AA00080EE201A84ED141A81E005EB450000EB4E
:103AB000C500801CE11C01444A480A68426049680C
:103AC00081604068484990FBF1F201FB12063046E4
:103AD000FCF741FD9FED450B53EC102BFCF7CCFCA4
:103AE00041EC190B3F4890ED010AB8EEC00ADFED3A
:103AF000410A80EE201A11EE106A3046FCF75BFD99
:103B000053EC192BFCF79FFBFCF768FD206635484A
:103B10000068354990FBF1F201FB12063046FCF7D4
:103B20001AFD9FED320B53EC102B01E01BE019E066
:103B3000FCF7A2FC41EC190B2A4890ED000AB8EE04
:103B4000C00ADFED2C0A80EE201A11EE106A304612
:103B5000FCF731FD53EC192BFCF775FBFCF73EFD30
:103B6000206624E023E005EB450000EBC500801C47
:103B7000E11C0844204902680A604068486000204F
:103B800012E01D4931F9101000EE101AB8EEC00A0B
:103B9000DFED0C0A80EE201A04F16C0101EB8001CC
:103BA00081ED001A411CC8B20428EADB00BF00BF47
:103BB000681CC5B20B2DFFF6A7AE00BF9BE6000048
:103BC0004C00002000000047540000200000FA4490
:103BD0005C00002000003443640000206C000020E2
:103BE0000000C84274000020809698000000000089
:103BF000006AF8408096184B7C00002010B52DED2F
:103C0000088B0446022C05D0032C02D0042C7DD155
:103C1000B9E000BF6948807D00F001006749897DF7
:103C200001F00201084418B90020654908802BE022
:103C30006248807D00F0010080B1614800880F304B
:103C400000B25F4908800846B0F9000040F2DC513C
:103C5000884219DD08465A49088015E05748807D9A
:103C600000F0020080B1564800880F3800B2544975
:103C700008800846B0F9000040425249884203DA01
:103C80004FF624204E4908804C48807D00F0040007
:103C90004A49897D01F00801084418B900204849C3
:103CA00048802BE04548807D00F0040080B1444806
:103CB00040880F3800B2424948800846B0F90200F7
:103CC00040F2DC51884219DD08463D49488015E044
:103CD0003A48807D00F0080080B1394840880F30B4
:103CE00000B2374948800846B0F9020040423549E1
:103CF000884203DA4FF62420314948802F49B1F930
:103D00000E00FCF728FC41EC1B0B00E03CE09FEDB3
:103D10002E0B53EC102BFCF73DFB41EC190B284903
:103D2000B1F90600FCF717FC41EC1A0B53EC192B08
:103D3000FCF72AFB41EC180BFCF71EFC00B22049F3
:103D4000C8801E49B1F91000FCF705FC41EC1B0BC3
:103D50009FED1F0B53EC102BFCF71CFB41EC190BD8
:103D60001749B1F90800FCF7F6FB41EC1A0B53ECCC
:103D7000192BFCF709FB41EC180BFCF7FDFB00B21B
:103D80000F49088100E000BF00BF0D48B0F90800EE
:103D900040F61651884203DD08460949088109E0CA
:103DA0000748B0F90800B0F50F6F03DC40F6F100EA
:103DB00003490881BDEC088B10BD0000BC03002046
:103DC000F603002024FAFFFF7B14AE47E17A943F0C
:103DD0000AD7A3703D0AB73F10B5044604B910BD19
:103DE0002078401E08285CD2DFE800F004050607B2
:103DF000465B2B2C00BF00BF00BF2178491EC8B214
:103E000003F0A6F9008860802178491EC8B203F04B
:103E10009FF98188E1802178491EC8B203F098F9A2
:103E2000018961812178491EC8B203F091F9418866
:103E3000A1802178491EC8B203F08AF981792172E4
:103E400030E000BF207803F097F900886080207888
:103E500003F092F98188E180207803F08DF90189DF
:103E60006181207803F088F94188A180207803F0EF
:103E700083F98179217215E003F07AF90088608076
:103E800003F076F98188E18003F072F9018961819C
:103E900003F06EF94188A18003F06AF981792172FB
:103EA00000E000BF00BF00BF99E7000070B586B01A
:103EB00005460C4616462570002060800021E180F2
:103EC0006181A1802172039004900590009001907F
:103ED00002907EBB681E30B1012811D002281CD090
:103EE000032835D127E0B2EE0A0A8DED030A9FEDD3
:103EF000580A8DED040A9FED570A8DED050A28E05A
:103F0000B2EE040A8DED030A9FED510A8DED040A0D
:103F10009FED500A8DED050A1BE0B2EE040A8DED0F
:103F2000030A9FED4B0A8DED040A9FED4A0A8DEDC1
:103F3000050A0EE00EE0B2EE080A8DED030A9FEDD1
:103F4000460A8DED040A9FED430A8DED050A00E057
:103F500000BF67E0012E65D1681E082860D2DFE847
:103F600000F004111E2B525F38459FED3C0A8DED89
:103F7000030AB7EE000A8DED040A9FED360A8DEDB7
:103F8000050A4EE0B3EE0E0A8DED030AB6EE000A06
:103F90008DED040A9FED2F0A8DED050A41E09FED9E
:103FA0002D0A8DED030A9FED2B0A8DED040A9FED7E
:103FB000290A8DED050A34E09FED260A8DED030AEE
:103FC0009FED240A8DED040A9FED220A8DED050A6E
:103FD00027E09FED220A8DED030AB2EE040A8DED73
:103FE000040A9FED1C0A8DED050A1AE09FED1B0ADD
:103FF0008DED030AB1EE040A8DED040A9FED150A5A
:104000008DED050A0DE0B2EE0E0A8DED030AB0EE5D
:10401000000A8DED040A9FED0F0A8DED050A00E000
:1040200000BF00BFDFED0E0A9FED0D0A03AA314667
:1040300004F10C0000F0B6FEDFED090A9FED080A5E
:104040006A46314604F1580000F0ACFE06B070BD7F
:104050000AD7233C00000000CDCC4C3D0000484274
:1040600000008046014609B90020704791ED101A02
:1040700081ED111A91ED0F1A81ED101AC1ED060AAA
:1040800081ED070A30EEC01A81ED0F1A087800287A
:104090007CD191ED011AD1ED0F1A21EE211A81ED9B
:1040A000091A91ED0A1AD1ED021A91ED0F2A01EECB
:1040B000821A81ED0A1A91ED0D1A81ED0E1A91ED19
:1040C0000C1A81ED0D1A91ED0F1AD1ED101A31EE87
:1040D000611A81ED0C1A91ED031AD1ED0C1A21EE43
:1040E000211A81ED0B1A91ED0A1AD1ED051AB4EEE1
:1040F000E11AF1EE10FA04DD91ED051A81ED0A1ACC
:1041000010E091ED0A1AD1ED051AF1EE611AB4EE44
:10411000E11AF1EE10FA05D291ED051AB1EE411A4D
:1041200081ED0A1A91ED091AD1ED0A1A31EE211A20
:10413000D1ED0B1A31EE211A81ED081A91ED081A12
:10414000D1ED041AB4EEE11AF1EE10FA04DD91EDAE
:10415000041A81ED081A10E091ED081AD1ED041A45
:10416000F1EE611AB4EEE11AF1EE10FA05D291ED1A
:10417000041AB1EE411A81ED081A91ED081ABDEE4C
:10418000C11A11EE100A00B26FE7FFE708780128A4
:1041900068D191ED0F1AD1ED101A31EE611AD1EDFF
:1041A000011A21EE211A81ED091A91ED021AD1EDC1
:1041B0000F1A21EE211A81ED0A1A91ED0D1A81EDE7
:1041C0000E1A91ED0C1A81ED0D1A91ED0F1AD1ED29
:1041D000101AB0EE002A02EE611AD1ED111A31EE7A
:1041E000211A81ED0C1A91ED031AD1ED0C1A21EE72
:1041F000211A81ED0B1A91ED091AD1ED0A1A31EE4F
:10420000211AD1ED0B1A31EE211AD1ED081A31EE37
:10421000211A81ED081A91ED081AD1ED041AB4EEB5
:10422000E11AF1EE10FA04DD91ED041A81ED081A9D
:1042300010E091ED081AD1ED041AF1EE611AB4EE16
:10424000E11AF1EE10FA05D291ED041AB1EE411A1D
:1042500081ED081A91ED081ABDEEC11A11EE100A8F
:1042600000B202E7002000E710B5044604B910BD13
:104270002078401EB0B1012829D102F087FF0088C4
:10428000608002F083FF8188E18002F07FFF018976
:10429000618102F07BFF4188A18002F077FF817984
:1042A000217215E002F060FF0088608002F05CFF80
:1042B0008188E18002F058FF0189618102F054FF9A
:1042C0004188A18002F050FF8179217200E000BF97
:1042D00000BF00BFCBE70000F0B52DED028B89B029
:1042E00006460C4617461D461CB909B0BDEC028BAC
:1042F000F0BD26706570002060800021E180618142
:10430000A180217206900790089003900490059078
:104310000090019002909FED3F8AEFBB701EF0B1BC
:1043200001283AD1B5EE000A8DED060A9FED3A0A52
:104330008DED070A9FED370A8DED080A9FED370ACC
:104340008DED030A9FED330A8DED040A9FED310ACE
:104350008DED050A9FED320AB0EE408A1EE09FED1A
:10436000310A8DED060A9FED300A8DED070A9FEDAB
:10437000290A8DED080A9FED2D0A8DED030A9FEDA8
:10438000250A8DED040A9FED230A8DED050A9FEDA8
:10439000240AB0EE408A01E001E000BF00BFFE2D1C
:1043A00014D1DFED230A9FED220A06AA394604F153
:1043B0000C0000F0F7FCDFED1F0A9FED1E0A03AAB8
:1043C000394604F1580000F0EDFC15E0FF2D13D143
:1043D000DFED170A9FED160A06AA394604F10C0014
:1043E00000F0E0FCDFED140A9FED130A03AA394642
:1043F00004F1580000F0D6FCDFED0E0A9FED0D0A27
:104400006A46394604F1A40000F0CCFC84ED158A1C
:1044100000BF6AE7000000006F12833900005C43B0
:10442000000070429A99593F89D2DE3A0000164343
:104430000000AF43000080460050C34610B52DED8C
:10444000028B0446B0EE408AF0EE608A1CB9002070
:10445000BDEC028B10BD94ED100A84ED110A94EDB1
:104460000F0A84ED100AC4ED068A84ED078A38EE3F
:10447000C80A84ED0F0A207800287CD194ED010A47
:10448000D4ED0F0A20EE200A84ED090A94ED0F0AFC
:10449000BDEEC00A10EE101A08B202F03CFD00EEAC
:1044A000100AB8EEC00AD4ED120AB4EEE00AF1EE3A
:1044B00010FA09D294ED0A0AD4ED020A94ED0F1A0B
:1044C00000EE810A84ED0A0A94ED0A0AD4ED020A8C
:1044D00094ED0F1A00EE810A84ED0A0A94ED0D0A9C
:1044E00084ED0E0A94ED0C0A84ED0D0A94ED0F0A8A
:1044F000D4ED100A30EE600A84ED0C0A94ED030A44
:10450000D4ED0C0A20EE200A84ED0B0A94ED0A0A81
:10451000D4ED050AB4EEE00AF1EE10FA04DD94EDF4
:10452000050A84ED0A0A10E094ED0A0AD4ED050AA2
:10453000F1EE600AB4EEE00AF1EE10FA05D294ED65
:10454000050AB1EE400A84ED0A0A94ED090AD4ED99
:104550000A0A30EE200AD4ED0B0A30EE200A84ED70
:10456000080A94ED080AD4ED040AB4EEE00AF1EE6C
:1045700010FA06DD00E01DE094ED040A84ED080A5F
:1045800010E094ED080AD4ED040AF1EE600AB4EEEE
:10459000E00AF1EE10FA05D294ED040AB1EE400AF9
:1045A00084ED080A94ED080ABDEEC00A10EE100A68
:1045B00000B24DE700204BE7014609B900207047E3
:1045C00091ED101A81ED111A91ED0F1A81ED101A6B
:1045D000C1ED060A81ED070A30EEC01A81ED0F1A0F
:1045E000087800287CD191ED011AD1ED0F1A21EE47
:1045F000211A81ED091A91ED0A1AD1ED021A91EDF5
:104600000F2A01EE821A81ED0A1A91ED0D1A81ED41
:104610000E1A91ED0C1A81ED0D1A91ED0F1AD1EDD4
:10462000101A31EE611A81ED0C1A91ED031AD1EDD9
:104630000C1A21EE211A81ED0B1A91ED0A1AD1ED17
:10464000051AB4EEE11AF1EE10FA04DD91ED051A47
:1046500081ED0A1A10E091ED0A1AD1ED051AF1EE7A
:10466000611AB4EEE11AF1EE10FA05D291ED051AD5
:10467000B1EE411A81ED0A1A91ED091AD1ED0A1A2B
:1046800031EE211AD1ED0B1A31EE211A81ED081A03
:1046900091ED081AD1ED041AB4EEE11AF1EE10FA18
:1046A00004DD91ED041A81ED081A10E091ED081A6D
:1046B000D1ED041AF1EE611AB4EEE11AF1EE10FA3E
:1046C00005D291ED041AB1EE411A81ED081A91ED6F
:1046D000081ABDEEC11A11EE100A00B26FE7FFE72B
:1046E0000878012868D191ED0F1AD1ED101A31EE3A
:1046F000611AD1ED011A21EE211A81ED091A91ED0D
:10470000021AD1ED0F1A21EE211A81ED0A1A91ED4C
:104710000D1A81ED0E1A91ED0C1A81ED0D1A91ED25
:104720000F1AD1ED101AB0EE002A02EE611AD1ED87
:10473000111A31EE211A81ED0C1A91ED031AD1ED07
:104740000C1A21EE211A81ED0B1A91ED091AD1ED07
:104750000A1A31EE211AD1ED0B1A31EE211AD1EDE0
:10476000081A31EE211A81ED081A91ED081AD1EDDF
:10477000041AB4EEE11AF1EE10FA04DD91ED041A18
:1047800081ED081A10E091ED081AD1ED041AF1EE4E
:10479000611AB4EEE11AF1EE10FA05D291ED041AA5
:1047A000B1EE411A81ED081A91ED081ABDEEC11A59
:1047B00011EE100A00B202E7002000E710B50E4823
:1047C0000E4908600320486000210C488160C160E8
:1047D0004FF4102101614FF4001141610021017675
:1047E00041768176C17601774177FCF7BCFE08B14E
:1047F000FCF7C0FA10BD000000640040E00000209B
:1048000010B50E480E4908600320486000210C488E
:104810008160C1604FF4102101614FF400114161CA
:104820000021017641768176C17601774177FCF7E8
:104830009AFE08B1FCF79EFA10BD00000068004027
:104840000801002008B500BF00200090164800684D
:1048500040F40010144908600846006800F4001095
:10486000009000BF00BF00BF002000900846006815
:1048700040F4800008600846006800F48000009062
:1048800000BF00BF002211460C20FDF7E1FC0C2008
:10489000FDF7CEFC002211463920FDF7D9FC392066
:1048A000FDF7C6FC08BD00003038024008B500BF67
:1048B000002000903348006840F002003149086051
:1048C0000846006800F00200009000BF00BF00BF73
:1048D000002000900846006840F04000086008464C
:1048E000006800F04000009000BF00BF00BF002043
:1048F00000900846006840F0010008600846006823
:1049000000F00100009000BF00BF00BF0020009039
:104910000846006840F0080008600846006800F09B
:104920000800009000BF00BF00BF002000900846B4
:10493000006840F0040008600846006800F00400C9
:10494000009000BF00BF00BF002000900846006834
:1049500040F0800008600846006800F08000009089
:1049600000BF00BF00BF002000900846006840F074
:10497000100008600846006800F01000009000BFBA
:1049800000BF08BD3038024000B595B0002011903E
:104990001290139014900F9010901C2108A8FBF710
:1049A00047FC20216846FBF743FC3748374908603D
:1049B000A720486000213548816040F2CF71C16076
:1049C0000021016141618161FEF7C8F808B1FCF77F
:1049D000D1F94FF48050119011A92C48FEF727F916
:1049E00008B1FCF7C7F92948FEF729FB08B1FCF725
:1049F000C1F900200F9010900FA92448FEF754F839
:104A000008B1FCF7B7F960200890002009900A90DF
:104A10000B900C900D900E90002208A91B48FEF7F9
:104A20008AFA08B1FCF7A6F9042208A91748FEF78C
:104A300082FA08B1FCF79EF9082208A91348FEF78C
:104A40007AFA08B1FCF796F90C2208A90F48FEF78C
:104A500072FA08B1FCF78EF90020009001900290E4
:104A6000039004904FF40050059000200790694691
:104A70000648FDF7DFFF08B1FCF77CF90348FEF7B5
:104A800027FA15B000BD00000000014030010020F1
:104A900000B587B000200390049005900690019027
:104AA00002904FF080401449086053204860002174
:104AB0001148816041F28731C1600021016181614B
:104AC000FEF74CF808B1FCF755F94FF4805003900D
:104AD00003A90948FEF7ABF808B1FCF74BF9002031
:104AE0000190029001A90448FDF7DEFF08B1FCF730
:104AF00041F907B000BD00007001002010B50B485F
:104B00000B4908604FF4E13048600021084881609B
:104B1000C16001610C21416100218161C161FEF729
:104B20009BFB08B1FCF726F910BD00000010014006
:104B3000B001002010B50C480C4908600C484860D2
:104B40004FF48051094881600021C1604FF48061B9
:104B500001610C21416100218161C161FEF77CFB93
:104B600008B1FCF707F910BD00480040F001002033
:104B7000A086010010B50B480B4908604FF4E130E6
:104B80004860002108488160C16001610C214161D9
:104B900000218161C161FEF75FFB08B1FCF7EAF813
:104BA00010BD0000001401403002002000BFFEE7ED
:104BB00070470000B0EE401A10B99FED790A7047B7
:104BC00090ED100A80ED110A90ED0F0A80ED100AA9
:104BD000C0ED060A80ED071A30EEC10A80ED0F0A1B
:104BE0000178002975D190ED010AD0ED0F1A20EE61
:104BF000210A80ED090A90ED0A0AD0ED021A90ED23
:104C00000F2A01EE820A80ED0A0A90ED0D0A80ED6E
:104C10000E0A90ED0C0A80ED0D0A90ED0F0AD0ED12
:104C2000101A30EE610A80ED0C0A90ED030AD0ED07
:104C30000C1A20EE210A80ED0B0A90ED0A0AD0ED45
:104C4000051AB4EEE10AF1EE10FA04DD90ED050A62
:104C500080ED0A0A10E090ED0A0AD0ED051AF1EE97
:104C6000611AB4EEE10AF1EE10FA05D290ED050AF0
:104C7000B1EE400A80ED0A0A90ED090AD0ED0A1A59
:104C800030EE210AD0ED0B1A30EE210A80ED080A31
:104C900090ED080AD0ED041AB4EEE10AF1EE10FA34
:104CA00004DD90ED040A80ED080A76E090ED080A34
:104CB000D0ED041AF1EE611AB4EEE10AF1EE10FA49
:104CC0006BD290ED040AB1EE400A80ED080A64E070
:104CD000FFE70178012960D190ED0F0AD0ED101A9D
:104CE00030EE610AD0ED011A20EE210A80ED090AAA
:104CF00090ED020AD0ED0F1A20EE210A80ED0A0A8B
:104D000090ED0D0A80ED0E0A90ED0C0A80ED0D0A73
:104D100090ED0F0AD0ED101AB0EE002A02EE610AF3
:104D2000D0ED111A30EE210A80ED0C0A90ED030A45
:104D3000D0ED0C1A20EE210A80ED0B0A90ED090A45
:104D4000D0ED0A1A30EE210AD0ED0B1A30EE210A0E
:104D5000D0ED081A30EE210A80ED080A90ED080A1D
:104D6000D0ED041AB4EEE10AF1EE10FA04DD90ED94
:104D7000040A80ED080A10E090ED080AD0ED041A4C
:104D8000F1EE611AB4EEE10AF1EE10FA05D290EDFF
:104D9000040AB1EE400A80ED080A90ED080A0EE719
:104DA0000000000000B102B97047017092ED001AD6
:104DB00080ED011A92ED011A80ED021A92ED021AAD
:104DC00080ED031A80ED040AC0ED050A9FED0E1A6E
:104DD00080ED0E1A80ED0D1A80ED0C1A9FED0A1A67
:104DE00080ED081A80ED0B1A80ED0A1A80ED091A81
:104DF00080ED111A80ED101A80ED0F1A9FED021A46
:104E000080ED121A00BFCFE70000000070470000DD
:104E100070B52DED028B04461448FFF725FA1348B0
:104E2000408800EE900AF8EE600AB0EE600A00EEEC
:104E3000904AF8EEE00A0D480C30FFF7FFFA08EE52
:104E4000100A0A48B0F9040000EE900AF8EEE00AF1
:104E5000B0EE600AF8EEC80A04485830FFF7ACFB21
:104E600005462846BDEC028B70BD0000500A0020AC
:104E700010B51F48807D00F0200080B11D480078EB
:104E8000401C1C4908700846007800F0010018B169
:104E900001201749087602E00020154908761448D9
:104EA00040891549897A884204D000201049087643
:104EB000104908700E49488900F0D2F80C48807DEE
:104EC00000F0400018B103200C49087307E00848BF
:104ED000807D00F0800010B1022008490873074966
:104EE000087BFEF78BFE0248807A0349887210BD6A
:104EF000BC030020C8000020E8030020F6030020C7
:104F000010B5364800783549497840EA0120C0F3A9
:104F10000A003349088031484078C0102F49897809
:104F200040EA4110C0F30A002D4948802B488078A0
:104F300080112A49C97840EA81002849097940EA64
:104F40008120C0F30A002649888024480079401057
:104F50002249497940EAC110C0F30A002049C880BB
:104F60001E4840790011800848811C484079C0F3F0
:104F7000011088811948007C1849497C40EA0120C9
:104F8000C0F30A0016490881144880791349C97989
:104F900040EA012000B21249C8811048007A0F4946
:104FA000497A40EA012001B20D4801820B48807A1B
:104FB0000A49C97A40EA012001B2094841820748FA
:104FC000017B074801750548417B05484175034849
:104FD000807B0349C882FFF74BFF10BDD60300203A
:104FE000BC03002008B500BF0020009017480068EF
:104FF00000680090154800684068009000BF00BF3E
:1050000012480068C06840F0100010490968C86084
:1050100012220F490D48FEF795FA00200D4908802D
:105020004880888041F2E670088140F60130C880EF
:10503000002088810849088048808880C88040F620
:105040000130088100200549087608BDF0010020E4
:10505000D6030020E8030020F6030020BC03002054
:1050600010B52DED088B0446012C04D0022C7AD00B
:10507000032C79D15AE001209A4908709A48C088D7
:10508000C0F5806000EB400000B298490880964867
:105090008088C0F5806000EB400000B248809248F4
:1050A0000089A0F58060800000B288808E49098860
:1050B000C1F58060FBF74FFA41EC1A0B9FED8C0BAA
:1050C00053EC102BFBF766F941EC190B9FED8A0BA3
:1050D00053EC102BFBF7B7F841EC180BFBF74CFA2D
:1050E00000B28249088180494988A1F58060FBF7B8
:1050F00032FA41EC1B0B9FED820B53EC102BFBF7AC
:1051000049F941EC190B7949B1F90600FBF723FA8B
:1051100041EC1A0B53EC192BFBF736F941EC180B49
:10512000FBF72AFA00B27149C880C1E003206D493B
:1051300008706D48C088C0F5806000EB400000B288
:105140006A49088068488088C0F5806000EB4000AC
:1051500000B2488064490988A1F58060FBF7FBF93B
:1051600041EC1B0B01E03DE09CE09FED670B53EC35
:10517000102BFBF70FF941EC190B5C49B1F9080052
:10518000FBF7E9F941EC1A0B53EC192BFBF7FCF890
:1051900041EC180BFBF7F0F900B254490881524971
:1051A0004988A1F58060FBF7D6F941EC1B0B9FED18
:1051B000540B53EC102BFBF7EDF841EC190B4B495A
:1051C000B1F90600FBF7C7F941EC1A0B53EC192BA8
:1051D000FBF7DAF841EC180BFBF7CEF900B24349C4
:1051E000C88065E002203F4908703F48C088C0F58C
:1051F000806000EB400000B23C4908803A4880885B
:10520000C0F5806000EB400000B24880364800895D
:10521000A0F58060800000B2888033490988A1F53C
:105220008060FBF798F941EC1B0B9FED370B53ECBB
:10523000102BFBF7AFF841EC190B2C49B1F9080022
:10524000FBF789F941EC1A0B53EC192BFBF79CF88F
:1052500041EC180BFBF790F900B224490881224970
:105260004988A1F58060FBF776F941EC1B0B9FEDB7
:10527000240B53EC102BFBF78DF841EC190B1B4959
:10528000B1F90600FBF767F941EC1A0B53EC192B47
:10529000FBF77AF841EC180BFBF76EF900B21349F3
:1052A000C88005E000200F490870FFF79BFE00BF93
:1052B00000BF0E48B0F9060040F61651884203DDE3
:1052C00008460A49C88009E00848B0F90600B0F568
:1052D0000F6F03DC40F6F1000449C880BDEC088B79
:1052E00010BD0000BC000020BC030020E80300202B
:1052F000000000000000F83F0000000000E6B7409A
:105300009A9999999999B93FFCA9F1D24D62803F38
:105310000020014908707047BC0000202DE9F041D1
:10532000002500260027A84600246648007B664921
:1053300008600846006802284BD003287ED1634AE3
:10534000528800EE902AF8EE600AB0EE600A5D4ADC
:10535000B2F90210B2F90000DFED5D0A0122FBF79D
:1053600061FB5A48FEF780FF5A48006848B9574920
:105370005948FBF701FD01205649086000205749B4
:1053800008815048B0F9060001EE100AB8EEC11AC3
:105390005348D0ED001A31EE211AF0EE410A4E4882
:1053A00090ED061AB0EE410A01F006F805464549AF
:1053B000B1F90800FFF72CFD06464A48FBF754FDFB
:1053C0000446301901B243463A462846FBF77AFABA
:1053D00060E03E48FEF748FF4348006860B93B493B
:1053E0003D48FBF7C9FC394800F094FF01203E49D5
:1053F00008600020394908813248B0F9060001EE02
:10540000100AB8EEC11A3648D0ED001A31EE211A52
:10541000F0EE410A304890ED061AB0EE410A00F075
:10542000CBFF05462749B1F90800FFF7F1FC064616
:105430002C48FBF719FD0446281900E019E001B2D9
:1054400043463A463046FBF73DFA204A528841F23D
:10545000E6739A1A00EE902AF8EEE00AB0EE600ABF
:10546000184AB2F90210B2F900000122FBF77AFAE9
:1054700010E000231A4619461846FBF7FBF91948B5
:10548000FBF7F2FC044600231A4621461846FBF7B8
:1054900019FA00BF00BF0C480068032802D00020A2
:1054A0000C49086008480068022802D000200E4914
:1054B00008600548006810B9002003490860BDE88D
:1054C000F0810000F6030020D800002060090020D1
:1054D0000030BF45AC00002004040020E803002099
:1054E000A0000020500A0020B00000202DE9F04765
:1054F0000024002500260027A046A1469D4840899B
:105500009D49086008460068012804D0022879D027
:10551000032878D178E0994BB3F90420B3F902104D
:10552000B3F900000123FBF7EDFA9449B1F9080043
:1055300000F012FF04469149B1F90600FFF768FC3C
:1055400005468F48FBF790FC81468A4880890228EF
:1055500018D100218B4800F02AF9064600218A481C
:1055600000F025F907468948FEF736FC00218748F8
:1055700000F04FF9804600231A4619464046FBF7D3
:10558000C9F938E07B48808903281AD14FF47A6141
:105590007C4800F00CF906464FF47A617A4800F036
:1055A00006F907467948FEF717FC0021774800F016
:1055B00030F9804600231A4619464046FBF7AAF9FF
:1055C00019E04FF47A616F4800F0F1F806464FF4A5
:1055D0007A616D4800F0EBF807466C48FEF7FCFB7B
:1055E0006B496A4800F015F9804600231A461946AF
:1055F0004046FBF78FF93B46324621462846FBF7EB
:1056000061F9A0E045E08DE0624A528800EE102A80
:10561000B8EE400AF0EE400A584AB2F90210B2F968
:1056200000009FED5D0A0122FBF7FCF95948FEF7E7
:105630001BFE5A48006848B956495948FBF79CFB7D
:1056400001205649086000204C4908814B48B0F9B8
:10565000080001EE100AB8EEC11A5248D0ED001A47
:1056600031EE211AF0EE410A4D4890ED061AB0EEE7
:10567000410A00F0A1FE04464049B1F90600FFF7D7
:10568000C7FB05463B46324621462846FBF71AF93A
:1056900059E04048FEF7E8FD4348006860B93D49DD
:1056A0003F48FBF769FB3B4800F034FE01203E49D0
:1056B00008600020314908813048B0F9080001EE47
:1056C000100AB8EEC11A3748D0ED001A31EE211A8F
:1056D000F0EE410A324890ED061AB0EE410A00F0B1
:1056E0006BFE04462549B1F90600FFF791FB05461C
:1056F0003B46324621462846FBF7E4F8254A5288C5
:1057000041F2E6739A1A00EE902AF8EEE00AB0EE43
:10571000600A1A4AB2F90210B2F900000022FBF73F
:1057200021F910E000231A4619461846FBF7A2F8A3
:105730001348FBF799FB814600231A464946184651
:10574000FBF7C0F800BF00BF0B480068032802D079
:1057500000201249086008480068022802D0002092
:10576000114908600448006810B900200249086027
:10577000BDE8F087BC030020D4000020E80300202F
:10578000500A002024050020C805002080040020C5
:105790000CFEFFFF600900200030BF45AC00002078
:1057A00004040020A0000020B0000020704770B565
:1057B0002DED028B04460D46002008EE100A00264F
:1057C0002046FEF709FB2078C01F10B1012808D140
:1057D00002E008EE105A08E0684200B208EE100A33
:1057E00003E0002008EE100A00BF00BFB4F9040077
:1057F00000EE900AF8EEE00AB0EE600AF8EEC80A91
:1058000004F10C00FEF72EFC06463046BDEC028B80
:1058100070BD70B504460D46B4F9040000EE900A60
:10582000F8EEE00AB0EE600A00EE905AF8EEE00AF8
:1058300004F10C00FEF716FC0646304670BD000071
:1058400010B5012209490720FEF730FB0122084963
:105850000820FEF72BFB012206490520FEF726FB58
:10586000002005490860401E486010BD2405002046
:10587000C8050020800400208C00002010B5FCF733
:1058800063FC10BD00B593B0302107A8FAF7D0FC37
:10589000142102A8FAF7CCFC00BF00200190254893
:1058A000006840F08050234908600846006800F016
:1058B0008050019000BF00BF00BF002001901E4833
:1058C000006840F480401C4908600846006800F405
:1058D0008040019000BF00BF0220079001200A9085
:1058E00010200B9002200D9000210E9108210F91A5
:1058F000A8211091022111910421129107A8FCF70F
:1059000039FE08B1FBF736FA0F200290022003900F
:10591000002004904FF4A05005904FF48050069062
:10592000052102A8FCF7E6FC08B1FBF723FA13B047
:1059300000BD00004038024000700040054800688B
:1059400040F47000034908604FF00060014980395D
:105950000860704788ED00E010B50248FDF7ECF9EB
:1059600010BD00007001002010B50268294B98425C
:105970000ED0B0F1804F0BD0274B984208D0274B68
:10598000984205D0264B984202D0264B984203D12C
:1059900022F070024B681A431E4B984220D0B0F19F
:1059A000804F1DD01C4B98421AD01C4B984217D0E8
:1059B0001B4B984214D01B4B984211D01A4B984263
:1059C0000ED01A4B98420BD0194B984208D0194B65
:1059D000984205D0184B984202D0184B984203D1F8
:1059E00022F44072CB681A4322F080034C6943EAE8
:1059F000040202608B68C3620B688362054B9842A5
:105A000002D0084B984201D10B6903630123436123
:105A100010BD0000000001400004004000080040EC
:105A2000000C0040000401400040014000440140DF
:105A30000048014000180040001C004000200040C9
:105A400030B50C46816821F47F4142EA03252543A5
:105A50002943816030BD0A46816821F0700142F01F
:105A6000070319438160704730B5056A25F00105C9
:105A70000562026A4368846924F0700424F0030418
:105A80000D682C4322F002028D682A43104DA84273
:105A900000D103E00F4DA84206D100BF22F008025A
:105AA000CD682A4322F00402094DA84202D0094DD4
:105AB000A84207D123F4807323F400734D692B436C
:105AC0008D692B43436084614D684563026230BD3C
:105AD000000001400004014030B5056A25F01005C2
