:020000040800F2
:10000000000F00209D0100084B3A00083F2C00081B
:10001000493A0008110800084147000800000000A4
:10002000000000000000000000000000413E000849
:100030009D0B000800000000D53B00088940000827
:10004000B7010008B7010008B7010008B7010008B0
:10005000B7010008B7010008B7010008B7010008A0
:10006000B7010008B7010008B7010008B701000890
:10007000E10A0008B7010008B7010008B70100084D
:10008000B7010008B7010008B7010008B701000870
:1000900015080008B7010008B7010008B7010008FB
:1000A000B7010008B7010008B7010008B701000850
:1000B0002D410008B7010008B7010008B70100088A
:1000C000B7010008B7010008B7010008B701000830
:1000D000B7010008FD460008B701000809470008FD
:1000E000B7010008B7010008B7010008B701000810
:1000F000B7010008B7010008B7010008B701000800
:10010000B7010008B7010008B7010008B7010008EF
:10011000B7010008B7010008B7010008B7010008DF
:10012000B7010008ED0A0008B7010008B701000890
:10013000B7010008B7010008B7010008B7010008BF
:1001400021080008B7010008B7010008B70100083E
:10015000B7010008B7010008B70100081D470008F3
:10016000B7010008B7010008B7010008B70100088F
:10017000B7010008B7010008B7010008000000003F
:10018000B7010008B7010008DFF80CD000F02EFB23
:1001900000480047A54A0008000F00200648804795
:1001A00006480047FEE7FEE7FEE7FEE7FEE7FEE75C
:1001B000FEE7FEE7FEE7FEE71141000889010008BF
:1001C0002DE9F05F0546002092469B46884606468C
:1001D000814640241BE0284641464746224600F01F
:1001E0004EFA53465A46C01A914110D3114618464A
:1001F000224600F035FA2D1A67EB01084F462246D9
:100200000120002100F02CFA17EB00094E41201EBE
:10021000A4F10104DFDC484631462A464346BDE8E6
:10022000F09FD2B201E000F8012B491EFBD27047CB
:100230000022F6E710B513460A4604461946FFF7B2
:10024000F0FF204610BD2DE9FE4F804681EA0300F5
:10025000C00F0C46009021F0004123F00045B8EBA0
:100260000200A94105D24046214690461C460B4655
:10027000024623F00040104347D0270DC7F30A0081
:10028000C3F30A510290401A019040286BDAC3F37D
:10029000130040F4801B0098924620B10023D2EB5B
:1002A000030A63EB0B0B01985946C0F1400250461C
:1002B00000F0D6F906460D4650465946019A00F020
:1002C000EEF910EB08006141002487EA115284EA3C
:1002D000E7731A4340D0009A62B3019A012A4FEAA9
:1002E000075215DC001B61EB02014FF0004202EAED
:1002F0000752CDE90042001C41F5801132462B46E1
:1003000000F025FA03B0BDE8F08F40462146F9E73A
:10031000001B61EB0201001C41F5801300185B41DA
:100320002018A2F5001747EB030140EAD570B61973
:100330006D4111E06D084FEA360645EAC0754FEA97
:100340000752001B61EB0201001C41F580114908B6
:100350004FEA30000019514132462B4603B0BDE848
:10036000F04F00F0E5B90098012240000023D0EBE7
:10037000020263EBE073009821464FEAE074B8EBA9
:10038000000061EB0401E9E783F000435BE781F0E3
:10039000004158E72DE9FE4F81EA030404F00044D0
:1003A00021F0004100944FF0000B23F0004350EA8D
:1003B00001045ED052EA03045BD0C3F30A54C1F3D4
:1003C0000A552C44A4F2F3340194A0FB0254C1F367
:1003D000130141F48011C3F3130343F4801301FBB1
:1003E000024400FB034E840A970A44EA815447EA18
:1003F0008357A4FB076802958D0A05FB07854FEA22
:10040000932C04FB0C542705029D4FEA065847EA3B
:100410001637B5EB08056EEB070C870E920E47EA10
:10042000811742EA8312A7FB0201B6EB0B0164EBD2
:1004300000042B0D43EA0C335E1844EB1C50DA46E3
:100440005146E7FB0201C5F313044FEA0B3343EABD
:1004500014534FEA0432019C43EA0603A4F10C044E
:100460000294009CCDE900B400F071F903B0BDE83E
:10047000F08F00200146F9E72DE9F04D81EA0304F1
:1004800004F0004B21F0004514464FF0000A23F021
:10049000004150EA050220D054EA01021DD0C5F304
:1004A0000A570246C5F31303C1F31300C1F30A56FA
:1004B00040F4801543F48013A7EB0608101BD646C2
:1004C00008F2FD3873EB050002D308F1010801E0E2
:1004D00092185B41B8F1000F03DA00200146BDE835
:1004E000F08D00204FF48011064684460EE0171B65
:1004F00073EB050705D3121B63EB050306434CEAB8
:10050000010C49084FEA300092185B4150EA01079C
:10051000EDD152EA030012D082EA040083EA050119
:10052000084305D0101BAB4106D20122002306E090
:1005300000224FF0004302E06FF0010253101AEB6B
:1005400006004CEB085110EB0A0041EB0B01BDE833
:10055000F04D00F0EDB80EB5C10F80EAE070084430
:10056000CA07002140F233438DE80E000A460B46CD
:1005700000F0EDF803B000BD0EB540F2334102913A
:100580000021CDE900110A460B4600F0E0F803B067
:1005900000BD70B5C1F30A5201F000450024C1F35B
:1005A000130140F2FF3341F480119A4201DA002036
:1005B00070BD40F233439A42A2F2334203DC52420E
:1005C00000F05DF800E090402C43F1D0404270BD57
:1005D000C1F30A5210B5C1F3130140F2FF3341F4E5
:1005E00080119A4201DA002010BD40F233439A4252
:1005F000A2F2334203DC524200F041F810BD9040B9
:1006000010BD00F0004230F000400AD0C10D01F5ED
:100610006071C0F3160042EA0151C208400711435D
:10062000704700200146704701F0004330B421F0CC
:10063000004150EA010206D00A0DA2F56072C1F332
:100640001301002A02DC30BC00207047440F44EA4A
:10065000C104C100E01830BC00EBC25000F031B85A
:10066000202A04DB203A00FA02F100207047914072
:10067000C2F1200320FA03F3194390407047202A67
:1006800004DB203A21FA02F00021704721FA02F33C
:10069000D040C2F120029140084319467047202AF9
:1006A00006DBCB17203A41FA02F043EAE07306E09A
:1006B00041FA02F3D040C2F12002914008431946AA
:1006C00070470029A8BF7047401C490008BF20F0B0
:1006D0000100704710B4B0FA80FC00FA0CF050EA48
:1006E000010404BF10BC704749B1CCF1200421FAC9
:1006F00004F411FA0CF118BF012121430843A3EBC4
:100700000C01CB1D4FEA00614FEA102042BF0020D0
:1007100010BC704700EBC35010440029A4BF10BCAC
:100720007047401C490008BF20F0010010BC704712
:1007300010B5141E73F1000408DA401C41F10001E9
:1007400092185B411A4301D120F0010010BD2DE940
:10075000F04D92469B4611B1B1FA81F202E0B0FA37
:1007600080F220329046FFF77BFF04460F4640EAB6
:100770000A0041EA0B0153465A46084313D011467A
:1007800053EA010019D0C8F140025046FFF777FF45
:1007900005460E46504659464246FFF761FF08435C
:1007A00005D0012004E020463946BDE8F08D002048
:1007B000054346EAE0762C4337430A986305E40A8A
:1007C000A0EB08000022FD0A44EA47540A3002D593
:1007D00000200146E9E7010510196941DDE90845F6
:1007E00000196941BDE8F04DA2E70000064C074D35
:1007F00006E0E06840F0010394E8070098471034F1
:10080000AC42F6D3FFF7C4FC285300084853000855
:10081000FEE70000014800F0B2BC0000B400002078
:10082000014800F0ACBC0000DC00002038B50E4CE4
:100830004FF4007525600025A560E5600825256159
:100840000A4C050A25706070080AA070E170100A51
:1008500020716271180AA071E3716B462246024949
:10086000034800F02DFB38BDA0030020210000202C
:10087000B400002038B50E4C40F2FF15256000256D
:10088000A560E560082525610A4C050A25706070A1
:10089000080AA070E170100A20716271180AA07134
:1008A000E3716B4622460249034800F009FB38BD5C
:1008B0008803002019000020DC000020DFED200A62
:1008C0009FED201A70B560EE200A1F4C0E460546BB
:1008D00080EE810A04F11001081D84ED030A04F082
:1008E00013F800EE905A94ED050A94ED041AF8EE10
:1008F000E00A012360EE201A00EE906AF8EEE00AAA
:1009000040EE811AFDEEE10A10EE900A01B270424B
:1009100000EE900A61800022F8EEE00A60EE200A04
:1009200000EE105AB8EEC00A40EE010ABDEEE00A31
:1009300010EE100A00B22080BDE8704000F05EB8F2
:100940000000B44300F8FF45C406002070B5064619
:1009500014460D46074803F079F8BDEEC00A234659
:10096000294610EE100A02B23046BDE8704000F091
:1009700045B80000DC0600200EB500221949012010
:1009800002F03CFC17490022A431022002F036FCA0
:1009900000221549032002F031FC13490022A43142
:1009A000042002F02BFC114800219FED110A018068
:1009B0004180818080ED040A80ED050A80ED020A05
:1009C00080ED030A0B4A9FED0C0A07CA8DE8070069
:1009D0000648F0EE400A6A460021183003F0CAF8D3
:1009E0000EBD0000340400207C050020C406002059
:1009F00000000000184B000800409C452DE9F04124
:100A000007461C4615460E46334802F0C8FB3248DE
:100A1000A43002F0C4FB314802F0C1FB2F48A430DF
:100A200002F0BDFBB919BA1B05FB041005FB04233A
:100A300005FB142205FB14110CB2274900B200EE8D
:100A4000900AB1F90410244800EE101A1EB217B231
:100A5000B8EEC00AF8EEE00A0C3002F02DFC0546B4
:100A60001D48A430B0F9040000EE100A784200EEF0
:100A7000900A1A48B8EEC00AF8EEE00A983802F078
:100A80001BFC07461548B0F9040000EE100A60424E
:100A900000EE900A1148B8EEC00AF8EEE00A0C30F9
:100AA00002F00AFC04460D4800EE906AA430B0F94A
:100AB0000400F8EEE00A00EE100A0848B8EEC00A9A
:100AC000B03002F0F9FB0346224639462846BDE81D
:100AD000F041FFF7ABBE0000340400207C0500208D
:100AE000014800F015BE000044020020014800F05B
:100AF0000FBE0000A402002001681823CAB2103AF9
:100B0000B2FBF3F2054B6FF30901032A9B5CC3654B
:100B100000D9091D8165084670470000F84A0008A1
:100B200010B5014600208B698A6A4FF0C07453B13A
:100B3000B3F5005F15D072B1012A0CD0022A0AD099
:100B4000032A09D104E01AB1012A06D0022A03D1EE
:100B5000C96AC90100D5012010BDC96AA142FAD0F5
:100B600010BD002AF7D0012AF2D0022AF3D0032ABE
:100B7000F3D010BD30B50468256825F480252560C4
:100B8000046863608368402B036803D09960006841
:100B9000C26030BD9A600068C16030BD704700001F
:100BA0002DE9FC5F00257648ADF80050ADF8045003
:100BB000744E807ADFF8D0B1744CB060012817D041
:100BC000DFF8CC91DFF8CCA14FF0010802287CD0EF
:100BD000032832D000231A4619461846FFF70EFFA5
:100BE0006D4800F029F9002301461A46184621E015
:100BF000B4F90420B4F90210B4F900000123FFF79E
:100C0000FDFEB4F9080003F0ADFD8046B4F906001E
:100C100002F0E2FF0446604800F00EF9074601A921
:100C2000684603F01FF9381901B2BDF90430BDF967
:100C300000204046FFF71EFE97E0584802F0A3FB55
:100C4000DBF800005F4630B95449514800F0AEF877
:100C5000C7F800802581B4F9080000EE100AB8EE4C
:100C6000C00A86ED010A00EE100ADAED000AB8EEBD
:100C7000C00A70EE200A99ED060A03F099FD81463C
:100C8000B4F9060002F0A8FF0746434800F0D4F884
:100C9000804601A9684603F0E5F808EB070001B2B9
:100CA000BDF90430BDF900204846FFF7E3FD3B489D
:100CB000B4F90210DFED3A0A4088012200EE100A72
:100CC000B4F90000B8EE400A00E002E0FFF73EFE93
:100CD0004BE0324802F057FB324F386848B92F4991
:100CE0002B4800F063F82D4803F022FDC7F8008080
:100CF0002581B4F9080000EE100AB8EEC00A86EDAE
:100D0000010A00EE100ADAED000AB8EEC00A70EE31
:100D1000200A99ED060A03F04BFD8146B4F906005E
:100D200002F05AFF07461C4800F086F8804601A9E9
:100D3000684603F097F807EB080001B2BDF90430EC
:100D4000BDF900204846FFF795FD1448B4F902109C
:100D500001224088A0F6FC70404200EE100AB4F96F
:100D60000000B8EEC00AFFF7A9FDB068032803D061
:100D7000CBF80050022801D00A480560BDE8FC9F6E
:100D800004030020A8000020840000202C03002081
:100D9000B80300207C00002018080020280700204D
:100DA00000C07F458800002070470000D0ED060A93
:100DB0000C484FF4B472C0ED040A4988A1F6FC71E6
:100DC000418011FB02F141F6FF7291FBF2F100EE5E
:100DD000101AB8EEC00A80ED080A30EEC00A80EDA5
:100DE000050A70476C00002010B5FF2300220F4950
:100DF000012002F0F9FA0D49FF230022F031022010
:100E000002F0F2FA0A484FF47A619FED0A0A416053
:100E100080ED020A80ED030A80ED040A0021816161
:100E2000C161418080ED080A10BD00002807002044
:100E30006C000020000000001CB540884FF4B47125
:100E4000A0F64D50484341F6FF7190FBF1F000EEE3
:100E5000100ADFED100A6946CDED000AB8EEC00AAF
:100E6000CDED010A01A803F04FFD0B489DED000AEE
:100E700080ED020ADDED010AC0ED030AD0ED010AA2
:100E8000F8EEE00A20EE800ABDEEC00A10EE100A6D
:100E900000B21CBD000000006C00002090F8202073
:100EA000012A07D0022A05D0416A41F4802141621B
:100EB00001207047006842690A4342610020704780
:100EC000F0B590F820500468A468012D05D0022DDB
:100ED00003D0416A41F4802153E014F0406F01D106
:100EE000E5004BD5C4F30164022C03D9416A41F4F7
:100EF000000146E00125A5401D608D684FF4C073D8
:100F00009DB1CE6835434E6845EAC605066803EBD9
:100F10000417F5514FF4C275076805EB04150E6907
:100F20007E51097D012905D009E00E88CD6845EA8A
:100F30004655EBE701684E5946F480764E511179DB
:100F4000D2F805504FF4C67641EA0525016806EB54
:100F500004168D511178D2F801204FF4C47541EA7E
:100F60000221026805EB04155151006803EB0411DE
:100F7000425842F0010242500020F0BD416A41F463
:100F8000001141620120F0BD10B590F82020012A27
:100F900007D0022A05D0416A41F480214162012034
:100FA00010BD3B48D0F8002242F00102C0F80022F8
:100FB000D0F8002222F47C52C0F80022D0F800229F
:100FC0004B6A42EA0322C0F800220A7D02F01F03A6
:100FD00001229A40D0F81C329343C0F81C32CB69EE
:100FE000B3B9D0F80C329343C0F80C328C894B68FB
:100FF00064F31F434C6900EBC404C4F840320C890D
:101000000B6864F31F434C6900EBC404C4F844321A
:10101000CB69012B16D1D0F80C321343C0F80C3237
:101020000C884B6864F31F434C6900EBC404C4F89C
:1010300040320C89CB6864F31F434C6900EBC40455
:10104000C4F844328B69002BD0F804320ED013431D
:10105000C0F804320B69002BD0F8143208D01343C7
:10106000C0F81432096A012904D008E09343EFE77D
:101070009343F5E7D0F81C121143C0F81C12D0F8C6
:10108000001221F00101C0F80012002010BD000084
:1010900000640040704730B590F82040012C05D026
:1010A000022C03D0416A41F480215DE004680029EC
:1010B00055D02469A40754D04FF4D874056804EBC4
:1010C00001142D5915F00405956005682D594ED071
:1010D000ED08556005682C5904F00204D4604FF403
:1010E000DA74056804EB01142D5905F00F0515613C
:1010F00005682D59C5F30725956105682C59240C01
:1011000054614FF4DC72046802EB0112A4581C70A5
:101110000468A458240A5C700468A458240C9C70C9
:101120000468A258120EDA704FF4DE72046802EB03
:101130000112A4581C710468A458240A5C71046844
:10114000A458240C9C710468A258120EDA7100682D
:1011500081B1016941F020010161002030BDE468E6
:10116000A8E7416A41F400114162012030BD6D0DD4
:101170001560AFE7C16841F02001C160EDE72DE9DE
:10118000F05F0546006800244669D0F8049087683F
:10119000D0F80CB0D0F810A0D0F81880F10748D0E3
:1011A000F90714D001218160B80703D5284600F063
:1011B00050FA0CE0780702D54FF4006407E03807D6
:1011C00002D54FF4805402E0284600F041FAF805B9
:1011D00016D529684FF480708860B80503D5284675
:1011E00000F039FA0CE0780502D544F4005407E029
:1011F000380502D544F4804402E0284600F02AFA7B
:10120000F80316D529684FF480308860B80303D5F9
:10121000284600F022FA0CE0780302D544F400449A
:1012200007E0380302D544F4803402E0284600F099
:1012300013FA300707D55FEACB6004D52968102080
:1012400044F40074C86070074FF0080707D55FEAE0
:101250000B7004D52868C760284600F099F9B007DC
:1012600006D52868C068800702D0284600F092F9A9
:10127000700607D55FEACA6004D52968102044F4D7
:1012800080640861B00607D55FEA0A7004D5286853
:101290000761284600F0ACF9F00606D52868006919
:1012A000800702D0284600F0A4F9B00308D55FEA11
:1012B000C96005D5296810204860284600F09AF9D1
:1012C000F00307D55FEA097004D52868476028460F
:1012D00000F0C4F9300446D55FEA497040D5F00506
:1012E00004D55FEAC87001D044F00104B00504D50C
:1012F0005FEA887001D544F00204700504D55FEA06
:10130000487001D544F00404300529D518F0700F59
:1013100026D008F07000402815D006DC102809D02F
:1013200020280AD0302816D10AE050280ED0602894
:1013300011D10EE044F008040DE044F010040AE07E
:1013400044F0200407E044F0400404E044F080044A
:1013500001E044F480742868816921F070018161A2
:10136000296804204860002C05D0686A2043686220
:101370002846FFF78FFEBDE8F09F70B5040003D04C
:1013800094F8200010B104E0012070BD204600F068
:1013900081F82068016821F00201016000F006FC7C
:1013A0000546052604E000F001FC401B0A2811D880
:1013B000206840688007F6D42068016841F0010188
:1013C000016000F0F3FB05460BE000F0EFFB401B73
:1013D0000A2806D9606A40F40030606284F8206010
:1013E000D2E720684068C007EFD0207E012820683F
:1013F00001683DD021F080010160607E01282068F5
:10140000016838D021F040010160A07E01282068E9
:10141000016833D021F020010160E07E01282068BE
:1014200001682ED041F010010160207F0128206862
:10143000016829D021F008010160607F012820683F
:10144000016824D021F004010160D4E902010843BD
:10145000D4E90412114308436168491E0843216816
:10146000C86100206062012084F82000002070BD67
:1014700041F08001C0E741F04001C5E741F02001A3
:10148000CAE721F01001CFE741F00801D4E741F0AD
:101490000401D9E7F0B587B0044614216846FEF789
:1014A000C7FE364B3648DFF8D0E01968D4F800C0E4
:1014B000334A03250226092710300024491CF4452D
:1014C00022D11960012907D1016841F00071016042
:1014D000006800F000700590106840F0080010608F
:1014E0001068CDE9005600F00800CDE904706946A7
:1014F0002448CDE9024500F07DFA0022114614206F
:1015000000F0C2FB142032E0DFF87CE0F44530D17B
:10151000D0F800C04CF0806CC0F800C0D0F800C01B
:1015200001290CF0806CCDF814C0196007D1016856
:1015300041F000710160006800F0007005901068D3
:1015400040F002001060106802AB00F0020005904D
:101550006020CDE9000683E8B00069460B4800F042
:1015600049FA00221146402000F08EFB402000F096
:101570007DFB07B0F0BD00000064004004000020C7
:1015800030380240000C0240006800400004024075
:101590007047000000B58BB001AB03AA0021FFF734
:1015A0007AFD0398A0F2012007281AD80E49C0B28C
:1015B00000EB800208700D4901EB420031F8123057
:1015C0000381BDF804305BBA21F81230BDF8061073
:1015D00049BA4180BDF8081049BA81809DF80A10C7
:1015E00081710BB000BD00001800002038030020FE
:1015F000704770477047000070B5044690F82000AF
:10160000012804D0606A40F40020606218E00220E3
:1016100084F820002068016821F00101016000F0D9
:10162000C5FA05460EE000BF00F0C0FA401B0A28CC
:1016300008D9606A40F400306062052084F8200018
:10164000012070BD20684068C007EDD1606270BDA8
:1016500070477047704770477047704770472DE973
:10166000F0410446876D00F0A1FA064694F8350073
:101670000025022806D08020606584F834500120BF
:10168000BDE8F0812068016821F016010160206842
:10169000416921F080014161206C08B9A06C20B142
:1016A0002068016821F0080101602068016821F0CC
:1016B000010101600BE000F079FA801B052806D9D2
:1016C0002020606504F8345F03206070D8E720684C
:1016D0000068C007EFD194F85C103F208840B860E4
:1016E00004F8345F012060700020C9E790F83510DD
:1016F000022903D08021416501207047052180F82F
:1017000035100068016821F0010101600020704778
:101710002DE9F84304464FF00009CDF800906348E6
:101720004FF41651A56D0068B0FBF1F72E6894F8E0
:101730005C10082000FA01F131420FD021680A68DC
:1017400052070BD50A6822F004020A6094F85C1074
:101750008840A860606D40F00100606594F85C10FE
:101760004FF0010808FA01F0304208D021684969B9
:10177000090604D5A860606D40F00200606594F829
:101780005C1004208840304208D02168096889072D
:1017900004D5A860606D40F00400606594F85C10AA
:1017A00010208840304218D021680968090714D5F4
:1017B000A86020680168490304D50068000308D5C3
:1017C000A16C07E00168C90503D4016821F0080194
:1017D0000160216C09B12046884794F85C102020F4
:1017E0008840304231D021680968C9062DD5A860EB
:1017F00094F8350005282068016806D0490347D5CC
:10180000006800031DD4616C1CE021F0160101602A
:101810002068416921F080014161206C08B9A06C09
:1018200020B12068016821F00801016094F85C1083
:101830003F208840A86084F8349084F83580216D7A
:101840001FE0E16B09B120468847606D00282BD06E
:10185000606DC00714D0052084F835002068016849
:1018600021F0010101600098401C0090B84203D8AB
:1018700020680068C007F6D184F8349084F8358079
:10188000E16C002910D001B02046BDE8F0430847C4
:101890000168C905D5D4016821F01001016084F800
:1018A000349084F83580CCE7BDE8F883140000203C
:1018B0002DE9F041044600F079F906465CB10025B7
:1018C00084F83450022084F835002068016821F043
:1018D000010101600DE00120BDE8F08100F066F932
:1018E000801B052805D920206065032084F8350079
:1018F000F2E720680068C007F0D12268116820482C
:101900000140D4E901031843D4E9033633431843B3
:1019100063691843A3691843E3691843236A1843AA
:101920000843616A042903D1D4E90B13194308431E
:10193000106020684069666A20F0070130460E4357
:10194000012704280CD1A06A0643E06A40B1204672
:10195000FFF7E6F820B14020606584F83570BAE7FB
:10196000206846612046FFF7C7F894F85C203F21C5
:1019700091408160656584F835700020ACE7000017
:101980003F8010F02DE9F0410446866D90F8340058
:10199000002501280DD0012084F8340094F835701A
:1019A0000020012F07D084F8340002252846BDE826
:1019B000F0810220FBE7022784F83570606520463D
:1019C000FFF7D8F894F85C103F208840B06020689A
:1019D000016841F016010160206C20B120680168A7
:1019E00041F0080101602068016841F001010160D7
:1019F000DCE700002DE9F84F00224FF00108032535
:101A00004FF00F0E0B6808FA02F42340A3426ED188
:101A10004E68012E05D0022E03D0112E01D0122EB9
:101A200012D186684FEA420C05FA0CF7BE43CF6824
:101A300007FA0CF7374387604668A6430C79C4F36E
:101A40000014944034434460C668570005FA07FC0C
:101A50008C6826EA0C06BC403443C4604C68022CF7
:101A600001D0122C13D1D40800EB8404A346D4F87F
:101A7000209054074FEAD46A0EFA0AF629EA0609BA
:101A80000E6906FA0AF646EA0906CBF820600668EF
:101A90000C7926EA0C0604F00304BC4034430460CD
:101AA0004C68E40065D5364C266846F480462660CE
:101AB000246822F0030604F480440094314C34443A
:101AC000A446D4F808489607370F0EFA07F6B44331
:101AD0002D4EB04201D1002624E02C4EB04201D15F
:101AE00001261FE02A4EB04202D102261AE040E051
:101AF000284EB04201D1032614E0274EB04201D156
:101B000004260FE0254EB04201D105260AE0244EFE
:101B1000B04201D1062605E0224EB04201D107268F
:101B200000E00826BE402643CCF808681E4E346804
:101B30004F689C43FF0300D51C4334601A4C241D9E
:101B400026684F689E43BF0300D51E432660164E8D
:101B5000083634684F689C43FF0200D51C4334604C
:101B6000114E0C3634684F689C43BF0200D51C43AD
:101B70003460521C102AFFF445AFBDE8F88F000016
:101B8000443802400030014000000240000402409E
:101B900000080240000C0240001002400014024005
:101BA00000180240001C0240003C014001488068CF
:101BB0007047000008000020024881680278114444
:101BC00081607047080000200B4810B5016841F49F
:101BD00000710160016841F480610160016841F4B5
:101BE00080710160032000F06FF8002000F006F81B
:101BF00000F024F8002010BD003C024070B50D4DEF
:101C000004464FF47A712878B1FBF0F00A4909686C
:101C1000B1FBF0F000F004FB48B9102C07D2002211
:101C20002146501E00F030F800206C6070BD01208D
:101C300070BD000008000020140000200A4808B50C
:101C4000016841F480410160006800F48040009028
:101C50000548001F016841F080510160006800F0F4
:101C60008050009008BD000044380240002809DB85
:101C700000F01F02012191404009800000F1E020A6
:101C8000C0F8001170470000F0B40E4B1B680C4602
:101C9000C3F30223C3F10705042D00D90425191D40
:101CA000072901D2002300E0DB1E012606FA05F118
:101CB000491E214099409E40761E16403143F0BC9B
:101CC00002F0FEBD0CED00E0064900F007020868D6
:101CD0004FF6FF03184040EA0220034A1043086011
:101CE000704700000CED00E00000FA052DE9F04718
:101CF0000E46050065D0DFF81481D8F80000F7B271
:101D000000F00F00B04207D288F80070D8F8000049
:101D100000F00F00B04254D128683D4C810712D525
:101D2000400703D5206840F4E05020602878000781
:101D300003D5206840F4604020602068A96820F046
:101D4000F000084320602878C0072DD0304968682B
:101D50000839012812D0022813D0032811D00968AD
:101D6000890700292DDA216821F003010143216050
:101D7000FFF71CFF814641F2883A0EE009688903AB
:101D8000EFE709688901ECE7FFF710FFA0EB090115
:101D9000514502D90320BDE8F0872068696800F04A
:101DA0000C00B0EB810FEFD1D8F80010404601F0E5
:101DB0000F01B14207D90770006800F00F00B04270
:101DC00001D00120E7E72878400705D52068E968B9
:101DD00020F4E050084320602878000706D52068EA
:101DE000296920F4604040EAC100206000F038F822
:101DF0002168084AC1F30311515CC84006490860D4
:101E000006480068FFF7FAFE0020C4E7003C0240E5
:101E100008380240004B0008140000200C0000208D
:101E20000448054900680968044AC1F38221515CED
:101E3000C84070471400002008380240104B0008CA
:101E40000448054900680968044AC1F34231515CFD
:101E5000C84070471400002008380240104B0008AA
:101E6000154810B5006810F00C02144813D014493E
:101E7000042A0FD0082A0ED10F4C241F2268236891
:101E800002F03F025B0207D52068C0F38810A0FB78
:101E9000010106E0084610BD2168C1F38811A1FBCD
:101EA00000010023FEF78CF92168C1F30141491CB0
:101EB0004900B0FBF1F010BD083802400024F400E6
:101EC00040787D012DE9F84F04006ED02078DFF8CE
:101ED0003C93C007A9F104054AD009F10400016848
:101EE000C1F38101012908D00068C0F381000228F4
:101EF0000AD1D9F80000400206D52868800337D5FA
:101F000060680028E1D033E06068B0F5803F10D011
:101F1000B0F5A02F286810D020F480302860286801
:101F200020F4802028606068A8B1FFF73FFE0646D5
:101F30000DE0286840F48030F4E740F48020286009
:101F4000F7E700BFFFF732FE801B642873D82868CC
:101F50008003F7D50CE0FFF729FE064605E000BF39
:101F6000FFF724FE801B6428F0D828688003F7D48C
:101F70002078DFF89C8280074FF0000A3ED5A34806
:101F8000001D016811F00C0F08D00068C0F381003B
:101F900002280BD1D9F80000400207D42868800736
:101FA00016D5E068012800D112E02BE1E068B8B155
:101FB0000120C8F80000FFF7F9FD064605E000BF64
:101FC000FFF7F4FD801B0228C0D828688007F7D5EA
:101FD0002868216920F0F80040EAC10028600DE07F
:101FE000C8F800A0FFF7E2FD064604E0FFF7DEFDBB
:101FF000801B02281FD828688007F7D420780007A4
:1020000022D5824E83486169703671B10121016029
:10201000FFF7CCFD074604E0FFF7C8FDC01B022810
:1020200009D830688007F7D50EE0C0F800A0FFF7A8
:10203000BDFD074605E082E0FFF7B8FDC01B0228A2
:102040007DD830688007F7D42078400768D5DFF85E
:10205000BCB100270BF13C0BDBF80000C0000BD437
:10206000DBF8001041F08051CBF80010DBF80000E5
:10207000012700F080500090674E3068C00510D4F2
:10208000306840F480703060FFF790FD009005E00C
:10209000FFF78CFD0099401A022850D83068C0051F
:1020A000F6D55A4EA0686C3601280FD00528306846
:1020B00010D020F001003060306820F00400306063
:1020C000A068B8B1FFF772FD00900FE0306840F0F3
:1020D0000100F4E740F004003060F7E7FFF766FD29
:1020E0000099411A41F28830814266D830688007F1
:1020F000F4D50EE0FFF75AFD009007E0FFF756FD1C
:102100000099411A41F28830814256D830688007E0
:10211000F4D42FB1DBF8001021F08051CBF800107F
:10212000A069C8B33949091D0968C1F381010229B1
:102130004AD00228504607D0C8F8600000E03CE0D2
:10214000FFF734FD04463BE04746C8F86000FFF760
:102150002DFD064605E000BFFFF728FD801B022885
:102160002BD828688001F7D4D4E907010843A16A75
:102170002A4A490802EB0141626A41EA8211084396
:1021800094F82C1040EA0161C9F80010012038666B
:10219000FFF70CFD044606E036E000BFFFF706FD42
:1021A000001B022809D828688001F7D52CE000BF61
:1021B000FFF7FCFC001B022802D90320BDE8F88FC2
:1021C00028688001F4D41FE00128F7D0D9F8000076
:1021D000E26900F48001914214D1226A00F03F01CB
:1021E00091420FD147F6C071626A0140914209D114
:1021F000A26A00F44031914204D1E16A00F07060BB
:10220000884201D00120D9E70020D7E704380240F6
:1022100000004742800E4742007000400000FFFF70
:1022200010B5401EB0F1807F01D3012010BD4FF0EA
:10223000E02460610F21601702F042FB0020A061E2
:1022400007202061002010BD7047704710B590F83E
:102250003C20012A22D0012280F83C20CA688C68E8
:1022600022F4407222434C6822F4806222430C68BC
:1022700022F4006222430C6922F4805222434C690A
:1022800022F400522243C969002322F480420A4307
:1022900001684A6480F83C30002010BD022010BD67
:1022A00070B590F83C20012A32D0012480F83C40DF
:1022B000022280F83D2003685A689D6822F070066B
:1022C0000A6832435A60134B02689A4214D0B2F142
:1022D000804F11D0104B9A420ED0104B9A420BD027
:1022E0000F4B9A4208D00F4B9A4205D00E4B9A42A0
:1022F00002D00E4B9A4204D1496825F0800319435D
:10230000916080F83D40002180F83C10084670BD87
:10231000022070BD000001400004004000080040A1
:10232000000C004000040140004001400018004043
:1023300010B5040003D094F83D0010B107E001206F
:1023400010BD002084F83C00204600F00DF802206B
:1023500084F83D00211D206801F0EEFE012084F884
:102360003D00002010BD000008B5006811498842FA
:1023700009D11148016841F001010160006800F0D5
:102380000100009008BDB0F1804FFBD10A48001F4A
:10239000016841F0010101600068002200F00100C5
:1023A000009011461C20FFF76FFCBDE808401C2080
:1023B000FFF75CBC0000014044380240022180F875
:1023C0003D1001688A6802F00702062A03D00A68F5
:1023D00042F001020A60012180F83D1000207047A0
:1023E0000168CA6842F00102CA600068816801F0B1
:1023F0000701062903D0016841F0010101600020B6
:10240000704770B5044690F83C00012817D00125AC
:1024100084F83C50022084F83D002068826822F055
:10242000770222F47F4282600868502830D00DDCA9
:1024300020284DD005DC98B310283BD148E002207D
:1024400070BD302844D0402834D139E0602828D0ED
:10245000702806D0B0F5805F2CD0B0F5005F29D190
:102460000AE0CB68D1E90121206801F0D6FE20689E
:10247000816841F0770109E0CB68D1E9012120684A
:1024800001F0CBFE2068816841F48041816011E059
:10249000CA684968206801F095FF5021206807E06C
:1024A00016E0CA684968206801F09DFF6021206835
:1024B00001F0BDFE84F83D50002084F83C0070BD62
:1024C000CA684968206801F07DFF40212068EFE775
:1024D000226801461046EBE7704770B50446006875
:1024E00001694FF00005C943890715D4C168C94384
:1024F000890711D4E91E01610120207720688069D5
:102500008007204602D0FFF7E7FF04E000F0C2F8A2
:10251000204600F044F9257720680169C94349073E
:1025200017D4C168C943490713D46FF0040101618E
:10253000022020772068806910F4407F204602D076
:10254000FFF7CAFF04E000F0A5F8204600F027F9E5
:10255000257720680169C943090716D4C168C943B2
:10256000090712D46FF00801016104202077206868
:10257000C0698007204602D0FFF7AEFF04E000F0FC
:1025800089F8204600F00BF9257720680169C943D6
:10259000C90617D4C168C943C90613D46FF0100126
:1025A0000161082020772068C06910F4407F204630
:1025B00002D0FFF791FF04E000F06CF8204600F035
:1025C000EEF8257720680169C943C90708D1C168B9
:1025D000C943C90704D1891E0161204600F002F9F0
:1025E00020680169C943090609D4C168C9430906BD
:1025F00005D46FF0800101612046FFF725FE2068B9
:102600000169C943490609D4C168C943490605D4CB
:102610006FF040010161204600F0F6F82068016982
:10262000C94389060BD4C168C943890607D46FF032
:10263000200101612046BDE87040FFF706BE70BD75
:1026400010B586B0044614216846FDF7F1FD0E4929
:102650002068884216D10D480021026842F010021D
:102660000260006800F0100005904FF4D440009024
:102670000220CDE901010120CDE90310694604489B
:10268000FFF7B8F906B010BD000001403038024035
:1026900000100240704770B5044690F83C000D46AB
:1026A00001280DD0012684F83C60022084F83D000A
:1026B00042B1042A18D0082A2AD00C2A4DD139E078
:1026C000022070BD206801F0BBFD2068816941F0E7
:1026D000080181612068816921F00401816120681D
:1026E00081692A69114311E0206801F0D9FD206851
:1026F000816941F4006181612068816921F4806110
:102700008161206881692A6941EA0221816124E0AE
:10271000206801F0FBFD2068C16941F00801C1613A
:102720002068C16921F00401C1612068C1692A697A
:10273000114311E0206801F01DFE2068C16941F4D9
:102740000061C1612068C16921F48061C1612068B4
:10275000C1692A6941EA0221C16184F83D60002013
:1027600084F83C0070BD10B5040003D094F83D001F
:1027700010B107E0012010BD002084F83C00204685
:1027800000F00CF8022084F83D00211D206801F0C3
:10279000D3FC012084F83D00002010BD7047704735
:1027A00010B504460068012201F02AFD0B4920689B
:1027B000884202D00A49884203D1416C41F4004169
:1027C00041642068816801F00701062903D001688F
:1027D00041F001010160002010BD00000000014037
:1027E000000401400068B0F1804F0AD10548F7EEBF
:1027F000000A90ED000A30EE200A80ED000AFEF794
:10280000CFB9704700000020704710B5044600683B
:10281000416994F83920C1F3C011212A0BD151B17B
:10282000416921F080014161206B08B1FEF717FF7B
:10283000204601F048FE2068416994F83A20C1F32F
:102840008011222A0BD151B1416921F0400141612F
:10285000606B08B1FEF703FF204601F026FE002062
:1028600010BD704770B5026804461068D16853699E
:1028700010F00F0F52D003F0010501F490762E43B3
:102880005FD0C20705D0CA0503D5E26B42F0010252
:10289000E263420705D5DA0703D0E26B42F0020299
:1028A000E263820705D5DA0703D0E26B42F0040247
:1028B000E263020707D501F020022A4303D0E26B4E
:1028C00042F00802E263E26B002A33D0800604D5AE
:1028D000880602D5204601F0FFFD20684069E16BC3
:1028E000C0F38010090700D428B3204601F0DDFDB5
:1028F0002068416949061AD5416921F040014161CA
:10290000606BA0B11B490165606BFEF7EFFE00280C
:1029100010D0606B016DBDE870400847830610D58C
:102920008B060ED52046BDE8704001F0D5BD20468F
:10293000FFF797FF70BD2046FFF793FF0020E0638D
:1029400070BD030606D50B0604D52046BDE87040D1
:1029500001F0A2BE4006F3D54806F1D5D168204665
:1029600021F04001D160202184F8391000F066F98F
:1029700070BD00000B44000870B5040004D094F84A
:102980003900002510B106E0012070BD84F83850F0
:10299000204600F023F8242084F839002068C1681C
:1029A00021F40051C160204601F0E2FD2068016978
:1029B00021F4904101612068416921F02A014161BF
:1029C0002068C16841F40051C160E563202084F8AB
:1029D000390084F83A00002070BD00002DE9F04F66
:1029E00087B0054614216846FDF722FC6248614B1A
:1029F0002A6800246049143802264FF003084FF07B
:102A000007099A4232D10A6842F010020A60096846
:102A100001F010010591016841F0020101600168B7
:102A200001F002010591016841F0010101600068B7
:102A300002AA00F0010005908020CDE9000682E89E
:102A4000100369464D48FEF7D5FF3002CDE9000678
:102A500002AA694682E810034948FEF7CBFF00222C
:102A600011462520FFF710F9252040E0454B4FF493
:102A7000807A1F154FF4403B9A423DD13E49091FD1
:102A80000A6842F480220A60096801F480210591F5
:102A9000016841F004010160006802AA00F004002E
:102AA00005904FF44060CDE9000682E810036946C6
:102AB0003548FEF79FFF364E344806F11801306066
:102AC0007804C6E90104C6E90347746181E8100C83
:102AD00030467462FEF7ECFE08B1FEF765F96E63EE
:102AE000002211462720B563FFF7CEF82720FFF715
:102AF000BDF807B0BDE8F08F264B9A42F9D10A68BD
:102B000042F020020A60096801F020010591016885
:102B100041F0400101600068029400F0400005901F
:102B20004FF48440CDE900060820CDE903806946D2
:102B30001948FEF75FFF164E1848603606F1180276
:102B400030608005C6E90104C6E90347746182E884
:102B5000100C30467462FEF7ABFE08B1FEF724F9A4
:102B60006E63002211464720B563FFF78DF84720BA
:102B7000BDE700000010014044380240000402405C
:102B80000000024000480040000802402860024067
:102B90004402002000140140001802402864024052
:102BA000F8B5044690F83A0020283CD1C1B3BAB336
:102BB00094F83800012836D0012084F83800A1624A
:102BC000A2850025E563222084F83A00636B17484C
:102BD000D863636B16481864636B1648D864606BDF
:102BE000134605650846666B216802463046091D96
:102BF000FEF7C8FE206801684168009184F83850EB
:102C0000C16841F48071C1602068416941F00101EF
:102C100041612068416941F0400141610020F8BDF7
:102C2000FFE70120FBE70220F9E700006544000808
:102C3000A14400081B440008704770477047FEE736
:102C4000104808B500680168C943C90619D401686D
:102C5000406800900B48FFF7D8FD0B4800684068BB
:102C6000D0F10B0005D1094800F0AAF8074800F0A0
:102C700039F806490B22BDE80840C91C0148FFF796
:102C80008FBF08BD04020020A4020020B80300206A
:102C9000114908B501204881104800680168C943FE
:102CA000C90618D40168406800900C48FFF7ADFDD4
:102CB0000B4800684068D0F1120009D001F09CF880
:102CC00005491222BDE8084012390448FFF768BFE1
:102CD00000F0A8FFF4E708BD2C030020C401002089
:102CE00044020020F0B5002826D0234901224C6878
:102CF0001CB3D0ED060A91ED000A204D022630EEFD
:102D0000C00A1F4F10EE103AAB421CD8022C1AD04A
:102D100010EE103ABB4220DC032C1ED04A60C0EDFE
:102D2000090A00BF90ED040A80ED070A90ED050A3C
:102D300080ED080AC1ED000AF0BD90ED060A81EDB4
:102D4000000A4A60F0BD10EE103ABB4201DD4A6055
:102D5000E8E79FED0C0A4E6009E010EE102AAA4247
:102D600001D94E60DEE703229FED070A4A6030EE8C
:102D7000800A80ED090AD5E72C0000200000AAC3D4
:102D80000000AA430000B4430000B4C308B50A48D9
:102D900001F0D7FC09480068016841680091C168EA
:102DA00041F01001C16004490B22BDE80840C91C74
:102DB0000248FFF7F5BE0000B8030020040200201F
:102DC0002DE9F04104002DED048B74D060780B28C0
:102DD00071D3774E00259FED778A00BF05EB450044
:102DE00000EBC5002044A278C178914263D10179FB
:102DF0005139092922D2DFE801F00522405FD1765E
:102E00008CD1B90050F8051FB1604068F060684986
:102E100000200831F3EE000A31F9102000EE102AEC
:102E200004EB8002401CB8EEC00AC0B2032820EEBA
:102E3000080A20EE200A82ED0A0AEDD3AEE050F82F
:102E4000051F316140687061594900201031DFED84
:102E50005A0A00BF31F9102000EE102A04EB80025C
:102E6000401CB8EEC00AC0B2032820EE080A20EECB
:102E7000200A82ED0D0AEDD390E050F8051FB161F4
:102E80004068F0614A49002018319FED4C0A00BFAC
:102E900031F9102000EE902A04EB8002401CF8EE7D
:102EA000E00AC0B2032860EE880A60EE800AC2ED34
:102EB000040AEDD372E076E050F8051F31624068F5
:102EC00070623B490020203131F9102000EE102AB9
:102ED00004EB8002401CB8EEC00AC0B2032882EDA9
:102EE000100AF1D35AE050F8051FB16200EE101A33
:102EF0004068F062B8EEC00ADFED310A84ED130AD3
:102F000000EE100AB8EEC00A80EE201A84ED141A02
:102F100044E050F8051F71634068B0632948244AB3
:102F200091FBF0F130329FED289B1768DFED288A86
:102F300097FBF0F100FB1170FDF70DFB53EC192B23
:102F4000FDF79AFA00EE107A41EC190BF8EEC00A80
:102F500080EEA80A10EE100AFDF753FB53EC192B74
:102F6000FDF771F9FDF760FB206617E050F8051FCB
:102F7000B1634068F0630E490020383131F9102008
:102F800000EE102A04EB8002401CB8EEC00AC0B26A
:102F9000042820EE080A82ED1B0AEFD36D1CEDB267
:102FA0000B2DFFF41BAFBDEC048BBDE8F0810000DE
:102FB0002C000020000000380000FA4400003443D8
:102FC0000000C8428096980000000000006AF840A7
:102FD0008096184B10B5040026D02078C11F01D070
:102FE000012921D1401EC0B201F050FD0088E081CE
:102FF0002078401EC0B201F049FD808860822078B0
:10300000401EC0B201F042FD0089E0822078401EDF
:10301000C0B201F03BFD408820822078401EC0B243
:1030200001F034FD8079207510BD000030B50C46EC
:103030002DED028B89B0014620704FF000006060DA
:10304000A060A081E0816082E082208220750390F0
:103050000590019002909FED1C0A150004900090CD
:103060000690079008900BD1F2EE040AC91F01D018
:10307000012905D1CDED000A8DED010A8DED020A81
:103080009FED128A03AA2946F0EE480AB0EE480ADC
:1030900004F1180000F06EFDF0EE480AB0EE480AA8
:1030A0006A46294604F1640000F064FDF0EE480A27
:1030B000B0EE480A06AA294604F1B00000F05AFD15
:1030C00009B0BDEC028B30BD00000000000080465E
:1030D000002812D090ED101A80ED111AD0ED0F1AC1
:1030E000C0ED101AC0ED060A80ED070A30EEC00AE6
:1030F00080ED0F0A017809B100207047D0ED010A78
:1031000020EE801A80ED091AD0ED0A0A90ED022A0D
:1031100042EE000A30EE610AC0ED0A0A90ED0D2A77
:1031200080ED0E2A90ED0C2A80ED0D2A80ED0C0A20
:10313000D0ED031A61EE801AC0ED0B1A90ED050A6E
:10314000F4EEC00AF1EE10FA09DCB1EE400AF4EE3A
:10315000C00AF1EE10FA02D390ED0A0A01E080ED08
:103160000A0A31EE000A30EE210A80ED080AD0ED9D
:10317000040AB4EEE00AF1EE10FA06DCF1EE600AA1
:10318000B4EEE00AF1EE10FA01D2C0ED080A90EDBB
:10319000080ABDEEC00A10EE100A00B2704710B562
:1031A000040029D02078401E05D0012803D0022831
:1031B00001D0032820D1C0B201F05AFC0088608001
:1031C0002078401EC0B201F053FC8088E080207857
:1031D000401EC0B201F04CFC008960812078401E86
:1031E000C0B201F045FC4088A0802078401EC0B2EB
:1031F00001F03EFC8079207210BD000030B50C4615
:103200002DED028B87B0014620704FF000006080EA
:10321000E0806081A08020720090150001900290F3
:1032200003900490059023D1491EDFED1E0A9FED07
:103230001E0A08D0B3EE011A012907D002290AD0CC
:10324000032915D10CE0B3EE031A0BE08DED001A43
:10325000DFED160A08E08DED001ADFED150A03E038
:10326000B3EE041A8DED001ACDED010A8DED020AC0
:103270009FED108A6A462946F0EE480AB0EE480AE9
:1032800004F10C0000F076FCF0EE480AB0EE480ABB
:1032900003AA294604F1580000F06CFC07B0BDEC0D
:1032A000028B30BD0AD7A33C00000000BC74133C65
:1032B0006F12033C00008046002812D090ED101AD7
:1032C00080ED111AD0ED0F1AC0ED101AC0ED060AEC
:1032D00080ED070A30EEC00A80ED0F0A017809B1CF
:1032E00000207047D0ED010A20EE801A80ED091A07
:1032F000D0ED0A0A90ED022A42EE000A30EE610A91
:10330000C0ED0A0A90ED0D2A80ED0E2A90ED0C2AF0
:1033100080ED0D2A80ED0C0AD0ED031A61EE801AC3
:10332000C0ED0B1A90ED050AF4EEC00AF1EE10FAAA
:1033300009DCB1EE400AF4EEC00AF1EE10FA02D355
:1033400090ED0A0A01E080ED0A0A31EE000A30EE43
:10335000210A80ED080AD0ED040AB4EEE00AF1EE8D
:1033600010FA06DCF1EE600AB4EEE00AF1EE10FAB3
:1033700001D2C0ED080A90ED080ABDEEC00A10EEB9
:10338000100A00B2704710B5040018D02078401E13
:1033900016D0012813D101F075FB0088608001F080
:1033A00071FB8088E08001F06DFB0089608101F095
:1033B00069FB4088A08001F065FB8079207210BD18
:1033C00001F06CFB0088608001F068FB8088E08081
:1033D00001F064FB0089608101F060FB4088A080FF
:1033E00001F05CFBE9E7000070B50C002DED028BED
:1033F0008AB01546014670D021706370002060804D
:10340000E0806081A0802072009001900290039083
:103410009FED348A049005900690079008905DBB5C
:10342000491E02D0012927D112E09FED2F0ADFEDBE
:103430002F0A8DEC020A8DED020A9FED2D0A8DED0B
:10344000030A8DED048A8DED058A9FED2A8A13E02B
:103450009FED290A8DED000A9FED280A8DED010AE6
:103460009FED270A8DED028A8DED030A8DED048A0A
:103470008DED058A9FED238A9FED230ADFED238AD8
:1034800004F10C0004F15806FE2B02D0FF2B09D0EA
:1034900017E0F0EE400A6A46294600F06BFBB0EEFA
:1034A000680A07E0F0EE400A6A46294600F062FB2F
:1034B0009FED170A03AA2946F0EE400A304600F0B5
:1034C00059FBB0EE680A06AAF0EE400A294604F15C
:1034D000A40000F04FFB84ED158A0AB0BDEC028B0E
:1034E00070BD0000000000009A99993DA69BC43A67
:1034F0000080B64300007042CDCCCC3E0AD7233CBE
:1035000000009B430000C8420000AF43000080461B
:103510000050C34610B5040011D094ED101A84ED8C
:10352000111A94ED0F1A84ED101AC4ED060A84EDF9
:10353000070A30EEC00A84ED0F0A207808B1002097
:1035400010BDD4ED010A60EE800ABDEEC00AC4EDE4
:10355000090A10EE100A00B201F0D1F900EE100ACB
:10356000D4ED120AB8EEC00AB4EEE00AF1EE10FA99
:1035700009D294ED0A0AD4ED020A94ED0F1A00EE76
:10358000810A84ED0A0A94ED0D0A84ED0E0A94ED89
:103590000C0A84ED0D0A94ED0F0AD4ED100A30EEFA
:1035A000600A84ED0C0AD4ED030A60EE800AC4EDD3
:1035B0000B0A94ED0A1A94ED050AB4EEC01AF1EE66
:1035C00010FA06DCB1EE400AB4EEC01AF1EE10FAC1
:1035D00001D284ED0A0A94ED090A94ED0A1A30EE3C
:1035E000010A30EE200A84ED080AD4ED040AB4EE94
:1035F000E00AF1EE10FA06DCF1EE600AB4EEE00A41
:10360000F1EE10FA01D2C4ED080A94ED080ABDEEFD
:10361000C00A10EE100A00B210BD002812D090EDC2
:10362000101A80ED111AD0ED0F1AC0ED101AC0ED6E
:10363000060A80ED070A30EEC00A80ED0F0A017815
:1036400009B100207047D0ED010A20EE801A80ED0C
:10365000091AD0ED0A0A90ED022A42EE000A30EE75
:10366000610AC0ED0A0A90ED0D2A80ED0E2A90ED58
:103670000C2A80ED0D2A80ED0C0AD0ED031A61EEC4
:10368000801AC0ED0B1A90ED050AF4EEC00AF1EEB7
:1036900010FA09DCB1EE400AF4EEC00AF1EE10FABD
:1036A00002D390ED0A0A01E080ED0A0A31EE000A29
:1036B00030EE210A80ED080AD0ED040AB4EEE00AEB
:1036C000F1EE10FA06DCF1EE600AB4EEE00AF1EE7B
:1036D00010FA01D2C0ED080A90ED080ABDEEC00A4A
:1036E00010EE100A00B270470F4810B50D49016086
:1036F0000321416000214FF410228160C0E90312D0
:103700004FF400124261017641768176C1760177ED
:103710004177FDF732FE002803D0BDE81040FDF7E9
:1037200043BB10BD00640040B40000200F4810B53A
:103730000D4901600321416000214FF41022816096
:10374000C0E903124FF4001242610176417681769E
:10375000C17601774177FDF710FE002803D0BDE860
:103760001040FDF721BB10BD00680040DC000020C8
:10377000114808B5016841F400110160016801F4C5
:1037800000110091016841F480010160006800228D
:1037900000F48000009011460C20FEF775FA0C2012
:1037A000FEF764FA002211463920FEF76DFABDE8F3
:1037B00008403920FEF75ABA303802401D4808B593
:1037C000016841F002010160016801F0020100910D
:1037D000016841F040010160016801F04001009181
:1037E000016841F001010160016801F001010091EF
:1037F000016841F008010160016801F008010091D1
:10380000016841F004010160016801F004010091C8
:10381000016841F080010160016801F080010091C0
:10382000016841F010010160006800F01000009094
:1038300008BD00003038024010B596B000240F9447
:1038400010941194129413941C2168461494FCF75C
:10385000EFFC202107A8FCF7EBFC3448324901605B
:10386000A721C0E9011440F2CF71C0E903144461FB
:103870008461FEF75DFD08B1FDF796FA4FF48050C4
:103880000F900FA92948FEF7BCFD08B1FDF78CFA8F
:103890002648FEF768FF08B1FDF786FA139413A9CE
:1038A00022481494FEF7FCFC08B1FDF77DFA602075
:1038B000CDE900040294039404940594002269461F
:1038C0001A480694FEF7E7FE08B1FDF76DFA0422E8
:1038D00069461648FEF7DFFE08B1FDF765FA0822D3
:1038E00069461248FEF7D7FE08B1FDF75DFA0C22D3
:1038F00069460E48FEF7CFFE08B1FDF755FA07946A
:10390000089409944FF400500A94CDE90B4007A99C
:1039100006480E94FEF79AFC08B1FDF745FA0348F5
:10392000FEF78EFE16B010BD00000140040100201D
:1039300010B586B0002416480094019402940394B4
:1039400004944FF08041059401605321C0E90114B3
:1039500041F28731C0E903148461FEF7E9FC08B144
:10396000FDF722FA4FF48050009069460848FEF7B0
:1039700048FD08B1FDF718FA049404A90448059419
:10398000FEF78EFC002801D0FDF70EFA06B010BD40
:10399000440100200C4810B50A4901604FF4E131A0
:1039A0004160002181600C22C160C0E90412816184
:1039B000C161FEF7E1FF002803D0BDE81040FDF72C
:1039C000F3B910BD00100140840100200E4810B56D
:1039D0000C4901600D4941604FF480518160002124
:1039E0004FF48062C0E903120C22C0E90521C161D5
:1039F000FEF7C2FF002803D0BDE81040FDF7D4B9A0
:103A000010BD000000480040C4010020A086010055
:103A10000C4810B50A4901604FF4E13141600021C2
:103A200081600C22C160C0E904128161C161FEF7AE
:103A3000A3FF002803D0BDE81040FDF7B5B910BDC5
:103A40000014014004020020FEE77047A0B1D0ED51
:103A5000101AC0ED111A90ED0F1A80ED101AC0ED7A
:103A6000060A80ED070A30EEC00A80ED0F0A0178E1
:103A700029B101293BD078E09FED3D0A7047D0ED98
:103A8000010A60EE801AC0ED091AD0ED0A0A90ED25
:103A9000022A42EE000A30EE410AC0ED0A0A90ED19
:103AA0000D2A80ED0E2A90ED0C2A80ED0D2A80ED76
:103AB0000C0A90ED031A21EE001A80ED0B1A90ED1E
:103AC000050AF4EEC00AF1EE10FA09DCB1EE400A84
:103AD000F4EEC00AF1EE10FA02D390ED0A0A01E00A
:103AE00080ED0A0A31EE800A30EE010A2BE070EE1A
:103AF000410A90ED012A20EE822A80ED092AD0EDBC
:103B0000020A60EE800AC0ED0A0AD0ED0D2A72EEBC
:103B1000200AC0ED0E2AD0ED0C2AC0ED0D2AF0EEE1
:103B2000002A01EE620A30EE210A80ED0C0A90EDC7
:103B3000031A21EE000A80ED0B0A30EE800AD0ED68
:103B4000080A30EE200A80ED080AD0ED040AB4EE2F
:103B5000E00AF1EE10FA06DCF1EE600AB4EEE00ADB
:103B6000F1EE10FA01D2C0ED080A90ED080A704794
:103B70000000000000282AD0002A28D0017092ED11
:103B8000001A80ED011A92ED011A80ED021A92EDF1
:103B9000021A80ED031A80ED040A9FED0D0AC0EDB4
:103BA000050A80ED0E0A80ED0D0A80ED0C0A80ED0D
:103BB000080A80ED0B0A80ED0A0A80ED090A80ED03
:103BC000110A80ED100A80ED0F0A80ED120A70478D
:103BD000000000007047000070B504461048FFF771
:103BE000D2FB0F4D00EE904A6888F8EEE00A00EE36
:103BF000100A05F10C00B8EE400AFFF78BFC00EE4E
:103C0000900AB5F9040000EE100A05F15800BDE86D
:103C10007040B8EEC00AF8EEE00AFFF7FEBC000004
:103C2000180800202DE9F0476D4A2DED048B10880F
:103C3000C0F30A01A2F11600018053789478DB08E2
:103C400043EA4413C3F30A034380D578A30943EA44
:103C50008505137945EA8325C5F30A0585805579DD
:103C60005E0846EAC516C6F30A06C6804FEA951CEA
:103C700080F80AC0C5F30116C672168AC6F30A0692
:103C80000681B146D68886811689C6815689068204
:103C9000167B8674567BC674D28982829FED519BB7
:103CA000580840EAC51040054D4DC00CA0F58050A5
:103CB00082B2EE78A00940EA860040EA83202B8A8F
:103CC0006D784005ED0845EA4414C4F30A05444CF8
:103CD000C00C1234A0F58050C3F30A03DFF80C8146
:103CE000E78880B2A3F58063A5F58065BCF1010F7C
:103CF0001DD026469FED3E8BB6F90860BCF1020F41
:103D000050D0BCF1030F22D0002088F8000000F052
:103D100073F8E0884FF49451884203D840F63C2170
:103D2000884200D2E180BDEC048BBDE8F08701261B
:103D300088F800602280608058424FF6FF7202EAE5
:103D40008000A1F59851A080FC39484215E003217C
:103D500088F80010228060801846FCF7FCFB53ECCA
:103D6000182BFCF717FB41EC180B3046FCF7F3FB64
:103D700053EC182BFCF767FA2FE020812846FCF75C
:103D8000EAFB53EC192BFCF705FB41EC180B38460A
:103D9000FCF7F2FB53EC182BFCF755FAFCF718FC78
:103DA000E080B6E7022388F80030228060804FEA86
:103DB0008900A0F58050A080A1F58060FCF7CBFBC6
:103DC00053EC182BFCF7E6FA41EC180B3046FCF7E5
:103DD000C2FB53EC182BFCF7D7FAFCF7DAFBCCE765
:103DE0001A0300209A9999999999B93FA80000203F
:103DF0007B14AE47E17A843F38B50C480024006854
:103E0000016841680091C16841F01001C16012224F
:103E100007490648FEF7C4FE054840F64D511230EA
:103E2000048044808480C180448138BDC401002066
:103E30001A0300200149002008707047A8000020E4
:103E40007047000002490A68506309688863704738
:103E50000401002002490A68D063096808647047B9
:103E6000040100202DE9F05F07462DED028B0E4680
:103E70005C48FFF7AFF85B48FC30FFF7ABF85A48F7
:103E8000584C4FF000090378584804F1FC05012212
:103E900040F2145C4FF47A78DFED558A05F1640B3B
:103EA0009FED548A544904F1640A012B03D0022B7C
:103EB00011D0032B0BD1C97A01297CD002297BD0E8
:103EC000032904D10EE05046FFF702F93080BDEC23
:103ED000028BBDE8F09FCB7A012B06D0022B35D0A8
:103EE000032BF4D1C0F8009021E002600889A0F50E
:103EF000806000281BDD6046FFF7A4FF40F2A4604D
:103F0000FFF7A8FFB5F91000F0EE680A00EE100AFE
:103F10005846B8EEC00AFFF7DBF83880B4F9100055
:103F2000F0EE680A00EE100AB8EEC00ACBE7404691
:103F3000FFF788FF4046FFF78DFFB5F91000F0EE60
:103F4000480A00EE100AB8EEC00A13E002600889C1
:103F5000A0F5806100291ADD6046FFF773FF404637
:103F6000FFF778FFB5F91000F0EE680A00EE100ACE
:103F7000B8EEC00A5846FFF7ABF83880B4F9100025
:103F8000F0EE480A00EE100AB8EEC00A9BE7B0F562
:103F9000806FCCD040F2A460FFF75CFF4046FFF793
:103FA00051FFB4F91000F0EE680A00EE100A504616
:103FB000B8EEC00A01E010E011E0FFF789F83080A8
:103FC000B5F91000F0EE480A00EE100A5846B8EEB7
:103FD000C00AFFF77DF8388079E70260BCE702602D
:103FE000D8E7000008090020A8000020A000002059
:103FF0000000FAC3000000000403002010B500F028
:104000002BF813494FF4916040F2CF7208804A8038
:10401000091D08804A800A1D40F24C40108040F281
:10402000C9715180121D108051800022094907205A
:10403000FEF7FCFF07490022FC390820FEF7F6FFD7
:104040000348002110300160491E416010BD00008E
:1040500090000020040A002010B50A48FEF7AEF9CF
:1040600000210848FEF79CFB04210648FEF798FB58
:1040700008210448FEF794FBBDE810400C210148DC
:10408000FEF78EBB04010020FDF796BD30B593B05E
:1040900030216846FCF7CCF814210CA8FCF7C8F8CE
:1040A00019480025016841F080510160006800F066
:1040B000805011901548016841F48041016000680A
:1040C000022400F4804011900120039010200490FD
:1040D000009406940820CDE90750A820CDE90904F2
:1040E00004200B906846FDF7EDFE0CA90F2081E837
:1040F00031004FF4A0500F90E002109005210CA861
:10410000FDF7F4FD13B030BD4038024000700040B0
:104110000548016841F47001016003494FF00060F7
:10412000803908607047000088ED00E00148FEF724
:10413000D4B9000044010020F0B50268254C264D9A
:10414000264E274F274B4FF0804CA04209D06045A8
:1041500007D0A84205D0B04203D0B84201D098425F
:1041600004D122F0700E4A6842EA0E02A0421BD02F
:10417000604519D0A84217D0B04215D0B84213D02C
:10418000984211D0184DA8420ED0184DA8420BD01D
:10419000174DA84208D0174DA84205D0164DA84289
:1041A00002D0164DA84203D122F44075CA682A43B2
:1041B0004D6922F080022A4302608A68C2620A685E
:1041C0008262A04201D0984201D1096901630121B4
:1041D0004161F0BD000001400004004000080040C3
:1041E000000C004000040140004001400044014038
:1041F0000048014000180040001C00400020004022
:1042000010B501F01F030121046A99408C43046238
:10421000016A9A401143016210BD10B5846842EAF8
:10422000032224F47F440A432243826010BD826843
:1042300022F070020A4342F00701816070470000DB
:10424000F0B5026A22F001020262036A42688469E0
:10425000124E24F073050C682C4323F002058B6882
:104260002B430D4DA84201D0B04205D123F00807E1
:10427000CB683B4323F00403A84201D0B04205D1F0
:104280004D6922F4407215438A692A434260846171
:10429000496841630362F0BD000001400004014031
:1042A000F0B5026A22F010020262026A4368846971
:1042B0000D6824F4E64444EA05248D6822F02002C7
:1042C00042EA05120F4D104EA84201D0B04206D16D
:1042D000CF6822F0800242EA071222F04002A84290
:1042E00001D0B04207D14D6923F4406343EA85030E
:1042F0008D6943EA85034360846149688163026292
:10430000F0BD00000000014000040140F0B5026A69
:1043100022F480720262026A4368C46922F4007265
:1043200024F073050C68124E2C438D6842EA052276
:104330000E4DA84201D0B04206D1CF6822F40062EF
:1043400042EA072222F48062A84201D0B04207D19B
:104350004D6923F4405343EA05138D6943EA05137D
:104360004360C4614968C1630262F0BD000001405E
:104370000004014030B5026A22F480520262046AED
:104380004268C3690D6823F4E64343EA05238D6858
:1043900024F4005444EA0534084DA84202D0084DE4
:1043A000A84204D14D6922F4804242EA851242605B
:1043B000C36149680164046230BD0000000001402F
:1043C0000004014010B5036A046A24F00104046289
:1043D000846924F0F00444EA021423F00A020A4338
:1043E0008461026210BD10B5036A23F010030362FA
:1043F0008369046A23F4704343EA023224F0A00381
:1044000043EA01118261016210BD10B5806B002189
:10441000C185C184FEF725FA10BD70B5846B206894
:10442000406994F83910C0F3C0100025212904D147
:1044300018B1E584204600F046F82068406994F8F9
:104440003A10C0F38010222904D118B1E585204626
:1044500000F02BF8E06B40F01000E0632046FEF720
:1044600000FA70BD10B50146806B09680968C9057E
:1044700013D40021C1850168CA6822F48072CA6021
:1044800001684A6922F001024A6101684A6922F022
:1044900040024A61202180F83A10FEF7CDFB10BDA2
:1044A00010B5806BFEF7C9FB10BD0168CA6822F425
:1044B0009072CA6001684A6922F001024A612021B3
:1044C00080F83A1070470168CA6822F0C002CA60DA
:1044D000202180F83910704710B590F83A10222941
:1044E00001D0022010BD8168B1F5805F11D0016953
:1044F000002901681FD0496801F07F03816A4A1CC6
:1045000082620B70C18D491E0904090CC18518D047
:104510002BE00269816A002A0268526805D0D2B293
:104520000A80816A491C8162ECE7C2F308020A80B2
:10453000816A891CF7E74A68816A4B1C83620A70AA
:10454000E0E70168CA6822F02002CA600168CA6810
:1045500022F48072CA6001684A6922F001024A614D
:10456000202180F83A10FEF767FB002010BD000004
:104570002DE9F041044600680169E26821F44051E8
:10458000114301612169A068E2690843616911432F
:1045900008432168CA6849F20C639A430243CA601F
:1045A00020684169A26921F4407111434161E069C9
:1045B000192764253226B0F5004F354A3549206861
:1045C0004FF0000806D0884201D0904236D1FDF766
:1045D00037FC35E0884201D0904202D1FDF730FC33
:1045E00001E0FDF71DFC61684A18A0FB070148EBDC
:1045F0000803FBF7E5FD0146B0FBF5F00201B1FB56
:10460000F5F06FF01803584301EB800006EBC00093
:10461000B0FBF5F000F0F80002EB4002B1FBF5F062
:10462000584301EB800006EBC000B0FBF5F000F052
:104630000700216810448860BDE8F081FDF7F0FBB9
:1046400061688B0F8A00A0FB0701FBF7B9FD0146EB
:10465000B0FBF5F06FF01802504301EB800006EB61
:104660000010B0FBF5F000F0F002B1FBF5F002EB4A
:104670000012B1FBF5F06FF01803584301EB800016
:1046800006EB0010B0FBF5F000F00F00D1E70000E2
:10469000001401400010014090F83910212901D088
:1046A000022070478168B1F5805F016A0BD04A1C17
:1046B0000262026809785160C18C491E0904090C24
:1046C000C1840ED017E009880268C1F30801516067
:1046D00001690029016A02D0491C0162ECE7891CCA
:1046E000FBE70168CA6822F08002CA600068C168FE
:1046F00041F04001C1600020704700000148FEF712
:10470000B1B800008401002010B50348FEF7AAF8F4
:10471000BDE81040FEF7BCBAC401002010B5034844
:10472000FEF7A0F8BDE81040FEF78ABA04020020A8
:104730000249B0F902000880704700006C000020B8
:10474000FEE700280CD000210A464318491C89B214
:10475000DA700B29F9D35521817002700B21417059
:104760007047000070B504461048FEF70CFE0F4D70
:1047700000EE904A6888F8EEE00A00EE100A05F1B3
:104780000C00B8EE400AFEF7C5FE00EE900AB5F93F
:10479000040000EE100A05F15800BDE87040B8EEC4
:1047A000C00AF8EEE00AFEF738BF00002807002034
:1047B000FDEEE01AB4209FED3D1A11EE901AF5EED1
:1047C000C00A10B591FBF0F0F1EE10FA4FEAC0719B
:1047D0000DDD69B3B421484301EE900AF8EEE11A09
:1047E00070EEE10ADFED321A70EEA10A0AE0F9B1CB
:1047F000B421484301EE900AF8EEE11A70EEE10AA6
:1048000070EE810AF1EE401AF5EEC00AF1EE10FAF0
:1048100017DBB5EEC00AF1EE10FA25DA30EEC12A48
:10482000B4EEC02AF1EE10FA17D930EE010A19E001
:10483000B421484301EE900AF8EEE11A70EEE10A65
:10484000E0E7B5EEC00AF1EE10FA0DD330EE812AA2
:10485000B4EEC02AF1EE10FA02DBB0EE610A03E01A
:1048600030EE410AF0EE420A9FED121ADFED121A05
:10487000124820EE812A20EE011AC2EE210A81EEB2
:10488000210AFEF747FE00EE900A0C480C38F8EEBD
:10489000E00AB0F90400BDE8104000EE100A074835
:1048A000B8EEC00A4C30FEF7B8BE0000000034433A
:1048B000000034C300F8FF450000B4433407002073
:1048C0000907090E002804DB00F1E02080F800143D
:1048D000704700F00F0000F1E02080F8141D7047D1
:1048E00002E008C8121F08C1002AFAD170477047B9
:1048F000002001E001C1121F002AFBD170470028EF
:1049000000DC404200B27047DFED3F0A10B560EEB8
:10491000200AF5EEC00AF1EE10FA01D2F1EE600ABB
:104920003B4CBDEEE01AB0EE002AF0EE084AB5EEC0
:10493000C00AB8EEC11A70EEC10A9FED341A20EE1B
:10494000811AFCEEC10A10EE902AC2F3080200EEB2
:10495000902A02F1800304EB8202F8EE600AC3F3AE
:10496000080304EB830371EE600A92ED001AD3EDA5
:10497000002AD3ED011AB1EE413A92ED011A71EE1F
:10498000E23AB1EE414A9FED231A73EE041A03EEA8
:10499000024A61EE811A43EEC21A63EEA43A44EE73
:1049A000413A40EEA13A60EEA31A43EE011A40EEFE
:1049B000A12AC1ED002AD3ED003A93ED013AD2EDE0
:1049C000001AD2ED012A33EE834A03EE823A72EEE8
:1049D000E12A24EE014A02EEC24A62EEA42A43EE24
:1049E000412A40EE842A20EEA22A03EE812A40EEDC
:1049F000821AF1EE10FAC0ED001A03D2B1EE610A8C
:104A000080ED000A10BD0000610B363B0000004441
:104A1000244B0008DB0F493C00B58BB0002001217E
:104A2000CDE9060108910090019002900390059055
:104A3000049069460C48FCF7A7FA0B48FCF7DCFD2C
:104A400002210948FCF72AFA0E20099005906946D0
:104A50000648FCF799FA0548FCF7CEFD0221034809
:104A6000FCF71CFA0BB000BDB4000020DC000020F5
:104A700000F00300024900EB800001EB40007047AA
:104A800038030020004870476A030020024900EB09
:104A9000800001EB40007047380300200048704759
:104AA00060030020FDF790F8FFF7F0FAFEF786FEAE
:104AB000FEF75EFEFEF7C0FEFEF73AFFFEF714FEBD
:104AC000FEF734FEFEF766FFFEF780FFFEF7A0FF5D
:104AD000FEF75CF9FFF7A0FF0648FDF781FCFFF742
:104AE0008BF9FBF749FFFCF77FF9FFF787FAFFF730
:104AF000A1F9FEE74401002000061016000610167A
:104B0000000000000000000001020304060708097D
:104B100000000000010203040000C03F000000008C
:104B20000000000000000000920E493CB10AC93CA0
:104B30002BC3163D2EFB483D752B7B3D04A9963DAE
:104B400080B6AF3D36BDC83D2FBCE13D73B2FA3DE6
:104B500087CF093E8340163EB5AB223EA2102F3EC2
:104B6000CF6E3B3EC2C5473E0115543E135C603ECE
:104B70007F9A6C3ECCCF783EC07D823E938E883E3D
:104B8000229A8E3E32A0943E86A09A3EE59AA03E9E
:104B9000128FA63ED47CAC3EEF63B23E2A44B83EB0
:104BA000491DBE3E15EFC33E53B9C93ECA7BCF3E39
:104BB0004136D53E80E8DA3E4F92E03E7533E63E20
:104BC000BBCBEB3EEA5AF13ECBE0F63E275DFC3E26
:104BD000E4E7003F3D9C033F824B063F9BF5083FC7
:104BE0006B9A0B3FDA390E3FCDD3103F2A68133F43
:104BF000D9F6153FC07F183FC6021B3FD17F1D3F2E
:104C0000CBF61F3F9967223F25D2243F5636273FD8
:104C10001594293F4AEB2B3FDE3B2E3FBB85303FAF
:104C2000C9C8323FF304353F233A373F4268393F22
:104C30003B8F3B3FF9AE3D3F67C73F3F70D8413F99
:104C400001E2433F03E4453F65DE473F12D1493F60
:104C5000F8BB4B3F029F4D3F207A4F3F3D4D513FA8
:104C60004918533F31DB543FE595563F5348583F71
:104C70006AF2593F1A945B3F532D5D3F05BE5E3F7C
:104C80002146603F97C5613F5A3C633F59AA643F44
:104C9000880F663FD86B673F3CBF683FA7096A3FF4
:104CA0000C4B6B3F5E836C3F93B26D3F9ED86E3F63
:104CB00073F56F3F0809713F5213723F4714733FFA
:104CC000DD0B743F0BFA743FC6DE753F07BA763FC3
:104CD000C58B773FF853783F9812793F9DC7793F4E
:104CE00002737A3FBE147B3FCDAC7B3F283B7C3FB9
:104CF000C9BF7C3FAC3A7D3FCCAB7D3F23137E3FA9
:104D0000B0707E3F6DC47E3F580E7F3F6D4E7F3F3B
:104D1000AB847F3F0FB17F3F97D37F3F43EC7F3F13
:104D200011FB7F3F0000803F11FB7F3F43EC7F3F43
:104D300097D37F3F0FB17F3FAB847F3F6D4E7F3F67
:104D4000580E7F3F6DC47E3FB0707E3F23137E3F81
:104D5000CCAB7D3FAC3A7D3FC9BF7C3F283B7C3F1D
:104D6000CDAC7B3FBE147B3F02737A3F9DC7793F3A
:104D70009812793FF853783FC58B773F07BA763F53
:104D8000C6DE753F0BFA743FDD0B743F4714733F6B
:104D90005213723F0809713F73F56F3F9ED86E3F03
:104DA00093B26D3F5E836C3F0C4B6B3FA7096A3F2C
:104DB0003CBF683FD86B673F880F663F59AA643F86
:104DC0005A3C633F97C5613F2146603F05BE5E3F49
:104DD000532D5D3F1A945B3F6AF2593F5348583F49
:104DE000E595563F31DB543F4918533F3D4D513F08
:104DF000207A4F3F029F4D3FF8BB4B3F12D1493FB6
:104E000065DE473F03E4453F01E2433F70D8413F41
:104E100067C73F3FF9AE3D3F3B8F3B3F4268393F5D
:104E2000233A373FF304353FC9C8323FBB85303F93
:104E3000DE3B2E3F4AEB2B3F1594293F5636273F4A
:104E400025D2243F9967223FCBF61F3FD17F1D3FDC
:104E5000C6021B3FC07F183FD9F6153F2A68133F93
:104E6000CDD3103FDA390E3F6B9A0B3F9BF5083FCD
:104E7000824B063F3D9C033FE4E7003F275DFC3E3D
:104E8000CBE0F63EEA5AF13EBBCBEB3E7533E63E55
:104E90004F92E03E80E8DA3E4136D53ECA7BCF3EB7
:104EA00053B9C93E15EFC33E491DBE3E2A44B83E24
:104EB000EF63B23ED47CAC3E128FA63EE59AA03E94
:104EC00086A09A3E32A0943E229A8E3E938E883ED1
:104ED000C07D823ECCCF783E7F9A6C3E135C603EB4
:104EE0000115543EC2C5473ECF6E3B3EA2102F3E39
:104EF000B5AB223E8340163E87CF093E73B2FA3DE2
:104F00002FBCE13D36BDC83D80B6AF3D04A9963DFE
:104F1000752B7B3D2EFB483D2BC3163DB10AC93C8A
:104F2000920E493C00000000920E49BCB10AC9BC77
:104F30002BC316BD2EFB48BD752B7BBD04A996BDAA
:104F400080B6AFBD36BDC8BD2FBCE1BD73B2FABDE2
:104F500087CF09BE834016BEB5AB22BEA2102FBEBE
:104F6000CF6E3BBEC2C547BE011554BE135C60BECA
:104F70007F9A6CBECCCF78BEC07D82BE938E88BE39
:104F8000229A8EBE32A094BE86A09ABEE59AA0BE9A
:104F9000128FA6BED47CACBEEF63B2BE2A44B8BEAC
:104FA000491DBEBE15EFC3BE53B9C9BECA7BCFBE35
:104FB0004136D5BE80E8DABE4F92E0BE7533E6BE1C
:104FC000BBCBEBBEEA5AF1BECBE0F6BE275DFCBE22
:104FD000E4E700BF3D9C03BF824B06BF9BF508BFC3
:104FE0006B9A0BBFDA390EBFCDD310BF2A6813BF3F
:104FF000D9F615BFC07F18BFC6021BBFD17F1DBF2A
:10500000CBF61FBF996722BF25D224BF563627BFD4
:10501000159429BF4AEB2BBFDE3B2EBFBB8530BFAB
:10502000C9C832BFF30435BF233A37BF426839BF1E
:105030003B8F3BBFF9AE3DBF67C73FBF70D841BF95
:1050400001E243BF03E445BF65DE47BF12D149BF5C
:10505000F8BB4BBF029F4DBF207A4FBF3D4D51BFA4
:10506000491853BF31DB54BFE59556BF534858BF6D
:105070006AF259BF1A945BBF532D5DBF05BE5EBF78
:10508000214660BF97C561BF5A3C63BF59AA64BF40
:10509000880F66BFD86B67BF3CBF68BFA7096ABFF0
:1050A0000C4B6BBF5E836CBF93B26DBF9ED86EBF5F
:1050B00073F56FBF080971BF521372BF471473BFF6
:1050C000DD0B74BF0BFA74BFC6DE75BF07BA76BFBF
:1050D000C58B77BFF85378BF981279BF9DC779BF4A
:1050E00002737ABFBE147BBFCDAC7BBF283B7CBFB5
:1050F000C9BF7CBFAC3A7DBFCCAB7DBF23137EBFA5
:10510000B0707EBF6DC47EBF580E7FBF6D4E7FBF37
:10511000AB847FBF0FB17FBF97D37FBF43EC7FBF0F
:1051200011FB7FBF000080BF11FB7FBF43EC7FBF3F
:1051300097D37FBF0FB17FBFAB847FBF6D4E7FBF63
:10514000580E7FBF6DC47EBFB0707EBF23137EBF7D
:10515000CCAB7DBFAC3A7DBFC9BF7CBF283B7CBF19
:10516000CDAC7BBFBE147BBF02737ABF9DC779BF36
:10517000981279BFF85378BFC58B77BF07BA76BF4F
:10518000C6DE75BF0BFA74BFDD0B74BF471473BF67
:10519000521372BF080971BF73F56FBF9ED86EBFFF
:1051A00093B26DBF5E836CBF0C4B6BBFA7096ABF28
:1051B0003CBF68BFD86B67BF880F66BF59AA64BF82
:1051C0005A3C63BF97C561BF214660BF05BE5EBF45
:1051D000532D5DBF1A945BBF6AF259BF534858BF45
:1051E000E59556BF31DB54BF491853BF3D4D51BF04
:1051F000207A4FBF029F4DBFF8BB4BBF12D149BFB2
:1052000065DE47BF03E445BF01E243BF70D841BF3D
:1052100067C73FBFF9AE3DBF3B8F3BBF426839BF59
:10522000233A37BFF30435BFC9C832BFBB8530BF8F
:10523000DE3B2EBF4AEB2BBF159429BF563627BF46
:1052400025D224BF996722BFCBF61FBFD17F1DBFD8
:10525000C6021BBFC07F18BFD9F615BF2A6813BF8F
:10526000CDD310BFDA390EBF6B9A0BBF9BF508BFC9
:10527000824B06BF3D9C03BFE4E700BF275DFCBE39
:10528000CBE0F6BEEA5AF1BEBBCBEBBE7533E6BE51
:105290004F92E0BE80E8DABE4136D5BECA7BCFBEB3
:1052A00053B9C9BE15EFC3BE491DBEBE2A44B8BE20
:1052B000EF63B2BED47CACBE128FA6BEE59AA0BE90
:1052C00086A09ABE32A094BE229A8EBE938E88BECD
:1052D000C07D82BECCCF78BE7F9A6CBE135C60BEB0
:1052E000011554BEC2C547BECF6E3BBEA2102FBE35
:1052F000B5AB22BE834016BE87CF09BE73B2FABDDE
:105300002FBCE1BD36BDC8BD80B6AFBD04A996BDFA
:10531000752B7BBD2EFB48BD2BC316BDB10AC9BC86
:10532000920E49BC00000080485300080000002095
:10533000B4000000E0480008FC530008B40000205E
:105340004C0E0000F0480008CDCC8C3F000000005F
:105350000100000010000000000000000024F40024
:10536000000000000000000000000000000000003D
:10537000000000000000000000000000000000002D
:10538000000000000000000000000000000000001D
:10539000000000000000000000000000000000000D
:1053A00000000000000000000000000000000000FD
:1053B00000000000000000000000000000000000ED
:1053C00000000000000000000000000000000000DD
:1053D00000000000000000000000000000000000CD
:1053E00000000000000000000000000000000000BD
:0C53F000000000000000000000000000B1
:040000050800018965
:00000001FF
