:020000040800F2
:10000000D80F00209D010008CB400008BD2F00083C
:10001000C9400008110C0008B95200080000000097
:100020000000000000000000000000002D49000852
:10003000AD0F00080000000055420008854B000885
:10004000B7010008B7010008B7010008B7010008B0
:10005000B7010008B7010008B7010008B7010008A0
:10006000B7010008B7010008B7010008B701000890
:10007000E50E0008B7010008B7010008B701000845
:10008000B7010008B7010008B7010008B701000870
:10009000150C0008B7010008B7010008B7010008F7
:1000A000B7010008B7010008B7010008B701000850
:1000B000294C0008B7010008B7010008B701000883
:1000C000B7010008B7010008B7010008B701000830
:1000D000B70100085D520008B7010008715200081E
:1000E000B7010008B7010008B7010008B701000810
:1000F000B7010008B7010008B7010008B701000800
:10010000B7010008B7010008B7010008B7010008EF
:10011000B7010008B7010008B7010008B7010008DF
:10012000B7010008F10E0008FD0E0008B701000835
:10013000B7010008B7010008B7010008B7010008BF
:10014000210C0008B7010008B7010008B70100083A
:10015000B7010008B7010008B70100088552000880
:10016000B7010008B7010008B7010008B70100088F
:10017000B7010008B7010008B7010008000000003F
:10018000B7010008B7010008DFF80CD000F04EFB03
:1001900000480047B15E0008D80F0020064880479D
:1001A00006480047FEE7FEE7FEE7FEE7FEE7FEE75C
:1001B000FEE7FEE7FEE7FEE70D4C000889010008B8
:1001C0002DE9F05F0546002092469B46884606468C
:1001D000814640241BE0284641464746224600F01F
:1001E0003EFA53465A46C01A914110D3114618465A
:1001F000224600F025FA2D1A67EB01084F462246E9
:100200000120002100F01CFA17EB00094E41201ECE
:10021000A4F10104DFDC484631462A464346BDE8E6
:10022000F09FD2B201E000F8012B491EFBD27047CB
:100230000022F6E710B513460A4604461946FFF7B2
:10024000F0FF204610BD2DE9FE4F804681EA0300F5
:10025000C00F0C46009021F0004123F00045B8EBA0
:100260000200A94105D24046214690461C460B4655
:10027000024623F00040104347D0270DC7F30A0081
:10028000C3F30A510290401A019040286BDAC3F37D
:10029000130040F4801B0098924620B10023D2EB5B
:1002A000030A63EB0B0B01985946C0F1400250461C
:1002B00000F0C6F906460D4650465946019A00F030
:1002C000DEF910EB08006141002487EA115284EA4C
:1002D000E7731A4340D0009A62B3019A012A4FEAA9
:1002E000075215DC001B61EB02014FF0004202EAED
:1002F0000752CDE90042001C41F5801132462B46E1
:1003000000F015FA03B0BDE8F08F40462146F9E74A
:10031000001B61EB0201001C41F5801300185B41DA
:100320002018A2F5001747EB030140EAD570B61973
:100330006D4111E06D084FEA360645EAC0754FEA97
:100340000752001B61EB0201001C41F580114908B6
:100350004FEA30000019514132462B4603B0BDE848
:10036000F04F00F0D5B90098012240000023D0EBF7
:10037000020263EBE073009821464FEAE074B8EBA9
:10038000000061EB0401E9E783F000435BE781F0E3
:10039000004158E72DE9FE4F81EA030404F00044D0
:1003A00021F0004100944FF0000B23F0004350EA8D
:1003B00001045ED052EA03045BD0C3F30A54C1F3D4
:1003C0000A552C44A4F2F3340194A0FB0254C1F367
:1003D000130141F48011C3F3130343F4801301FBB1
:1003E000024400FB034E840A970A44EA815447EA18
:1003F0008357A4FB076802958D0A05FB07854FEA22
:10040000932C04FB0C542705029D4FEA065847EA3B
:100410001637B5EB08056EEB070C870E920E47EA10
:10042000811742EA8312A7FB0201B6EB0B0164EBD2
:1004300000042B0D43EA0C335E1844EB1C50DA46E3
:100440005146E7FB0201C5F313044FEA0B3343EABD
:1004500014534FEA0432019C43EA0603A4F10C044E
:100460000294009CCDE900B400F061F903B0BDE84E
:10047000F08F00200146F9E72DE9F04D81EA0304F1
:1004800004F0004B21F0004514464FF0000A23F021
:10049000004150EA050220D054EA01021DD0C5F304
:1004A0000A570246C5F31303C1F31300C1F30A56FA
:1004B00040F4801543F48013A7EB0608101BD646C2
:1004C00008F2FD3873EB050002D308F1010801E0E2
:1004D00092185B41B8F1000F03DA00200146BDE835
:1004E000F08D00204FF48011064684460EE0171B65
:1004F00073EB050705D3121B63EB050306434CEAB8
:10050000010C49084FEA300092185B4150EA01079C
:10051000EDD152EA030012D082EA040083EA050119
:10052000084305D0101BAB4106D20122002306E090
:1005300000224FF0004302E06FF0010253101AEB6B
:1005400006004CEB085110EB0A0041EB0B01BDE833
:10055000F04D00F0DDB80EB5C10F80EAE070084440
:10056000CA07002140F233438DE80E000A460B46CD
:1005700000F0DDF803B000BD70B5C1F30A5201F020
:1005800000450024C1F3130140F2FF3341F4801110
:100590009A4201DA002070BD40F233439A42A2F23F
:1005A000334203DC524200F05AF800E090402C4302
:1005B000F1D0404270BD00F0004230F000400AD05F
:1005C000C10D01F56071C0F3160042EA0151C20885
:1005D00040071143704700200146704701F0004377
:1005E00030B421F0004150EA010206D00A0DA2F514
:1005F0006072C1F31301002A02DC30BC0020704796
:10060000440F44EAC104C100E01830BC00EBC25002
:1006100000F047B830B50B460146002020220124E7
:1006200009E021FA02F59D4205D303FA02F5491BC0
:1006300004FA02F52844151EA2F10102F1DC30BDD6
:10064000202A04DB203A00FA02F100207047914092
:10065000C2F1200320FA03F3194390407047202A87
:1006600004DB203A21FA02F00021704721FA02F35C
:10067000D040C2F120029140084319467047202A19
:1006800006DBCB17203A41FA02F043EAE07306E0BA
:1006900041FA02F3D040C2F12002914008431946CA
:1006A00070470029A8BF7047401C490008BF20F0D0
:1006B0000100704710B4B0FA80FC00FA0CF050EA68
:1006C000010404BF10BC704749B1CCF1200421FAE9
:1006D00004F411FA0CF118BF012121430843A3EBE4
:1006E0000C01CB1D4FEA00614FEA102042BF0020F1
:1006F00010BC704700EBC35010440029A4BF10BCCD
:100700007047401C490008BF20F0010010BC704732
:1007100010B5141E73F1000408DA401C41F1000109
:1007200092185B411A4301D120F0010010BD2DE960
:10073000F04D92469B4611B1B1FA81F202E0B0FA57
:1007400080F220329046FFF77BFF04460F4640EAD6
:100750000A0041EA0B0153465A46084313D011469A
:1007600053EA010019D0C8F140025046FFF777FF65
:1007700005460E46504659464246FFF761FF08437C
:1007800005D0012004E020463946BDE8F08D002068
:10079000054346EAE0762C4337430A986305E40AAA
:1007A000A0EB08000022FD0A44EA47540A3002D5B3
:1007B00000200146E9E7010510196941DDE9084516
:1007C00000196941BDE8F04DA2E7C1F30A52C1F337
:1007D000130140F2FF3341F480119A4202DA002003
:1007E0000146704740F233439A42A2F2334202DCA0
:1007F0005242FFF734BFFFF723BF000030B5041E9D
:1008000071F1000404DB4FF00044404264EB01014D
:10081000141E73F1000405DB1C464FF000435242E6
:1008200063EB0403994208BF904230BD064C074D6C
:1008300006E0E06840F0010394E8070098471034B0
:10084000AC42F6D3FFF7A4FC4467000864670008D5
:100850002DE9F04F2DED068B83B000F0D1FBDFF8D2
:1008600014B39FEDC59AC54DC54E05F164010191C4
:1008700006F164010027C34C4FF0010800910128E4
:1008800025D0E068401CE060142819DB94ED040AD0
:10089000F2EE040A30EE200A84ED040A9FEDBA0A53
:1008A0002068D4ED050A00287DD030EEC00AB74993
:1008B00010EE100A84ED050A884200DC2760E7602C
:1008C000B34803F06BF8A06800286DD001E1B04890
:1008D00003F064F8DFF8BC92DFF8BCA26068D8B916
:1008E000AB49AE4800F094FBA94804F0D5FCAC48F5
:1008F00004F0D2FCC4F80480A068012800D1A760ED
:1009000099ED000A84ED040ABAF9000000EE100A1D
:10091000B8EEC00A84ED050A9D49A04800F078FBB6
:100920009B4804F0B9FC9E4804F0B6FCBAF90000FC
:10093000DFF8708200EE100AD9F80070D8F80000D5
:10094000F8EEC09AFFF737FE9FED971B53EC112B83
:10095000FFF720FD41EC180B3846FFF72CFE53EC57
:10096000182BFFF770FCFFF739FE0AEE100A84ED32
:1009700004AAD8F80400FFF71EFE9FED8D1B53EC70
:10098000112BFFF707FD41EC180B19EE900AFFF74A
:1009900012FE53EC182BFFF756FCFFF71FFE6061A9
:1009A000584506DB01E07BE086E09FED830A84ED9D
:1009B000050A76496069884203DC9FED800A84ED70
:1009C000050A7648F0EE4A0A90ED060A04F086FC25
:1009D00094ED050ABDEEC00A10EE100A00B203F055
:1009E0003BFC81466E4800F059FB044698F809002C
:1009F000032836D04FF47A77384603F099FF38460B
:100A000003F09EFFB5F91000F0EE490A00EE100A5F
:100A10000198B8EEC00A02F0F3FD0546B6F91000E1
:100A2000F0EE490A00EE100AB8EEC00A009802F093
:100A3000E7FD034609EB040001B22A46002000F05E
:100A400019F953484088A0F6FC70404200EE100AA5
:100A50005B480122B8EEC00AB0F90210B0F90000FC
:100A600081E040F2A467384603F06AFF384603F09D
:100A70005FFFB5F9100000EE100AB8EEC00A9FED56
:100A8000518A0198F0EE480A02F0BAFD0546B6F91F
:100A90001000F0EE480A00EE100AB8EEC00AC5E7F2
:100AA00030EE800A10EE100A84ED050A5845FFF674
:100AB00006AFC4F8008002E73549384800F0A8FACC
:100AC000334804F0E9FBC4F808806068012800D1CD
:100AD00067602069FFF76FFD41EC100B3AA053EC03
:100AE000102B04F07DFC2D48D4ED040A90ED060A8D
:100AF00004F0F4FB94ED050A8046BDEEC00A10EE4A
:100B0000100A00B203F0A8FB0746254800F0C6FA19
:100B10000446B5F91000F0EE490A00EE100A0198FB
:100B2000B8EEC00A02F06CFD0546B6F91000F0EE12
:100B3000490A00EE100A0098B8EEC00A02F060FD03
:100B40000346381901B22A46404600F093F810488F
:100B500001224088A0F6FC70404200EE100A0021FD
:100B60000846B8EEC00A03B0BDEC068BBDE8F04FF6
:100B700000F0A4B800A0D24500000000BC0900208D
:100B8000B80A0020D4000020000048420000A94517
:100B9000DC07002080000020700000206C04002092
:100BA000CC080020CC0B0020B81E85EB51B8AE3F1E
:100BB000666666666666E63F00A0D2450000A94507
:100BC000B20000200000FAC325660A000C489FED21
:100BD0000B0A002180ED010A80ED000A0172022259
:100BE000427208489FED080A41608160C16080ED53
:100BF000040A9FED060A80ED050A70470000000018
:100C0000CC0B0020D400002000C07F450000BE4572
:100C1000FEE70000014800F0E4BB0000F000002007
:100C2000014800F0DEBB00001801002038B50E4C72
:100C30004FF4007525600025A560E5600825256155
:100C40000A4C050A25706070080AA070E170100A4D
:100C500020716271180AA071E3716B462246024945
:100C6000034800F05FFA38BD540400202100002042
:100C7000F000002038B50E4C40F2FF15256000252D
:100C8000A560E560082525610A4C050A257060709D
:100C9000080AA070E170100A20716271180AA07130
:100CA000E3716B4622460249034800F03BFA38BD27
:100CB0003C0400201900002018010020DFED210A6B
:100CC0009FED211A70B560EE200A204C0E460546B5
:100CD00080EE810A04F11001081D84ED030A05F07D
:100CE0000DF800EE905A94ED050A94ED041AF8EE12
:100CF000E00A40F6B83260EE201A00EE906AF8EE94
:100D0000E00A40EE811AFDEEE10A10EE900A01B20F
:100D1000704200EE900A61800123F8EEE00A60EE76
:100D2000200A00EE105AB8EEC00A40EE010ABDEEED
:100D3000E00A10EE100A00B22080BDE8704000F01A
:100D40005FB800000000B44300F8FF4578070020BA
:100D500070B5064614460D46074803F0B7F9BDEED8
:100D6000C00A2346294610EE100A02B23046BDE8FA
:100D7000704000F045B80000900700200EB500223A
:100D80001949012002F002FD17490022A431022076
:100D900002F0FCFC00221549032002F0F7FC134985
:100DA0000022A431042002F0F1FC114800219FED43
:100DB000110A01804180818080ED040A80ED050ADE
:100DC00080ED020A80ED030A0B4A9FED0C0A07CA68
:100DD0008DE807000648F0EE400A6A460021183008
:100DE00003F008FA0EBD0000E804002030060020E1
:100DF0007807002000000000345F000800409C4598
:100E00002DE9F04107461C4615460E46334802F0D0
:100E10008FFC3248A43002F08BFC314802F088FC91
:100E20002F48A43002F084FCB919BA1B05FB04104A
:100E300005FB042305FB142205FB14110CB2274902
:100E400000B200EE900AB1F90410244800EE101A26
:100E50001EB217B2B8EEC00AF8EEE00A0C3002F08B
:100E600005FD05461D48A430B0F9040000EE100A47
:100E7000784200EE900A1A48B8EEC00AF8EEE00A8E
:100E8000983802F0F3FC07461548B0F9040000EE6C
:100E9000100A604200EE900A1148B8EEC00AF8EE5F
:100EA000E00A0C3002F0E2FC04460D4800EE906AC5
:100EB000A430B0F90400F8EEE00A00EE100A084889
:100EC000B8EEC00AB03002F0D1FC034622463946E3
:100ED0002846BDE8F041FFF7A9BE0000E804002065
:100EE00030060020014800F045BD0000E00200206F
:100EF000014800F03FBD000040030020014800F021
:100F000039BD00008002002001681823CAB2103ADF
:100F1000B2FBF3F2054B6FF30901032A9B5CC36537
:100F200000D9091D8165084670470000145F00085C
:100F300010B5014600208B698A6A4FF0C07453B126
:100F4000B3F5005F15D072B1012A0CD0022A0AD085
:100F5000032A09D104E01AB1012A06D0022A03D1DA
:100F6000C96AC90100D5012010BDC96AA142FAD0E1
:100F700010BD002AF7D0012AF2D0022AF3D0032AAA
:100F8000F3D010BD30B50468256825F480252560B0
:100F9000046863608368402B036803D0996000682D
:100FA000C26030BD9A600068C16030BD704700000B
:100FB0000448807E18B1012803D103F01FBB03F061
:100FC000DDBB7047A0030020094800219FED090AFE
:100FD00001604160084880ED000A80ED010A80ED63
:100FE000020A80ED030A80ED040A80ED050A7047CD
:100FF000C400002000000000B40B00207047000077
:101000000248007A012800D000207047CC0B002055
:10101000D0ED060A0C484FF4B472C0ED050A4988B9
:10102000A1F6FC71418011FB02F141F6FF7291FBC8
:10103000F2F100EE101AB8EEC00A80ED090A30EEA7
:10104000C00A80ED060A70476C00002010B5FF232F
:1010500000220F49012002F0D1FC0D49FF2300229C
:10106000F031022002F0CAFC0A484FF47A619FED89
:101070000A0A816080ED030A80ED040A80ED050A0A
:101080000021C1610162418080ED090A818010BDAB
:10109000DC0700206C000020000000001CB5408828
:1010A0004FF4B471A0F5BE50484341F6FF7190FB78
:1010B000F1F000EE100ADFED100A6946CDED000AEE
:1010C000B8EEC00ACDED010A01A804F017FE0B48E6
:1010D0009DED000A80ED030ADDED010AC0ED040A72
:1010E000D0ED020AF8EEE00A20EE800ABDEEC00A5A
:1010F00010EE100A00B21CBD000000006C000020C1
:1011000090F82020012A07D0022A05D0416A41F434
:101110008021416201207047006842690A434261B0
:1011200000207047F0B590F820500468A468012DA5
:1011300005D0022D03D0416A41F4802153E014F020
:10114000406F01D1E5004BD5C4F30164022C03D9F3
:10115000416A41F4000146E00125A5401D608D680B
:101160004FF4C0739DB1CE6835434E6845EAC6055D
:10117000066803EB0417F5514FF4C275076805EBD9
:1011800004150E697E51097D012905D009E00E88FC
:10119000CD6845EA4655EBE701684E5946F480763E
:1011A0004E511179D2F805504FF4C67641EA052523
:1011B000016806EB04168D511178D2F801204FF426
:1011C000C47541EA0221026805EB0415515100681B
:1011D00003EB0411425842F0010242500020F0BDDE
:1011E000416A41F4001141620120F0BD10B590F850
:1011F0002020012A07D0022A05D0416A41F480212B
:101200004162012010BD3B48D0F8002242F00102AB
:10121000C0F80022D0F8002222F47C52C0F800224C
:10122000D0F800224B6A42EA0322C0F800220A7D6D
:1012300002F01F0301229A40D0F81C329343C0F8F9
:101240001C32CB69B3B9D0F80C329343C0F80C32DE
:101250008C894B6864F31F434C6900EBC404C4F8E9
:1012600040320C890B6864F31F434C6900EBC404E3
:10127000C4F84432CB69012B16D1D0F80C32134399
:10128000C0F80C320C884B6864F31F434C6900EBC8
:10129000C404C4F840320C89CB6864F31F434C6922
:1012A00000EBC404C4F844328B69002BD0F804323C
:1012B0000ED01343C0F804320B69002BD0F814325F
:1012C00008D01343C0F81432096A012904D008E099
:1012D0009343EFE79343F5E7D0F81C121143C0F8AE
:1012E0001C12D0F8001221F00101C0F800120020F9
:1012F00010BD000000640040704730B590F82040F9
:10130000012C05D0022C03D0416A41F480215DE01C
:101310000468002955D02469A40754D04FF4D87428
:10132000056804EB01142D5915F004059560056856
:101330002D594ED0ED08556005682C5904F0020473
:10134000D4604FF4DA74056804EB01142D5905F0EC
:101350000F05156105682D59C5F3072595610568C9
:101360002C59240C54614FF4DC72046802EB011216
:10137000A4581C700468A458240A5C700468A4581B
:10138000240C9C700468A258120EDA704FF4DE72BE
:10139000046802EB0112A4581C710468A458240AC2
:1013A0005C710468A458240C9C710468A258120E45
:1013B000DA71006881B1016941F02001016100200A
:1013C00030BDE468A8E7416A41F4001141620120A0
:1013D00030BD6D0D1560AFE7C16841F02001C160FF
:1013E000EDE72DE9F05F0546006800244669D0F876
:1013F00004908768D0F80CB0D0F810A0D0F818800E
:10140000F10748D0F90714D001218160B80703D54E
:10141000284600F050FA0CE0780702D54FF400643B
:1014200007E0380702D54FF4805402E0284600F068
:1014300041FAF80516D529684FF480708860B80520
:1014400003D5284600F039FA0CE0780502D544F4BB
:10145000005407E0380502D544F4804402E02846F1
:1014600000F02AFAF80316D529684FF48030886016
:10147000B80303D5284600F022FA0CE0780302D521
:1014800044F4004407E0380302D544F4803402E019
:10149000284600F013FA300707D55FEACB6004D581
:1014A0002968102044F40074C86070074FF00807E2
:1014B00007D55FEA0B7004D52868C760284600F09E
:1014C00099F9B00706D52868C068800702D0284679
:1014D00000F092F9700607D55FEACA6004D5296862
:1014E000102044F480640861B00607D55FEA0A70F2
:1014F00004D528680761284600F0ACF9F00606D547
:1015000028680069800702D0284600F0A4F9B003DB
:1015100008D55FEAC96005D52968102048602846CB
:1015200000F09AF9F00307D55FEA097004D528683E
:101530004760284600F0C4F9300446D55FEA497098
:1015400040D5F00504D55FEAC87001D044F001042D
:10155000B00504D55FEA887001D544F00204700537
:1015600004D55FEA487001D544F00404300529D55C
:1015700018F0700F26D008F07000402815D006DC57
:10158000102809D020280AD0302816D10AE0502887
:101590000ED0602811D10EE044F008040DE044F0B4
:1015A00010040AE044F0200407E044F0400404E0A2
:1015B00044F0800401E044F480742868816921F0DB
:1015C00070018161296804204860002C05D0686A98
:1015D000204368622846FFF78FFEBDE8F09F70B594
:1015E000040003D094F8200010B104E0012070BD85
:1015F000204600F081F82068016821F002010160B6
:1016000000F006FC0546052604E000F001FC401B46
:101610000A2811D8206840688007F6D4206801683D
:1016200041F00101016000F0F3FB05460BE000F022
:10163000EFFB401B0A2806D9606A40F40030606264
:1016400084F82060D2E720684068C007EFD0207E91
:101650000128206801683DD021F080010160607E92
:1016600001282068016838D021F040010160A07E87
:1016700001282068016833D021F020010160E07E5C
:101680000128206801682ED041F010010160207F00
:1016900001282068016829D021F008010160607FDD
:1016A00001282068016824D021F004010160D4E9F8
:1016B00002010843D4E90412114308436168491E3A
:1016C00008432168C86100206062012084F820007E
:1016D000002070BD41F08001C0E741F04001C5E746
:1016E00041F02001CAE721F01001CFE741F00801E5
:1016F000D4E741F00401D9E7F0B587B004461421DE
:101700006846FEF795FD364B3648DFF8D0E019689D
:10171000D4F800C0334A03250226092710300024DC
:10172000491CF44522D11960012907D1016841F013
:1017300000710160006800F000700590106840F0D2
:10174000080010601068CDE9005600F00800CDE9EF
:10175000047069462448CDE9024500F07DFA002274
:101760001146142000F0C2FB142032E0DFF87CE0C8
:10177000F44530D1D0F800C04CF0806CC0F800C007
:10178000D0F800C001290CF0806CCDF814C01960AD
:1017900007D1016841F000710160006800F000703D
:1017A0000590106840F002001060106802AB00F075
:1017B000020005906020CDE9000683E8B00069468C
:1017C0000B4800F049FA00221146402000F08EFB41
:1017D000402000F07DFB07B0F0BD00000064004039
:1017E0000400002030380240000C02400068004035
:1017F000000402407047000000B58BB001AB03AAA3
:101800000021FFF77AFD0398A0F2012007281AD8DB
:101810000E49C0B200EB800208700D4901EB420096
:1018200031F812300381BDF804305BBA21F8123070
:10183000BDF8061049BA4180BDF8081049BA818048
:101840009DF80A1081710BB000BD00001800002047
:10185000EC030020704770477047000070B50446E5
:1018600090F82000012804D0606A40F400206062F3
:1018700018E0022084F820002068016821F00101AE
:10188000016000F0C5FA05460EE000BF00F0C0FAA6
:10189000401B0A2808D9606A40F4003060620520C5
:1018A00084F82000012070BD20684068C007EDD199
:1018B000606270BD704770477047704770477047EF
:1018C00070472DE9F0410446876D00F0A1FA064605
:1018D00094F835000025022806D08020606584F841
:1018E00034500120BDE8F0812068016821F0160124
:1018F00001602068416921F080014161206C08B9D4
:10190000A06C20B12068016821F008010160206806
:10191000016821F0010101600BE000F079FA801B01
:10192000052806D92020606504F8345F0320607024
:10193000D8E720680068C007EFD194F85C103F201A
:101940008840B86004F8345F012060700020C9E767
:1019500090F83510022903D080214165012070479D
:10196000052180F835100068016821F0010101604F
:10197000002070472DE9F84304464FF00009CDF8E8
:10198000009063484FF41651A56D0068B0FBF1F765
:101990002E6894F85C10082000FA01F131420FD053
:1019A00021680A6852070BD50A6822F004020A600F
:1019B00094F85C108840A860606D40F0010060659C
:1019C00094F85C104FF0010808FA01F0304208D09A
:1019D00021684969090604D5A860606D40F00200DD
:1019E000606594F85C1004208840304208D021687B
:1019F0000968890704D5A860606D40F0040060653F
:101A000094F85C1010208840304218D02168096892
:101A1000090714D5A86020680168490304D5006847
:101A2000000308D5A16C07E00168C90503D401686B
:101A300021F008010160216C09B12046884794F823
:101A40005C1020208840304231D021680968C906E6
:101A50002DD5A86094F8350005282068016806D0C7
:101A6000490347D5006800031DD4616C1CE021F0D8
:101A7000160101602068416921F080014161206CFC
:101A800008B9A06C20B12068016821F0080101604C
:101A900094F85C103F208840A86084F8349084F863
:101AA0003580216D1FE0E16B09B120468847606DEC
:101AB00000282BD0606DC00714D0052084F83500B5
:101AC0002068016821F0010101600098401C00902D
:101AD000B84203D820680068C007F6D184F8349073
:101AE00084F83580E16C002910D001B02046BDE8B3
:101AF000F04308470168C905D5D4016821F01001F9
:101B0000016084F8349084F83580CCE7BDE8F88330
:101B1000140000202DE9F041044600F079F9064652
:101B20005CB1002584F83450022084F83500206828
:101B3000016821F0010101600DE00120BDE8F081A4
:101B400000F066F9801B052805D920206065032078
:101B500084F83500F2E720680068C007F0D12268F9
:101B6000116820480140D4E901031843D4E9033641
:101B70003343184363691843A3691843E36918435F
:101B8000236A18430843616A042903D1D4E90B137B
:101B900019430843106020684069666A20F0070115
:101BA00030460E43012704280CD1A06A0643E06AA0
:101BB00040B12046FFF7BCF920B14020606584F8B1
:101BC0003570BAE7206846612046FFF79DF994F822
:101BD0005C203F2191408160656584F8357000206C
:101BE000ACE700003F8010F02DE9F0410446866D1F
:101BF00090F83400002501280DD0012084F834002D
:101C000094F835700020012F07D084F834000225A5
:101C10002846BDE8F0810220FBE7022784F83570F2
:101C200060652046FFF7AEF994F85C103F208840CD
:101C3000B0602068016841F016010160206C20B19D
:101C40002068016841F0080101602068016841F0E6
:101C500001010160DCE700002DE9F84F00224FF0A0
:101C6000010803254FF00F0E0B6808FA02F4234019
:101C7000A3426ED14E68012E05D0022E03D0112E44
:101C800001D0122E12D186684FEA420C05FA0CF7E9
:101C9000BE43CF6807FA0CF7374387604668A64310
:101CA0000C79C4F30014944034434460C668570070
:101CB00005FA07FC8C6826EA0C06BC403443C46075
:101CC0004C68022C01D0122C13D1D40800EB8404F0
:101CD000A346D4F8209054074FEAD46A0EFA0AF6C5
:101CE00029EA06090E6906FA0AF646EA0906CBF859
:101CF000206006680C7926EA0C0604F00304BC4058
:101D0000344304604C68E40065D5364C266846F4DC
:101D100080462660246822F0030604F48044009480
:101D2000314C3444A446D4F808489607370F0EFACD
:101D300007F6B4432D4EB04201D1002624E02C4ECC
:101D4000B04201D101261FE02A4EB04202D1022644
:101D50001AE040E0284EB04201D1032614E0274E9D
:101D6000B04201D104260FE0254EB04201D1052634
:101D70000AE0244EB04201D1062605E0224EB042D0
:101D800001D1072600E00826BE402643CCF80868AB
:101D90001E4E34684F689C43FF0300D51C433460DB
:101DA0001A4C241D26684F689E43BF0300D51E436E
:101DB0002660164E083634684F689C43FF0200D5F3
:101DC0001C433460114E0C3634684F689C43BF028C
:101DD00000D51C433460521C102AFFF445AFBDE807
:101DE000F88F0000443802400030014000000240FB
:101DF0000004024000080240000C024000100240B3
:101E00000014024000180240001C0240003C014047
:101E1000014880687047000008000020024881687F
:101E20000278114481607047080000200B4810B50B
:101E3000016841F400710160016841F48061016052
:101E4000016841F480710160032000F06FF8002008
:101E500000F006F800F024F8002010BD003C02401D
:101E600070B50D4D04464FF47A712878B1FBF0F04F
:101E70000A490968B1FBF0F000F004FB48B9102CE6
:101E800007D200222146501E00F030F800206C607E
:101E900070BD012070BD000008000020140000206B
:101EA0000A4808B5016841F480410160006800F407
:101EB000804000900548001F016841F0805101609A
:101EC000006800F08050009008BD000044380240D7
:101ED000002809DB00F01F02012191404009800029
:101EE00000F1E020C0F8001170470000F0B40E4B84
:101EF0001B680C46C3F30223C3F10705042D00D968
:101F00000425191D072901D2002300E0DB1E01264C
:101F100006FA05F1491E214099409E40761E164062
:101F20003143F0BC03F06CBA0CED00E0064900F060
:101F3000070208684FF6FF03184040EA0220034AF0
:101F400010430860704700000CED00E00000FA0547
:101F50002DE9F0470E46050065D0DFF81481D8F86A
:101F60000000F7B200F00F00B04207D288F800700E
:101F7000D8F8000000F00F00B04254D128683D4C62
:101F8000810712D5400703D5206840F4E050206057
:101F90002878000703D5206840F46040206020685E
:101FA000A96820F0F000084320602878C0072DD0F1
:101FB000304968680839012812D0022813D0032854
:101FC00011D00968890700292DDA216821F0030161
:101FD00001432160FFF71CFF814641F2883A0EE081
:101FE00009688903EFE709688901ECE7FFF710FF4B
:101FF000A0EB0901514502D90320BDE8F087206814
:10200000696800F00C00B0EB810FEFD1D8F8001038
:10201000404601F00F01B14207D90770006800F097
:102020000F00B04201D00120E7E72878400705D52E
:102030002068E96820F4E050084320602878000711
:1020400006D52068296920F4604040EAC10020607C
:1020500000F038F82168084AC1F30311515CC84008
:102060000649086006480068FFF7FAFE0020C4E74A
:10207000003C0240083802401C5F000814000020A9
:102080000C0000200448054900680968044AC1F3AF
:102090008221515CC840704714000020083802407B
:1020A0002C5F00080448054900680968044AC1F328
:1020B0004231515CC840704714000020083802408B
:1020C0002C5F0008154810B5006810F00C02144889
:1020D00013D01449042A0FD0082A0ED10F4C241F04
:1020E0002268236802F03F025B0207D52068C0F334
:1020F0008810A0FB010106E0084610BD2168C1F36D
:102100008811A1FB00010023FEF75AF82168C1F3F2
:102110000141491C4900B0FBF1F010BD08380240F4
:102120000024F40040787D012DE9F84F04006ED0C2
:102130002078DFF83C93C007A9F104054AD009F1E3
:1021400004000168C1F38101012908D00068C0F3CF
:10215000810002280AD1D9F80000400206D528687B
:10216000800337D560680028E1D033E06068B0F5BF
:10217000803F10D0B0F5A02F286810D020F4803018
:102180002860286820F4802028606068A8B1FFF7E4
:102190003FFE06460DE0286840F48030F4E740F446
:1021A00080202860F7E700BFFFF732FE801B64281D
:1021B00073D828688003F7D50CE0FFF729FE0646A0
:1021C00005E000BFFFF724FE801B6428F0D82868D4
:1021D0008003F7D42078DFF89C8280074FF0000A54
:1021E0003ED5A348001D016811F00C0F08D000680F
:1021F000C0F3810002280BD1D9F80000400207D4B7
:102200002868800716D5E068012800D112E02BE18C
:10221000E068B8B10120C8F80000FFF7F9FD0646F4
:1022200005E000BFFFF7F4FD801B0228C0D8286836
:102230008007F7D52868216920F0F80040EAC1003E
:1022400028600DE0C8F800A0FFF7E2FD064604E0B4
:10225000FFF7DEFD801B02281FD828688007F7D40F
:102260002078000722D5824E83486169703671B1AB
:1022700001210160FFF7CCFD074604E0FFF7C8FD30
:10228000C01B022809D830688007F7D50EE0C0F8D7
:1022900000A0FFF7BDFD074605E082E0FFF7B8FDAF
:1022A000C01B02287DD830688007F7D4207840070B
:1022B00068D5DFF8BCB100270BF13C0BDBF8000060
:1022C000C0000BD4DBF8001041F08051CBF80010B7
:1022D000DBF80000012700F080500090674E306866
:1022E000C00510D4306840F480703060FFF790FD76
:1022F000009005E0FFF78CFD0099401A022850D8A5
:102300003068C005F6D55A4EA0686C3601280FD04B
:102310000528306810D020F001003060306820F0CF
:1023200004003060A068B8B1FFF772FD00900FE0C4
:10233000306840F00100F4E740F004003060F7E757
:10234000FFF766FD0099411A41F28830814266D854
:1023500030688007F4D50EE0FFF75AFD009007E0E3
:10236000FFF756FD0099411A41F28830814256D854
:1023700030688007F4D42FB1DBF8001021F08051D1
:10238000CBF80010A069C8B33949091D0968C1F329
:10239000810102294AD00228504607D0C8F86000BF
:1023A00000E03CE0FFF734FD04463BE04746C8F858
:1023B0006000FFF72DFD064605E000BFFFF728FD92
:1023C000801B02282BD828688001F7D4D4E90701A4
:1023D0000843A16A2A4A490802EB0141626A41EABC
:1023E0008211084394F82C1040EA0161C9F80010EA
:1023F00001203866FFF70CFD044606E036E000BF1A
:10240000FFF706FD001B022809D828688001F7D5D0
:102410002CE000BFFFF7FCFC001B022802D90320C0
:10242000BDE8F88F28688001F4D41FE00128F7D0B8
:10243000D9F80000E26900F48001914214D1226AC7
:1024400000F03F0191420FD147F6C071626A01402E
:10245000914209D1A26A00F44031914204D1E16A6B
:1024600000F07060884201D00120D9E70020D7E752
:102470000438024000004742800E4742007000408E
:102480000000FFFF10B5401EB0F1807F01D3012096
:1024900010BD4FF0E02460610F21601702F0B0FF23
:1024A0000020A06107202061002010BD7047704708
:1024B00010B590F83C20012A22D0012280F83C205F
:1024C000CA688C6822F4407222434C6822F480620D
:1024D00022430C6822F4006222430C6922F48052E9
:1024E00022434C6922F400522243C969002322F49A
:1024F00080420A4301684A6480F83C30002010BDE5
:10250000022010BD70B590F83C20012A32D0012481
:1025100080F83C40022280F83D2003685A689D689C
:1025200022F070060A6832435A60134B02689A42DE
:1025300014D0B2F1804F11D0104B9A420ED0104BF4
:102540009A420BD00F4B9A4208D00F4B9A4205D0BB
:102550000E4B9A4202D00E4B9A4204D1496825F0A4
:1025600080031943916080F83D40002180F83C10C1
:10257000084670BD022070BD00000140000400400C
:1025800000080040000C00400004014000400140F1
:102590000018004010B5040003D094F83D0010B1BD
:1025A00007E0012010BD002084F83C00204600F028
:1025B0000DF8022084F83D00211D206802F03AFB4E
:1025C000012084F83D00002010BD000008B500681F
:1025D0001149884209D11148016841F001010160A7
:1025E000006800F00100009008BDB0F1804FFBD101
:1025F0000A48001F016841F00101016000680022E3
:1026000000F00100009011461C20FFF76FFCBDE8B0
:1026100008401C20FFF75CBC000001404438024029
:10262000022180F83D1001688A6802F00702062A3C
:1026300003D00A6842F001020A60012180F83D10CF
:10264000002070470168CA6842F00102CA60006851
:10265000816801F00701062903D0016841F00101FA
:1026600001600020704770B5044690F83C000128D6
:1026700017D0012584F83C50022084F83D002068E2
:10268000826822F0770222F47F4282600868502834
:1026900030D00DDC20284DD005DC98B310283BD17C
:1026A00048E0022070BD302844D0402834D139E0C1
:1026B000602828D0702806D0B0F5805F2CD0B0F507
:1026C000005F29D10AE0CB68D1E90121206802F03E
:1026D00022FB2068816841F0770109E0CB68D1E9ED
:1026E0000121206802F017FB2068816841F48041D5
:1026F000816011E0CA684968206802F0E1FB50215E
:10270000206807E016E0CA684968206802F0E9FB23
:102710006021206802F009FB84F83D50002084F815
:102720003C0070BDCA684968206802F0C9FB4021BE
:102730002068EFE7226801461046EBE7704770B566
:102740000446006801694FF00005C943890715D4A4
:10275000C168C943890711D4E91E016101202077AE
:10276000206880698007204602D0FFF7E7FF04E079
:1027700000F0C2F8204600F044F92577206801698E
:10278000C943490717D4C168C943490713D46FF037
:1027900004010161022020772068806910F4407FE5
:1027A000204602D0FFF7CAFF04E000F0A5F820465B
:1027B00000F027F9257720680169C943090716D475
:1027C000C168C943090712D46FF0080101610420F0
:1027D00020772068C0698007204602D0FFF7AEFF4F
:1027E00004E000F089F8204600F00BF92577206816
:1027F0000169C943C90617D4C168C943C90613D4BE
:102800006FF010010161082020772068C06910F482
:10281000407F204602D0FFF791FF04E000F06CF803
:10282000204600F0EEF8257720680169C943C90702
:1028300008D1C168C943C90704D1891E0161204676
:1028400000F002F920680169C943090609D4C1688A
:10285000C943090605D46FF0800101612046FFF7E6
:1028600025FE20680169C943490609D4C168C943E6
:10287000490605D46FF040010161204600F0F2F8EE
:1028800020680169C94389060BD4C168C943890618
:1028900007D46FF0200101612046BDE87040FFF7CA
:1028A00006BE70BD10B586B0044614216846FDF71B
:1028B000BFFC0E492068884216D10D4800210268ED
:1028C00042F010020260006800F0100005904FF422
:1028D000D44000900220CDE901010120CDE9031090
:1028E00069460448FFF7B8F906B010BD0000014082
:1028F0003038024000100240704770B5044690F82E
:102900003C000D4601280DD0012684F83C600220D1
:1029100084F83D0042B1042A18D0082A2AD00C2A93
:102920004DD139E0022070BD206802F007FA20681E
:10293000816941F0080181612068816921F0040109
:102940008161206881692A69114311E0206802F0E1
:1029500025FA2068816941F40061816120688169FC
:1029600021F480618161206881692A6941EA02213C
:10297000816124E0206802F047FA2068C16941F0D3
:102980000801C1612068C16921F00401C1612068AA
:10299000C1692A69114311E0206802F069FA2068D0
:1029A000C16941F40061C1612068C16921F480619D
:1029B000C1612068C1692A6941EA0221C16184F8C4
:1029C0003D60002084F83C0070BD10B5040003D0C9
:1029D00094F83D0010B107E0012010BD002084F8FC
:1029E0003C00204600F00CF8022084F83D00211D38
:1029F000206802F01FF9012084F83D00002010BD7E
:102A00007047704710B504460068012202F076F95D
:102A10000B492068884202D00A49884203D1416CA0
:102A200041F4004141642068816801F007010629F2
:102A300003D0016841F001010160002010BD0000D9
:102A400000000140000401400068B0F1804F05D152
:102A500003480168491C0160FEF7AABA70470000EC
:102A600000000020704710B504460068416994F8E2
:102A70003920C1F3C011212A0BD151B1416921F094
:102A800080014161206B08B1FEF71BFF204602F078
:102A900098FA2068416994F83A20C1F38011222AFB
:102AA0000BD151B1416921F040014161606B08B126
:102AB000FEF707FF204602F076FA002010BD7047AF
:102AC00070B5026804461068D168536910F00F0FA2
:102AD00052D003F0010501F490762E435FD0C20777
:102AE00005D0CA0503D5E26B42F00102E26342075A
:102AF00005D5DA0703D0E26B42F00202E2638207F7
:102B000005D5DA0703D0E26B42F00402E263020764
:102B100007D501F020022A4303D0E26B42F00802FD
:102B2000E263E26B002A33D0800604D5880602D522
:102B3000204602F04FFA20684069E16BC0F3801034
:102B4000090700D428B3204602F02DFA2068416915
:102B500049061AD5416921F040014161606BA0B17D
:102B60001B490165606BFEF7F3FE002810D0606B17
:102B7000016DBDE870400847830610D58B060ED561
:102B80002046BDE8704002F025BA2046FFF797FFC7
:102B900070BD2046FFF793FF0020E06370BD030681
:102BA00006D50B0604D52046BDE8704002F0F2BA07
:102BB0004006F3D54806F1D5D168204621F0400102
:102BC000D160202184F8391000F0F7F970BD0000C1
:102BD000074F000870B5040004D094F839000025B0
:102BE00010B106E0012070BD84F83850204600F096
:102BF00023F8242084F839002068C16821F40051AA
:102C0000C160204602F032FA2068016921F4904147
:102C100001612068416921F02A0141612068C16891
:102C200041F40051C160E563202084F8390084F844
:102C30003A00002070BD00002DE9F04F87B0054636
:102C400014216846FDF7F4FA7C48DFF8EC8114386B
:102C50002B680024DFF8E4C1022103220615871542
:102C60004FF007094FF0006B434555D1DCF80030B9
:102C700043F01003CCF80030DCF8003003F0100310
:102C80000593036843F002030360036803F0020343
:102C90000593036843F0010303600068884600F071
:102CA000010005908020CDE90008CDE9024292465E
:102CB0006946CDF810906248FEF7CEFF7010CDE95E
:102CC0000008CDE9024A6946CDF810905D48FEF74C
:102CD000C3FFDFF878815C494046C8F80010C0E9BE
:102CE00001B4C0E90346C8F81440B101C8F818405F
:102CF000C8E90771C8F82440FEF70CFF08B1FEF7D9
:102D00007DF9C5F83480002211462520C8F83850D6
:102D1000FFF7ECF8252044E0DFF834814FF4403A27
:102D2000434543D1454B1B1FD3F800C04CF4802CC6
:102D3000C3F800C01B6803F480230593036843F0C5
:102D400004030360006800F0040005904FF4406045
:102D50008DE81300CDE9032969463E48FEF77CFF64
:102D6000DFF8E8803C4908F16008404602C0E0E82E
:102D700002B4E0E8034640F8044C80E89004404682
:102D8000C8F82440FEF7C6FE08B1FEF737F9C5F8CB
:102D90003480002211462720C8F83850FFF7A6F8E3
:102DA0002720FFF795F807B0BDE8F08FDFF8AC807B
:102DB0004345F8D1DCF8003043F02003CCF8003074
:102DC000DCF8003003F020030593036843F0400370
:102DD0000360006800F0400005904FF484408DE8E7
:102DE00013000820CDE9032069461D48FEF734FF93
:102DF000DFF85880144908F1C0084046183902C06D
:102E00008905E0E80214E0E8034640F8044C80E855
:102E100090044046C8F82440FEF77CFE08B1FEF757
:102E2000EDF8C5F83480002211464720C8F8385024
:102E3000FFF75CF84720B4E7001001404438024037
:102E40000004024000000240406402408002002072
:102E50000048004000080240286002400014014081
:102E600000180240F8B5044690F83A0020283CD1FA
:102E7000C1B3BAB394F83800012836D0012084F8E1
:102E80003800A162A2850025E563222084F83A007B
:102E9000636B1748D863636B16481864636B1648F6
:102EA000D864606B134605650846666B2168024668
:102EB0003046091DFEF798FE2068016841680091C0
:102EC00084F83850C16841F48071C160206841695C
:102ED00041F0010141612068416941F040014161D7
:102EE0000020F8BDFFE70120FBE70220F9E7000022
:102EF000614F00089D4F0008174F0008704770474A
:102F00002DE9F843044690F839001F4616460D4651
:102F1000202850D1B5B1AEB194F8380001284AD07C
:102F2000012084F838004FF00008C4F83C802120CC
:102F300084F83900FEF76CFFA6848146E68484F8A5
:102F4000388026E00120BDE8F883E08C401EE08454
:102F5000A0684B46B0F5805F4FF000024FF0800153
:102F60002046009703D002F046F9E8B90DE002F0E0
:102F700042F9C8B928882168C0F308004860206970
:102F800008B16D1C05E0AD1C03E0216815F8010BCC
:102F90004860E08C0028D8D14B46002240212046D2
:102FA000009702F028F908B10320CCE7202084F82C
:102FB00039000020C7E70220C5E77047FEE70000A0
:102FC000104808B500680168C943C90619D40168EA
:102FD000406800900B48FFF746FD0B4800684068CA
:102FE000D0F10B0005D1094800F0CCF8074800F0FB
:102FF0005BF806490B22BDE80840C91C0148FFF7F1
:1030000031BF08BD40020020400300206C040020B6
:103010000F4808B500680168C943C90617D401689C
:10302000406800900A48FFF71EFD0A4800684068A3
:10303000D0F1120008D001F0B7F9BDE80840122223
:1030400005490348FFF70EBF01F070F9F5E708BD29
:1030500000020020E0020020BC0300200F4808B559
:1030600000680168C943C90617D401684068009028
:103070000A48FFF7F8FC0A4800684068D0F10500EC
:1030800008D001F08FFABDE8084005220549034841
:10309000FFF7E8BE01F066FAF5E708BDC0010020C1
:1030A00080020020AC000020F0B5002826D0234983
:1030B00001224C681CB3D0ED060A91ED000A204DA8
:1030C000022630EEC00A1F4F10EE103AAB421CD859
:1030D000022C1AD010EE103ABB4220DC032C1ED07A
:1030E0004A60C0ED090A00BF90ED040A80ED070AAE
:1030F00090ED050A80ED080AC1ED000AF0BD90EDE3
:10310000060A81ED000A4A60F0BD10EE103ABB429B
:1031100001DD4A60E8E79FED0C0A4E6009E010EE21
:10312000102AAA4201D94E60DEE703229FED070A6A
:103130004A6030EE800A80ED090AD5E72C000020B5
:103140000000AAC30000AA430000B4430000B4C3B7
:1031500008B50A4802F0B1F80948006801684168FA
:103160000091C16841F01001C16004490B22BDE823
:103170000840C91C0248FFF775BE00006C0400201F
:10318000400200202DE9F04104002DED048B74D0A5
:1031900060780B2871D3774E00259FED778A00BFAA
:1031A00005EB450000EBC5002044A278C1789142B0
:1031B00063D101795139092922D2DFE801F00522D2
:1031C000405FD1768CD1B90050F8051FB1604068DE
:1031D000F060684900200831F3EE000A31F9102050
:1031E00000EE102A04EB8002401CB8EEC00AC0B208
:1031F000032820EE080A20EE200A82ED0A0AEDD309
:10320000AEE050F8051F31614068706159490020F7
:103210001031DFED5A0A00BF31F9102000EE102AFC
:1032200004EB8002401CB8EEC00AC0B2032820EEB6
:10323000080A20EE200A82ED0D0AEDD390E050F846
:10324000051FB1614068F0614A49002018319FEDC7
:103250004C0A00BF31F9102000EE902A04EB8002E6
:10326000401CF8EEE00AC0B2032860EE880A60EE67
:10327000800AC2ED040AEDD372E076E050F8051F33
:103280003162406870623B490020203131F91020E2
:1032900000EE102A04EB8002401CB8EEC00AC0B257
:1032A000032882ED100AF1D35AE050F8051FB162ED
:1032B00000EE101A4068F062B8EEC00ADFED310A85
:1032C00084ED130A00EE100AB8EEC00A80EE201A50
:1032D00084ED141A44E050F8051F71634068B06330
:1032E0002948244A91FBF0F130329FED289B176862
:1032F000DFED288A97FBF0F100FB1170FDF72BF949
:1033000053EC192BFDF7B8F800EE107A41EC190BCD
:10331000F8EEC00A80EEA80A10EE100AFDF74BF98D
:1033200053EC192BFCF78FFFFDF758F9206617E0D7
:1033300050F8051FB1634068F0630E490020383132
:1033400031F9102000EE102A04EB8002401CB8EE88
:10335000C00AC0B2042820EE080A82ED1B0AEFD38F
:103360006D1CEDB20B2DFFF41BAFBDEC048BBDE863
:10337000F08100002C000020000000380000FA441A
:10338000000034430000C84280969800000000000E
:10339000006AF8408096184B2DE9F0414E4C022807
:1033A0002DED028B01D003287ED14C4D4FF000064D
:1033B000E88A00F0010100F00202D14240F6C41197
:1033C000C1F1000201D1268014E0434BC707B3F9D5
:1033D000003006D00F331BB223808B420ADD2180E0
:1033E00008E0870706D50F3B1BB223805B42934260
:1033F00000DA228000F0040300F00807FB4201D14C
:10340000668014E0344B4607B3F9023006D50F3B13
:1034100018B2608088420ADD618008E0000706D5A6
:103420000F3318B260804042904200DA6280B5F9F2
:103430000E00FDF790F89FED2A1B53EC112BFCF7C3
:10344000A9FF41EC180BB4F90600FDF784F853EC22
:10345000182BFCF799FFFDF78FF8E080B5F9100005
:10346000FDF779F89FED201B53EC112BFCF792FF31
:1034700041EC180BB4F90800FDF76DF853EC182B6C
:10348000FCF782FFFDF778F82081287D40F2A466E2
:103490004FF4AF6701281AD04FEA070001F048FA4D
:1034A000687D012815D000E002E0384601F048FAB6
:1034B000B4F9080041F65421884203DC4FF4A951C5
:1034C000884200DA2181BDEC028BBDE8F0813046F4
:1034D000E4E73046EAE70000DC030020A003002018
:1034E0007B14AE47E17A943F0AD7A3703D0AB73FF9
:1034F00010B5040026D02078C11F01D0012921D1A8
:10350000401EC0B202F0C8FC0088E0812078401E56
:10351000C0B202F0C1FC808860822078401EC0B238
:1035200002F0BAFC0089E0822078401EC0B202F0AE
:10353000B3FC408820822078401EC0B202F0ACFC70
:103540008079207510BD000030B50C462DED028B42
:1035500089B0014620704FF000006060A060A0813B
:10356000E0816082E08220822075039005900190C6
:1035700002909FED210A150004900090069007909C
:10358000A1F10701089002D0012D08D010E0F2EE61
:10359000040A09B101290BD1CDED000A04E009B1FB
:1035A000012905D18DED000A8DED010A8DED020A8C
:1035B0009FED128A03AA2946F0EE480AB0EE480AA7
:1035C00004F1180000F016FEF0EE480AB0EE480ACA
:1035D0006A46294604F1640000F00CFEF0EE480A49
:1035E000B0EE480A06AA294604F1B00000F002FE37
:1035F00009B0BDEC028B30BD000000000000804629
:10360000002814D0D0ED101AC0ED111A90ED0F1A49
:1036100080ED101AC0ED060A80ED070A30EEC00AF0
:1036200080ED0F0A017819B101294BD000207047B5
:10363000D0ED010A60EE801AC0ED091AD0ED0A0A39
:1036400090ED022A42EE000A30EE410AC0ED0A0A6D
:1036500090ED0D2A80ED0E2A90ED0C2A80ED0D2ABA
:1036600080ED0C0A90ED031A21EE001A80ED0B1A82
:1036700090ED050AF4EEC00AF1EE10FA09DCB1EEA5
:10368000400AF4EEC00AF1EE10FA02D390ED0A0AF5
:1036900001E080ED0A0A31EE800A30EE010A3DE0D9
:1036A000F1EE600AB4EEE00AF1EE10FA02D200BFC9
:1036B000C0ED080A90ED080ABDEEC00A10EE100A2F
:1036C00000B2704770EE410A90ED012A60EE820A66
:1036D000C0ED090A90ED022A22EE002A80ED0A2AA6
:1036E000D0ED0D2A70EE820AC0ED0E2AD0ED0C2A24
:1036F000C0ED0D2AF0EE002A01EE620A30EE210A3A
:1037000080ED0C0A90ED031A21EE000A80ED0B0A01
:1037100030EE800AD0ED080A30EE200A80ED080A6B
:10372000D0ED040AB4EEE00AF1EE10FAC0DCB7E71F
:1037300010B5040029D02078401E05D0012803D000
:10374000022801D0032820D1C0B202F097FB0088E4
:1037500060802078401EC0B202F090FB8088E0803C
:103760002078401EC0B202F089FB00896081207879
:10377000401EC0B202F082FB4088A0802078401E2C
:10378000C0B202F07BFB8079207210BD30B50C46D0
:103790002DED028B87B008704FF000016180E18051
:1037A0006181A18021720091DFED2B0A9FED2B0A30
:1037B00015000191029103910491B2EE031AF3EE08
:1037C000041AA0F10100059102D0012D13D028E0C8
:1037D00030B1012804D0022805D0032821D107E008
:1037E0008DED001A19E0CDED001ADFED1D0A14E091
:1037F000B2EE041AF4E70028F2D0B2EE0E1A012855
:1038000004D0022807D003280BD1E9E78DED001A78
:10381000DFED140A01E0CDED001ACDED010A8DEDCA
:10382000020A9FED118A6A462946F0EE480AB0EE78
:10383000480A04F10C0000F0DDFCF0EE480AB0EE9E
:10384000480A03AA294604F1580000F0D3FC07B047
:10385000BDEC028B30BD0000CDCCCC3D00000000A3
:10386000AE47E13DCDCC4C3E00008046002814D050
:10387000D0ED101AC0ED111A90ED0F1A80ED101A4C
:10388000C0ED060A80ED070A30EEC00A80ED0F0A8F
:10389000017819B101294BD000207047D0ED010A01
:1038A00060EE801AC0ED091AD0ED0A0A90ED022AE6
:1038B00042EE000A30EE410AC0ED0A0A90ED0D2AF0
:1038C00080ED0E2A90ED0C2A80ED0D2A80ED0C0A79
:1038D00090ED031A21EE001A80ED0B1A90ED050A07
:1038E000F4EEC00AF1EE10FA09DCB1EE400AF4EE93
:1038F000C00AF1EE10FA02D390ED0A0A01E080ED61
:103900000A0A31EE800A30EE010A3DE0F1EE600A6B
:10391000B4EEE00AF1EE10FA02D200BFC0ED080AE0
:1039200090ED080ABDEEC00A10EE100A00B2704712
:1039300070EE410A90ED012A60EE820AC0ED090A9C
:1039400090ED022A22EE002A80ED0A2AD0ED0D2AFF
:1039500070EE820AC0ED0E2AD0ED0C2AC0ED0D2AC1
:10396000F0EE002A01EE620A30EE210A80ED0C0A28
:1039700090ED031A21EE000A80ED0B0A30EE800A6A
:10398000D0ED080A30EE200A80ED080AD0ED040AD6
:10399000B4EEE00AF1EE10FAC0DCB7E710B50400AF
:1039A00018D02078401E16D0012813D102F070FAEA
:1039B0000088608002F06CFA8088E08002F068FA8B
:1039C0000089608102F064FA4088A08002F060FA09
:1039D0008079207210BD02F067FA0088608002F0E2
:1039E00063FA8088E08002F05FFA0089608102F06B
:1039F0005BFA4088A08002F057FAE9E7F0B50C00C6
:103A00002DED028B89B0154601466ED02170637092
:103A100000206080E0806081A08020720090019092
:103A2000029003909FED338A9FED330A0490059036
:103A30000690079008903DBBDFED300A491E02D08A
:103A4000012921D10CE09FED2E1A8DED001A8DED8C
:103A5000018AB7EE081A8DED021A8DED030A0DE00A
:103A60009FED281A8DED001A9FED271A8DED011A92
:103A70009FED261A8DED028A8DED031A8DED048AD5
:103A80008DED058AB0EE608ADFED218A04F10C0726
:103A900004F15806FE2B02D0FF2B0AD019E0F0EEFD
:103AA000400A6A462946384600F0A4FBB0EE680A90
:103AB00008E0F0EE400A6A462946384600F09AFBD4
:103AC0009FED140A03AA2946F0EE400A304600F0A2
:103AD00091FBB0EE680A06AAF0EE400A294604F10E
:103AE000A40000F087FB84ED158A09B0BDEC028BC1
:103AF000F0BD0000000000000000AF430000704275
:103B0000CDCCCC3D9A99193F89D2DE3A000087434B
:103B1000000080460050C34610B5040011D094ED5B
:103B2000101A84ED111A94ED0F1A84ED101AC4EDD9
:103B3000060A84ED070A30EEC00A84ED0F0A2078E9
:103B400008B1002010BDD4ED010A60EE800ABDEE80
:103B5000C00AC4ED090A10EE100A00B202F0C9F85A
:103B600000EE100AD4ED120AB8EEC00AB4EEE00A74
:103B7000F1EE10FA94ED0A0A07D2D4ED020A94EDA0
:103B80000F1A00EE810A84ED0A0A94ED021AD4EDB0
:103B90000F0A01EE200A84ED0A0A94ED0D1A84ED55
:103BA0000E1A94ED0C1A84ED0D1A94ED101A70EEA5
:103BB000C10AC4ED0C0A94ED031A21EE201A84ED1B
:103BC0000B1AD4ED050AB4EEE00AF1EE10FA06DCA9
:103BD000F1EE600AB4EEE00AF1EE10FA01D2C4EDA3
:103BE0000A0A94ED090AD4ED0A0A30EE200A30EEF2
:103BF000010A84ED080AD4ED040AB4EEE00AF1EEFD
:103C000010FA06DCF1EE600AB4EEE00AF1EE10FA0A
:103C100001D2C4ED080A94ED080ABDEEC00A10EE08
:103C2000100A00B210BD0000002814D0D0ED101A08
:103C3000C0ED111A90ED0F1A80ED101AC0ED060AB2
:103C400080ED070A30EEC00A80ED0F0A017819B145
:103C500001294BD000207047D0ED010A60EE801A98
:103C6000C0ED091AD0ED0A0A90ED022A42EE000AD0
:103C700030EE410AC0ED0A0A90ED0D2A80ED0E2AC1
:103C800090ED0C2A80ED0D2A80ED0C0A90ED031AC0
:103C900021EE001A80ED0B1A90ED050AF4EEC00A31
:103CA000F1EE10FA09DCB1EE400AF4EEC00AF1EED2
:103CB00010FA02D390ED0A0A01E080ED0A0A31EE13
:103CC000800A30EE010A3DE0F1EE600AB4EEE00A4F
:103CD000F1EE10FA02D200BFC0ED080A90ED080A1A
:103CE000BDEEC00A10EE100A00B2704770EE410A35
:103CF00090ED012A60EE820AC0ED090A90ED022AD9
:103D000022EE002A80ED0A2AD0ED0D2A70EE820AFA
:103D1000C0ED0E2AD0ED0C2AC0ED0D2AF0EE002ADF
:103D200001EE620A30EE210A80ED0C0A90ED031AD2
:103D300021EE000A80ED0B0A30EE800AD0ED080A71
:103D400030EE200A80ED080AD0ED040AB4EEE00A55
:103D5000F1EE10FAC0DCB7E70F4810B50D4901606D
:103D60000321416000214FF410228160C0E9031259
:103D70004FF400124261017641768176C176017777
:103D80004177FDF72CFC002803D0BDE81040FDF77B
:103D900035B910BD00640040F00000200F4810B598
:103DA0000D4901600321416000214FF41022816020
:103DB000C0E903124FF40012426101764176817628
:103DC000C17601774177FDF70AFC002803D0BDE8F2
:103DD0001040FDF713B910BD006800401801002025
:103DE000154808B5016841F400110160016801F44B
:103DF00000110091016841F4800101600068002217
:103E000000F48000009011460C20FEF76FF80C20A3
:103E1000FEF75EF8002211463920FEF767F83920D8
:103E2000FEF756F8002211463A20FEF75FF8BDE88B
:103E300008403A20FEF74CB8303802401D4808B51B
:103E4000016841F002010160016801F00201009186
:103E5000016841F040010160016801F040010091FA
:103E6000016841F001010160016801F00101009168
:103E7000016841F008010160016801F0080100914A
:103E8000016841F004010160016801F00401009142
:103E9000016841F080010160016801F0800100913A
:103EA000016841F010010160006800F0100000900E
:103EB00008BD00003038024010B596B000240F94C1
:103EC00010941194129413941C2168461494FCF7D6
:103ED000AFF9202107A8FCF7ABF93448324901605B
:103EE000A721C0E9011440F2CF71C0E90314446175
:103EF0008461FEF74FFB08B1FDF780F84FF4805066
:103F00000F900FA92948FEF7AEFB08B1FDF776F830
:103F10002648FEF75AFD08B1FDF770F8139413A96F
:103F200022481494FEF7EEFA08B1FDF767F8602016
:103F3000CDE9000402940394049405940022694698
:103F40001A480694FEF7D9FC08B1FDF757F8042289
:103F500069461648FEF7D1FC08B1FDF74FF8082274
:103F600069461248FEF7C9FC08B1FDF747F80C2274
:103F700069460E48FEF7C1FC08B1FDF73FF807940B
:103F8000089409944FF400500A94CDE90B4007A916
:103F900006480E94FEF78CFA08B1FDF72FF8034897
:103FA000FEF780FC16B010BD00000140400100206B
:103FB00010B586B00024164800940194029403942E
:103FC00004944FF08041059401605321C0E901142D
:103FD00041F28731C0E903148461FEF7DBFA08B1CE
:103FE000FDF70CF84FF48050009069460848FEF742
:103FF0003AFB08B1FDF702F8049404A904480594BB
:10400000FEF780FA002801D0FCF7F8FF06B010BDDB
:10401000800100200C4810B50A4901604FF4E131DD
:104020004160002181600C22C160C0E904128161FD
:10403000C161FEF7CFFD002803D0BDE81040FCF7BA
:10404000DDBF10BD00100140C00100200E4810B5BA
:104050000C4901600D4941604FF48051816000219D
:104060004FF48062C0E903120C22C0E90521C1614E
:10407000FEF7B0FD002803D0BDE81040FCF7BEBF3E
:1040800010BD00000048004000020020A086010092
:104090000C4810B50A4901604FF4E131416000213C
:1040A00081600C22C160C0E904128161C161FEF728
:1040B00091FD002803D0BDE81040FCF79FBF10BD64
:1040C0000014014040020020FEE77047A0B1D0ED8F
:1040D000101AC0ED111A90ED0F1A80ED101AC0EDF4
:1040E000060A80ED070A30EEC00A80ED0F0A01785B
:1040F00029B101293BD078E09FED3D0A7047D0ED12
:10410000010A60EE801AC0ED091AD0ED0A0A90ED9E
:10411000022A42EE000A30EE410AC0ED0A0A90ED92
:104120000D2A80ED0E2A90ED0C2A80ED0D2A80EDEF
:104130000C0A90ED031A21EE001A80ED0B1A90ED97
:10414000050AF4EEC00AF1EE10FA09DCB1EE400AFD
:10415000F4EEC00AF1EE10FA02D390ED0A0A01E083
:1041600080ED0A0A31EE800A30EE010A2BE070EE93
:10417000410A90ED012A20EE822A80ED092AD0ED35
:10418000020A60EE800AC0ED0A0AD0ED0D2A72EE36
:10419000200AC0ED0E2AD0ED0C2AC0ED0D2AF0EE5B
:1041A000002A01EE620A30EE210A80ED0C0A90ED41
:1041B000031A21EE000A80ED0B0A30EE800AD0EDE2
:1041C000080A30EE200A80ED080AD0ED040AB4EEA9
:1041D000E00AF1EE10FA06DCF1EE600AB4EEE00A55
:1041E000F1EE10FA01D2C0ED080A90ED080A70470E
:1041F0000000000000282AD0002A28D0017092ED8B
:10420000001A80ED011A92ED011A80ED021A92ED6A
:10421000021A80ED031A80ED040A9FED0D0AC0ED2D
:10422000050A80ED0E0A80ED0D0A80ED0C0A80ED86
:10423000080A80ED0B0A80ED0A0A80ED090A80ED7C
:10424000110A80ED100A80ED0F0A80ED120A704706
:10425000000000007047000070B504461048FFF7EA
:104260009DFB0F4D00EE904A6888F8EEE00A00EEE4
:10427000100A05F10C00B8EE400AFFF74DFC00EE05
:10428000900AB5F9040000EE100A05F15800BDE8E7
:104290007040B8EEC00AF8EEE00AFFF7C5BC0000B7
:1042A000CC0800202DE9F0411C4C1D4D4FF00106BB
:1042B000A07D4FF00001800607D52878401C2870AB
:1042C000C00701D0A67600E0A176164F6089BA7AC1
:1042D000904201D0A176297000F08CF8E18A124852
:1042E0004A0611D5227E01F0400102F040028A42C6
:1042F00002D06978491C69706A780321012A02D0CA
:10430000022A08D06E700173007BFFF745F8A07A8F
:10431000B872BDE8F0810221F5E70000A00300209B
:10432000BE000020CE030020DC0300201D4810B595
:104330000188A0F11C04C1F30A0121804178CA0858
:10434000817842EA4112C2F30A026280C278890986
:1043500041EA8202017942EA8122C2F30A02A28082
:104360004A08417942EAC112C2F30A02E2808A098C
:104370006281C1F30111A181018AC1F30A01218186
:10438000C188E1810189218241896182017B217596
:10439000417B6175807BE082FFF784FFE08A2083A8
:1043A00010BD0000BC03002038B510480024006890
:1043B000016841680091C16841F01001C16012229A
:1043C0000B490A48FEF74EFD09484FF4BE51123022
:1043D000048044808480C18084810E3004804480C5
:1043E0008480C48001813C38847638BD000200207E
:1043F000BC0300202DE9F0474E4C80462DED048B88
:104400009FED4D8BE088B4F808C08000A0F5805087
:1044100002B2A0882388658880004A4CA0F58050AD
:1044200001B2DFF81C91B4F90660ACF58060A5F527
:104430008065B8F1010F1ED09FED439B2746B8F170
:10444000020FB7F9087056D0B8F1030F22D000213F
:1044500089F80210FFF7A8FFB4F9060041F65421CD
:10446000884203DC4FF4A951884200DAE180BDECB8
:10447000048BBDE8F0874FF0010C89F802C0228060
:10448000C0EB803061808000A3F59853A080FC3B96
:1044900058421BE04FF0030C89F802C02280618073
:1044A000FCF759F853EC192BFBF774FF9FED281B11
:1044B00053EC112BFBF76EFF41EC190B3846FCF760
:1044C0004AF853EC192BFBF7BEFE30E0208128465A
:1044D000FCF741F853EC182BFBF75CFF41EC180B91
:1044E0003046FCF738F853EC182BFBF7ACFEFCF722
:1044F00043F8E080B0E74FF0020889F8028022809C
:104500004FEA8C006180A0F58050A080A3F5806008
:10451000FCF721F853EC192BFBF73CFF41EC190B8E
:104520003846FCF718F853EC192BFBF72DFFFCF776
:1045300023F8CBE7A00300209A9999999999B93F5C
:10454000BE000020CE0300207B14AE47E17A843FFA
:10455000000000000000E03F014900208870704723
:10456000BE0000200D4908782C2816D14A780C4846
:10457000012A00D000220272CA78C2F1780200EE4D
:10458000102AB8EEC00A80ED000A8978A03900EE42
:10459000101AB8EEC00A80ED010A7047AC00002086
:1045A000CC0B0020074882B0006801684168009188
:1045B000C16841F01001C16005220349014802B001
:1045C000FEF750BCC0010020AC00002000200A4AC9
:1045D00001461154401CC0B20628FAD3064A0020F6
:1045E0000C3A1154401CC0B20528FAD30248801F6F
:1045F0000180418081807047B80000202DE9FC5F78
:104600000020544C01900090534E207BDFF84C81E9
:10461000DFF84CA1DFF84CB100254FF001097060C4
:1046200002284CD003280DD000231A4619461846FC
:10463000FCF7FCFA4C48FCF731FD002301461A4612
:10464000184639E0B8F80200B4F9021000EE100A7A
:10465000B4F90000B8EE400ADFED440A0122FCF78D
:1046600077FB3E48FFF79AF9414F386838B93B4924
:104670003B48FCF7CDFCC7F80090ABF80850B4F904
:10468000060000EE100A3B48B8EEC00AD0ED000A62
:1046900070EE200A9AED060A00F020FE0746B4F9F3
:1046A0000800FFF7D9FD04462F48FCF7F7FC20442B
:1046B000DDE9003201B23846FCF7DCFA3FE027487A
:1046C000FFF76CF92C4F386850B924492448FCF79F
:1046D0009FFC224800F0E0FDC7F80090ABF80850BE
:1046E000B4F9060000EE100A2248B8EEC00AD0ED78
:1046F000000A70EE200A9AED060A00F0EFFD8146EE
:10470000B4F90800FFF7A8FD07461748FCF7C6FCF8
:104710003844DDE9003201B24846FCF7ABFAB8F89C
:104720000200B4F90210A0F6FC70404200EE100A3C
:10473000B4F900000122B8EEC00AFCF7BFFA7068B5
:10474000032803D00A4902280D6001D00A480560F9
:10475000BDE8FC9FDC030020CC000020DC0700202B
:104760006C040020CE030020CC08002000C07F4550
:1047700088000020800000208C0000202DE9FC5FD4
:1047800000255F48ADF80050ADF80450DFF8749193
:104790004089C9F80000012819D05B4EDFF86C8110
:1047A000DFF86CB15B4C4FF0010A022853D00328AC
:1047B00010D000231A4619461846FCF737FA564817
:1047C000FCF76CFC002301461A46184640E0FCF753
:1047D0003FF885E07088B4F9021000EE100AB4F9D1
:1047E0000000B8EE400ADFED4D0A0122FCF7B0FAF6
:1047F0004548FFF7D3F84A4E306830B9424943483C
:10480000FCF706FCC6F800A02581B4F90800DBED32
:10481000000A00EE100AB8EEC00A70EE200A98ED09
:10482000060A00F05BFD0646B4F90600FFF714FD2A
:1048300004463948FCF732FC074601A9684600F0F7
:1048400087F8E01901B2BDF90430BDF90020304607
:10485000FCF710FA44E02C48FFF7A0F8314F386815
:1048600048B929492948FCF7D3FB274800F014FD33
:10487000C7F800A02581B4F90800DBED000A00EEBE
:10488000100AB8EEC00A70EE200A98ED060A00F091
:1048900025FD8246B4F90600FFF7DEFC07461E48F8
:1048A000FCF7FCFB804601A9684600F051F807EBD5
:1048B000080001B2BDF90430BDF900205046FCF7F4
:1048C000D9F97088B4F90210A0F6FC70404200EEED
:1048D000100AB4F900000122B8EEC00AFCF7EEF9A4
:1048E000D9F80000012803D00F4903280D6003D038
:1048F0000B4902280D6001D00A480560BDE8FC9F05
:10490000A0030020CC000020DC0700206C04002065
:1049100080000020CE030020CC08002000C07F458E
:10492000880000208C000020D80000207047000084
:1049300002490A6850630968886370474001002093
:1049400002490A68D0630968086470474001002082
:104950002DE9F05F07462DED028B0E465B48FEF712
:10496000C7FD5A48FC30FEF7C3FD5948574C4FF07D
:1049700000090378574804F1FC05012240F2A46CB9
:104980004FF47A78DFED548A05F1640A9FED538A7B
:10499000534904F1640B012B03D0022B11D0032BDC
:1049A0000BD1898901297DD002297CD0032904D12A
:1049B0000EE05846FEF724FE3080BDEC028BBDE8C9
:1049C000F09F8B89012B06D0022B35D0032BF4D11D
:1049D000C0F8009021E002600889A0F580600028FE
:1049E0001BDDE0466046FFF7A3FF4046FFF7A8FF48
:1049F000B5F91000F0EE680A00EE100A5046B8EE65
:104A0000C00AFEF7FDFD3880B4F91000F0EE680A28
:104A100000EE100AB8EEC00ACBE74046FFF788FF69
:104A20004046FFF78DFFB5F91000F0EE480A00EEA2
:104A3000100AB8EEC00A13E002600889A0F5806190
:104A400000291ADD6046FFF773FF4046FFF778FF45
:104A5000B5F91000F0EE680A00EE100AB8EEC00AD0
:104A60005046FEF7CDFD3880B4F91000F0EE480A4C
:104A700000EE100AB8EEC00A9BE7B0F5806FCCD00C
:104A80006046FFF75DFF4046FFF752FFB4F91000A4
:104A9000F0EE680A00EE100A5846B8EEC00AFEF7BB
:104AA000AFFD01E00EE00FE03080B5F91000F0EE50
:104AB000480A00EE100A5046B8EEC00AFEF7A0FD04
:104AC00038807AE70260BDE70260D9E7BC090020C0
:104AD000C0000020A40000200000FAC30000000075
:104AE000A003002010B500F02BF813494FF491609B
:104AF00040F2CF7208804A80091D08804A800A1D52
:104B000040F24C40108040F2C9715180121D10805B
:104B10005180002209490720FEF716FD07490022AF
:104B2000FC390820FEF710FD034800211030016019
:104B3000491E416010BD000094000020B80A00200A
:104B400010B50F48FDF76CFD00210D48FDF75AFF29
:104B500004210B48FDF756FF08210948FDF752FFD5
:104B60000C210748FDF74EFF054840F2F23102687C
:104B70005163026891630268D1630068016410BDEB
:104B800040010020FDF74AB930B593B030216846A6
:104B9000FBF74EFB14210CA8FBF74AFB1948002534
:104BA000016841F080510160006800F08050119070
:104BB0001548016841F4804101600068022400F456
:104BC00080401190012003901020049000940694DE
:104BD0000820CDE90750A820CDE9090404200B9056
:104BE0006846FDF7A1FA0CA90F2081E831004FF4C7
:104BF000A0500F90E002109005210CA8FDF7A8F935
:104C000013B030BD403802400070004005480168D4
:104C100041F47001016003494FF000608039086081
:104C20007047000088ED00E00148FDF788BD0000F6
:104C300080010020F0B50268254C264D264E274FF6
:104C4000274B4FF0804CA04209D0604507D0A842C6
:104C500005D0B04203D0B84201D0984204D122F02E
:104C6000700E4A6842EA0E02A0421BD0604519D07D
:104C7000A84217D0B04215D0B84213D0984211D0F4
:104C8000184DA8420ED0184DA8420BD0174DA8427F
:104C900008D0174DA84205D0164DA84202D0164D97
:104CA000A84203D122F44075CA682A434D6922F014
:104CB00080022A4302608A68C2620A688262A04255
:104CC00001D0984201D10969016301214161F0BD20
:104CD000000001400004004000080040000C0040BB
:104CE00000040140004001400044014000480140F0
:104CF00000180040001C00400020004010B501F0EA
:104D00001F030121046A99408C430462016A9A409E
:104D10001143016210BD10B5846842EA032224F4F5
:104D20007F440A432243826010BD826822F07002F1
:104D30000A4342F00701816070470000F0B5026A43
:104D400022F001020262036A42688469124E24F072
:104D500073050C682C4323F002058B682B430D4D23
:104D6000A84201D0B04205D123F00807CB683B43ED
:104D700023F00403A84201D0B04205D14D6922F4CA
:104D8000407215438A692A434260846149684163DD
:104D90000362F0BD0000014000040140F0B5026A6A
:104DA00022F010020262026A436884690D6824F4EA
:104DB000E64444EA05248D6822F0200242EA051206
:104DC0000F4D104EA84201D0B04206D1CF6822F05C
:104DD000800242EA071222F04002A84201D0B0420B
:104DE00007D14D6923F4406343EA85038D6943EAA3
:104DF000850343608461496881630262F0BD0000FD
:104E00000000014000040140F0B5026A22F4807203
:104E10000262026A4368C46922F4007224F07305D6
:104E20000C68124E2C438D6842EA05220E4DA842B2
:104E300001D0B04206D1CF6822F4006242EA0722D4
:104E400022F48062A84201D0B04207D14D6923F418
:104E5000405343EA05138D6943EA05134360C46177
:104E60004968C1630262F0BD0000014000040140D6
:104E700030B5026A22F480520262046A4268C36951
:104E80000D6823F4E64343EA05238D6824F40054B7
:104E900044EA0534084DA84202D0084DA84204D186
:104EA0004D6922F4804242EA85124260C36149683A
:104EB0000164046230BD00000000014000040140B4
:104EC00010B5036A046A24F001040462846924F0C2
:104ED000F00444EA021423F00A020A4384610262E5
:104EE00010BD10B5036A23F0100303628369046ADE
:104EF00023F4704343EA023224F0A00343EA011191
:104F00008261016210BD10B5806B0021C185C18432
:104F1000FDF7D5FD10BD70B5846B2068406994F82D
:104F20003910C0F3C0100025212904D118B1E5843F
:104F3000204600F046F82068406994F83A10C0F323
:104F40008010222904D118B1E585204600F02BF805
:104F5000E06B40F01000E0632046FDF7B0FD70BD4F
:104F600010B50146806B09680968C90513D4002192
:104F7000C1850168CA6822F48072CA6001684A6902
:104F800022F001024A6101684A6922F040024A6146
:104F9000202180F83A10FDF7B1FF10BD10B5806BED
:104FA000FDF7ADFF10BD0168CA6822F49072CA60B7
:104FB00001684A6922F001024A61202180F83A1012
:104FC00070470168CA6822F0C002CA60202180F8D8
:104FD0003910704710B590F83A10222901D00220FC
:104FE00010BD8168B1F5805F11D0016900290168A9
:104FF0001FD0496801F07F03816A4A1C82620B70EE
:10500000C18D491E0904090CC18518D02BE0026925
:10501000816A002A0268526805D0D2B20A80816A89
:10502000491C8162ECE7C2F308020A80816A891C8C
:10503000F7E74A68816A4B1C83620A70E0E70168FF
:10504000CA6822F02002CA600168CA6822F480722D
:10505000CA6001684A6922F001024A61202180F891
:105060003A10FDF74BFF002010BD00002DE9F04184
:10507000044600680169E26821F44051114301616E
:105080002169A068E2690843616911430843216806
:10509000CA6849F20C639A430243CA6020684169B6
:1050A000A26921F4407111434161E0691927642527
:1050B0003226B0F5004F354A354920684FF00008D8
:1050C00006D0884201D0904236D1FCF7EBFF35E0A4
:1050D000884201D0904202D1FCF7E4FF01E0FCF7E6
:1050E000D1FF61684A18A0FB070148EB0803FBF7F2
:1050F00067F80146B0FBF5F00201B1FBF5F06FF087
:105100001803584301EB800006EBC000B0FBF5F03C
:1051100000F0F80002EB4002B1FBF5F0584301EB60
:10512000800006EBC000B0FBF5F000F0070021683E
:1051300010448860BDE8F081FCF7A4FF61688B0F24
:105140008A00A0FB0701FBF73BF80146B0FBF5F036
:105150006FF01802504301EB800006EB0010B0FB2B
:10516000F5F000F0F002B1FBF5F002EB0012B1FB3C
:10517000F5F06FF01803584301EB800006EB0010C8
:10518000B0FBF5F000F00F00D1E700000014014083
:105190000010014090F83910212901D002207047F9
:1051A0008168B1F5805F016A0BD04A1C0262026817
:1051B00009785160C18C491E0904090CC1840ED0C4
:1051C00017E009880268C1F30801516001690029EC
:1051D000016A02D0491C0162ECE7891CFBE7016807
:1051E000CA6822F08002CA600068C16841F04001CC
:1051F000C160002070472DE9F041984617460E46E1
:105200000446069D1DE0681C1BD02DB1FCF700FE76
:10521000A0EB0800A84214D92068C16821F4D0711D
:10522000C1602068416921F001014161202084F8BA
:10523000390084F83A00002084F838000320BDE8E3
:10524000F0812068006836EA000004D00020B842EF
:10525000D9D00020F3E70120F9E7000010B503489A
:10526000FDF72EFCBDE81040FDF7F8BEC0010020A0
:1052700010B50348FDF724FCBDE81040FDF7C8BE9B
:105280000002002010B50348FDF71AFCBDE81040ED
:10529000FDF796BE400200200146B0F902000A78F0
:1052A0000449012A03D0022A00D18880704708806F
:1052B000704700006C000020FEE700280CD00021A1
:1052C0000A464318491C89B2DA700B29F9D35521D3
:1052D000817002700B21417070470000FDEEE01AF2
:1052E000B4209FED3A1A11EE901AF5EEC00A10B5EF
:1052F00091FBF0F0F1EE10FA4FEAC0710DDD59B3F9
:10530000B421484301EE900AF8EEE11A70EEE10A8A
:10531000DFED2F1A70EEA10A0AE0E9B1B42148438B
:1053200001EE900AF8EEE11A70EEE10A70EE810AE1
:10533000F5EEC00AF1EE10FA17DBB5EEC00AF1EE99
:1053400010FA22DA70EEC11AF4EEC01AF1EE10FA79
:105350001BD930EE010A16E0B421484301EE900A51
:10536000F8EEE11A70EEE10AE2E7B5EEC00AF1EEFE
:1053700010FA0AD370EE811AF4EEC01AF1EE10FAA8
:1053800003DA30EE410AF0EE610A9FED121ADFED0A
:10539000121A124820EE812A20EE011AC2EE210ACA
:1053A00081EE210AFEF7B8FB00EE900A0B480C389C
:1053B000F8EEE00AB0F90400BDE8104000EE100A73
:1053C0000648B8EEC00A4C30FEF72EBC000034434D
:1053D000000034C300F8FF450000B443E807002094
:1053E0000FB4054B10B503A9044A029800F0EAF87F
:1053F00010BC5DF814FB0000655E0008EC000020A6
:105400000907090E002804DB00F1E02080F80014F1
:10541000704700F00F0000F1E02080F8141D704785
:1054200002E008C8121F08C1002AFAD1704770476D
:10543000002001E001C1121F002AFBD170470000CB
:105440002DE9FF5F82B00021DDE90430020DDDF8B7
:1054500040B0034318D044F61050A2F2FF3242434A
:105460001514119801281FD0A5EB0B00401C5FEA12
:10547000000A4FF000064E4FDFF83891B046504614
:1054800015D5CAF1000413E0119801244AA301289C
:1054900001D16FEA0B010298119AC0E90031C0E90D
:1054A000024206B0BDE8F09FCBF10000DFE7044602
:1054B0000021404A491842EB0450CDE9001012E0A7
:1054C000E00707D032463B4640464946FAF762FFBE
:1054D0008046894632463B4610461946FAF75AFF3F
:1054E00006460F466410002CEAD1DDE90401DDE92F
:1054F0000023BAF1000F06DAFAF74CFF42464B469A
:10550000FAF748FF05E0FAF7B7FF42464B46FAF7CD
:10551000B3FF04460E460022284BFBF76FF903D871
:105520004FF0FF30014607E00022254B2046314670
:10553000FAF789FEFBF749F9102409E0002C0ADB91
:105540000A220023FAF73CFE039B30321A55641EF0
:1055500050EA0102F2D1641C039AC4F1110314440D
:10556000119A012A03D0012208430DD10AE0084311
:1055700004D000204FF0110B119072E7A3EB0B0544
:105580006D1E0DE05B4504DD4FF0000205F10105E5
:1055900004E003DA4FF00002A5F10105002AECD087
:1055A00002981199C0E90231C0E9004579E700008D
:1055B000000014400000F03F300000000000F04305
:1055C0000000E03F2DE9FF4F95B09B468946064617
:1055D00000250FE2252877D100242746F84A01212B
:1055E000059400E0044316F8013F203B01FA03F064
:1055F0001042F7D130782A2811D06FF02F0330787D
:10560000A0F13002092A16D8059A44F0020402EBF0
:10561000820203EB42021044761C0590EFE759F832
:10562000042B0592002A03DA504244F400540590FA
:1056300044F00204761C30782E2816D116F8010F9B
:1056400044F004042A280DD06FF02F023078A0F126
:105650003003092B09D807EB870302EB4303C71874
:10566000761CF3E759F8047B761C30786C280FD051
:1056700006DC4C2817D068280DD06A2814D104E025
:10568000742810D07A280FD10DE044F400140AE0F9
:1056900044F4801401E044F440147278824202D150
:1056A00004F58014761C761C307866280BD013DC49
:1056B000582877D009DC002875D04528F6D0462830
:1056C000F4D047281AD19DE118E0632835D064282A
:1056D00079D0652812D195E1702873D008DC67284D
:1056E000F1D069286FD06E280DD06F2806D1B5E0B3
:1056F00073282CD0752875D0782874D05A461799FD
:1057000090476D1C75E1C4F30250022809D00328AC
:105710000DD0D9F8001004280DD00D6009F104094E
:1057200067E1D9F80010EA17C1E90052F6E7D9F8A5
:1057300000100D80F2E70D70F0E719F8041B8DF8EA
:10574000001000208DF80100EA46012003E059F81E
:1057500004AB4FF0FF3061074FF0000102D40DE0C1
:1057600008F101018846B9420FDA8045F8DB1AF8E2
:1057700008100029F4D108E008F1010188468142AF
:10578000FADB1AF808100029F6D105985B46A0EB61
:10579000080721463846179A00F094FA284400EB8F
:1057A000080507E04DE029E10DE01AF8010B5A4623
:1057B00017999047B8F10108F7D25B462146384661
:1057C000179A13E142E00A220092C4F302524FF00A
:1057D000000A022A08D059F804CB032A4FEAEC71D8
:1057E0000AD00DE029E02AE009F1070121F00702C3
:1057F000F2E802C1914609E00FFA8CFC4FEAEC7125
:10580000042A03D14FFA8CFC4FEAEC71002907DA25
:105810000A460021DCF1000C61EB02012D2202E0BE
:10582000220504D52B228DF80420012203E0E20793
:1058300001D02022F7E7904659E00A2102E0102229
:105840000DE010214FF0000A00910BE010224FF004
:10585000000A44F004040827009203E008224FF0F5
:10586000000A0092C4F30252022A05D059F804CB70
:105870000021032A08D009E009F1070121F00702FD
:10588000F2E802C1914605E01FFA8CFC042A01D11E
:105890000CF0FF0C4FF00008220728D5702806D026
:1058A000009B83F0100353EA0A0305D00EE0402268
:1058B0008DF80420012208E05CEA010206D03022C3
:1058C0008DF804208DF8050002229046009B83F09D
:1058D000080353EA0A030AD15CEA010201D1620714
:1058E00005D530228DF804204FF001087F1E58287E
:1058F00004D034A003900EA802900DE036A0F9E782
:1059000053466046009AFAF75BFC84460398825C33
:105910000298401E029002705CEA0100F0D10298E9
:1059200006A9081A00F1200A600702D524F4803481
:1059300000E00127574502DDA7EB0A0000E0002048
:1059400000EB0A01009005984144401A0590E003DD
:1059500006D45B462146179A059800F0B3F9054432
:10596000002706E001A85A46C05D179990476D1CB4
:105970007F1C4745F6DBE0030CD55B462146179AB2
:10598000059800F09FF9054404E030205A46179925
:1059900090476D1C0099481E00900029F5DC08E036
:1059A000029802995A460078491C0291179990472B
:1059B0006D1CBAF10001AAF1010AF1DC65E10000F9
:1059C00009280100303132333435363738396162D5
:1059D0006364656600000000303132333435363799
:1059E00038394142434445460000000000F058F970
:1059F0000544761C307800287FF4ECAD19B02846B9
:105A0000BDE8F08F620700D4062709F1070222F0F3
:105A1000070CFCE80223E14603F000485FEA080CAB
:105A200002D00FF2702C0DE05FEA045C02D50FF299
:105A3000682C07E05FEAC47C02D00FF2602C01E022
:105A4000AFF2700C4FF0FF3823F00043CDF850C098
:105A500065280CD006DC452809D046281DD04728EB
:105A60003DD13DE0662818D067287ED138E000217E
:105A7000112F01DB112000E0781CCDE9000106A9FF
:105A80000EA8FFF7DDFCDDE90F010E9A039100215E
:105A9000009207F1010A04914DE04FF00040009799
:105AA000CDE9011006A90EA8FFF7CAFCDDE90F0237
:105AB00003920E9B11990022DDF80CA00093049232
:105AC00011B9791C00EB010AB7EB0A0004D4C0F14C
:105AD000FF3007F1010A0490AAEB0700019044E0AF
