:020000040800F2
:10000000200F00209D0100086F3500080D29000811
:100010006D35000851080008194000080000000074
:100020000000000000000000000000006938000827
:10003000F509000800000000D13500080D3900085E
:10004000B7010008B7010008B7010008B7010008B0
:10005000B7010008B7010008B7010008B7010008A0
:10006000B7010008B7010008B7010008B701000890
:1000700039090008B7010008B7010008B7010008F6
:10008000B7010008B7010008B7010008B701000870
:1000900055080008B7010008B7010008B7010008BB
:1000A000B7010008B7010008B7010008B701000850
:1000B000B1390008B7010008B7010008B70100080E
:1000C000B7010008B7010008B7010008B701000830
:1000D000B7010008E53F0008B7010008F13F00083C
:1000E000B7010008B7010008B7010008B701000810
:1000F000B7010008B7010008B7010008B701000800
:10010000B7010008B7010008B7010008B7010008EF
:10011000B7010008B7010008B7010008B7010008DF
:10012000B701000845090008B7010008B701000839
:10013000B7010008B7010008B7010008B7010008BF
:1001400061080008B7010008B7010008B7010008FE
:10015000B7010008B7010008B70100080540000812
:10016000B7010008B7010008B7010008B70100088F
:10017000B7010008B7010008B7010008000000003F
:10018000B7010008B7010008DFF80CD000F04EFB03
:1001900000480047D5490008200F00200648804746
:1001A00006480047FEE7FEE7FEE7FEE7FEE7FEE75C
:1001B000FEE7FEE7FEE7FEE7953900088901000843
:1001C0002DE9F05F0546002092469B46884606468C
:1001D000814640241BE0284641464746224600F01F
:1001E0003EFA53465A46C01A914110D3114618465A
:1001F000224600F025FA2D1A67EB01084F462246E9
:100200000120002100F01CFA17EB00094E41201ECE
:10021000A4F10104DFDC484631462A464346BDE8E6
:10022000F09FD2B201E000F8012B491EFBD27047CB
:100230000022F6E710B513460A4604461946FFF7B2
:10024000F0FF204610BD2DE9FE4F804681EA0300F5
:10025000C00F0C46009021F0004123F00045B8EBA0
:100260000200A94105D24046214690461C460B4655
:10027000024623F00040104347D0270DC7F30A0081
:10028000C3F30A510290401A019040286BDAC3F37D
:10029000130040F4801B0098924620B10023D2EB5B
:1002A000030A63EB0B0B01985946C0F1400250461C
:1002B00000F0C6F906460D4650465946019A00F030
:1002C000DEF910EB08006141002487EA115284EA4C
:1002D000E7731A4340D0009A62B3019A012A4FEAA9
:1002E000075215DC001B61EB02014FF0004202EAED
:1002F0000752CDE90042001C41F5801132462B46E1
:1003000000F015FA03B0BDE8F08F40462146F9E74A
:10031000001B61EB0201001C41F5801300185B41DA
:100320002018A2F5001747EB030140EAD570B61973
:100330006D4111E06D084FEA360645EAC0754FEA97
:100340000752001B61EB0201001C41F580114908B6
:100350004FEA30000019514132462B4603B0BDE848
:10036000F04F00F0D5B90098012240000023D0EBF7
:10037000020263EBE073009821464FEAE074B8EBA9
:10038000000061EB0401E9E783F000435BE781F0E3
:10039000004158E72DE9FE4F81EA030404F00044D0
:1003A00021F0004100944FF0000B23F0004350EA8D
:1003B00001045ED052EA03045BD0C3F30A54C1F3D4
:1003C0000A552C44A4F2F3340194A0FB0254C1F367
:1003D000130141F48011C3F3130343F4801301FBB1
:1003E000024400FB034E840A970A44EA815447EA18
:1003F0008357A4FB076802958D0A05FB07854FEA22
:10040000932C04FB0C542705029D4FEA065847EA3B
:100410001637B5EB08056EEB070C870E920E47EA10
:10042000811742EA8312A7FB0201B6EB0B0164EBD2
:1004300000042B0D43EA0C335E1844EB1C50DA46E3
:100440005146E7FB0201C5F313044FEA0B3343EABD
:1004500014534FEA0432019C43EA0603A4F10C044E
:100460000294009CCDE900B400F061F903B0BDE84E
:10047000F08F00200146F9E72DE9F04D81EA0304F1
:1004800004F0004B21F0004514464FF0000A23F021
:10049000004150EA050220D054EA01021DD0C5F304
:1004A0000A570246C5F31303C1F31300C1F30A56FA
:1004B00040F4801543F48013A7EB0608101BD646C2
:1004C00008F2FD3873EB050002D308F1010801E0E2
:1004D00092185B41B8F1000F03DA00200146BDE835
:1004E000F08D00204FF48011064684460EE0171B65
:1004F00073EB050705D3121B63EB050306434CEAB8
:10050000010C49084FEA300092185B4150EA01079C
:10051000EDD152EA030012D082EA040083EA050119
:10052000084305D0101BAB4106D20122002306E090
:1005300000224FF0004302E06FF0010253101AEB6B
:1005400006004CEB085110EB0A0041EB0B01BDE833
:10055000F04D00F0DDB80EB5C10F80EAE070084440
:10056000CA07002140F233438DE80E000A460B46CD
:1005700000F0DDF803B000BD70B5C1F30A5201F020
:1005800000450024C1F3130140F2FF3341F4801110
:100590009A4201DA002070BD40F233439A42A2F23F
:1005A000334203DC524200F05AF800E090402C4302
:1005B000F1D0404270BD00F0004230F000400AD05F
:1005C000C10D01F56071C0F3160042EA0151C20885
:1005D00040071143704700200146704701F0004377
:1005E00030B421F0004150EA010206D00A0DA2F514
:1005F0006072C1F31301002A02DC30BC0020704796
:10060000440F44EAC104C100E01830BC00EBC25002
:1006100000F047B830B50B460146002020220124E7
:1006200009E021FA02F59D4205D303FA02F5491BC0
:1006300004FA02F52844151EA2F10102F1DC30BDD6
:10064000202A04DB203A00FA02F100207047914092
:10065000C2F1200320FA03F3194390407047202A87
:1006600004DB203A21FA02F00021704721FA02F35C
:10067000D040C2F120029140084319467047202A19
:1006800006DBCB17203A41FA02F043EAE07306E0BA
:1006900041FA02F3D040C2F12002914008431946CA
:1006A00070470029A8BF7047401C490008BF20F0D0
:1006B0000100704710B4B0FA80FC00FA0CF050EA68
:1006C000010404BF10BC704749B1CCF1200421FAE9
:1006D00004F411FA0CF118BF012121430843A3EBE4
:1006E0000C01CB1D4FEA00614FEA102042BF0020F1
:1006F00010BC704700EBC35010440029A4BF10BCCD
:100700007047401C490008BF20F0010010BC704732
:1007100010B5141E73F1000408DA401C41F1000109
:1007200092185B411A4301D120F0010010BD2DE960
:10073000F04D92469B4611B1B1FA81F202E0B0FA57
:1007400080F220329046FFF77BFF04460F4640EAD6
:100750000A0041EA0B0153465A46084313D011469A
:1007600053EA010019D0C8F140025046FFF777FF65
:1007700005460E46504659464246FFF761FF08437C
:1007800005D0012004E020463946BDE8F08D002068
:10079000054346EAE0762C4337430A986305E40AAA
:1007A000A0EB08000022FD0A44EA47540A3002D5B3
:1007B00000200146E9E7010510196941DDE9084516
:1007C00000196941BDE8F04DA2E7C1F30A52C1F337
:1007D000130140F2FF3341F480119A4202DA002003
:1007E0000146704740F233439A42A2F2334202DCA0
:1007F0005242FFF734BFFFF723BF000030B5041E9D
:1008000071F1000404DB4FF00044404264EB01014D
:10081000141E73F1000405DB1C464FF000435242E6
:1008200063EB0403994208BF904230BD064C074D6C
:1008300006E0E06840F0010394E8070098471034B0
:10084000AC42F6D3FFF7A4FC584A0008784A0008E7
:10085000FEE70000014800F072BA0000BC00002072
:10086000014800F06CBA0000E400002038B50E4CDE
:100870004FF4007525600025A560E5600825256119
:100880000A4C050A25706070080AA070E170100A11
:1008900020716271180AA071E3716B462246024909
:1008A000034800F0EDF838BDBC030020250000200F
:1008B000BC0000200EB501221949104602F00CFBC5
:1008C00017490122A431022002F006FB002215493B
:1008D000032002F001FB13490022A431042002F09E
:1008E000FBFA114800219FED110A018041808180AF
:1008F00080ED040A80ED050A80ED020A80ED030A0E
:100900000B4A9FED0C0A07CA8DE807000648F0EE77
:10091000400A6A460021183002F02AFE0EBD00008F
:100920005004002098050020E00600200000000090
:100930004C4A000800409C45014800F0C9BC00003A
:100940004C020020014800F0C3BC0000AC020020B3
:1009500001681823CAB2103AB2FBF3F2054B6FF3E9
:100960000901032A9B5CC36500D9091D81650846FE
:10097000704700002C4A000810B5014600208B6922
:100980008A6A4FF0C07453B1B3F5005F15D072B1ED
:10099000012A0CD0022A0AD0032A09D104E01AB194
:1009A000012A06D0022A03D1C96AC90100D5012053
:1009B00010BDC96AA142FAD010BD002AF7D0012AA1
:1009C000F2D0022AF3D0032AF3D010BD30B5046868
:1009D000256825F480252560046863608368402BC2
:1009E000036803D099600068C26030BD9A600068F7
:1009F000C16030BD704700000248002101604160C5
:100A000070470000B00000207047000010B5FF23C1
:100A100000220F49022002F06DFB0D49FF23002246
:100A2000F031012002F066FB0A484FF47A619FED35
:100A30000A0A416080ED020A80ED030A80ED040A93
:100A400000218161C161418080ED080A10BD000074
:100A500044070020700000200000000090F82020D3
:100A6000012A07D0022A05D0416A41F4802141625F
:100A700001207047006842690A43426100207047C4
:100A8000F0B590F820500468A468012D05D0022D1F
:100A900003D0416A41F4802153E014F0406F01D14A
:100AA000E5004BD5C4F30164022C03D9416A41F43B
:100AB000000146E00125A5401D608D684FF4C0731C
:100AC0009DB1CE6835434E6845EAC605066803EB1E
:100AD0000417F5514FF4C275076805EB04150E694C
:100AE0007E51097D012905D009E00E88CD6845EACF
:100AF0004655EBE701684E5946F480764E51117920
:100B0000D2F805504FF4C67641EA0525016806EB98
:100B100004168D511178D2F801204FF4C47541EAC2
:100B20000221026805EB04155151006803EB041122
:100B3000425842F0010242500020F0BD416A41F4A7
:100B4000001141620120F0BD10B590F82020012A6B
:100B500007D0022A05D0416A41F480214162012078
:100B600010BD3B48D0F8002242F00102C0F800223C
:100B7000D0F8002222F47C52C0F80022D0F80022E3
:100B80004B6A42EA0322C0F800220A7D02F01F03EA
:100B900001229A40D0F81C329343C0F81C32CB6932
:100BA000B3B9D0F80C329343C0F80C328C894B683F
:100BB00064F31F434C6900EBC404C4F840320C8951
:100BC0000B6864F31F434C6900EBC404C4F844325F
:100BD000CB69012B16D1D0F80C321343C0F80C327C
:100BE0000C884B6864F31F434C6900EBC404C4F8E1
:100BF00040320C89CB6864F31F434C6900EBC4049A
:100C0000C4F844328B69002BD0F804320ED0134361
:100C1000C0F804320B69002BD0F8143208D013430B
:100C2000C0F81432096A012904D008E09343EFE7C1
:100C30009343F5E7D0F81C121143C0F81C12D0F80A
:100C4000001221F00101C0F80012002010BD0000C8
:100C500000640040704730B590F82040012C05D06A
:100C6000022C03D0416A41F480215DE00468002930
:100C700055D02469A40754D04FF4D874056804EB08
:100C800001142D5915F00405956005682D594ED0B5
:100C9000ED08556005682C5904F00204D4604FF447
:100CA000DA74056804EB01142D5905F00F05156180
:100CB00005682D59C5F30725956105682C59240C45
:100CC00054614FF4DC72046802EB0112A4581C70EA
:100CD0000468A458240A5C700468A458240C9C700E
:100CE0000468A258120EDA704FF4DE72046802EB48
:100CF0000112A4581C710468A458240A5C71046889
:100D0000A458240C9C710468A258120EDA71006871
:100D100081B1016941F020010161002030BDE4682A
:100D2000A8E7416A41F400114162012030BD6D0D18
:100D30001560AFE7C16841F02001C160EDE72DE922
:100D4000F05F0546006800244669D0F80490876883
:100D5000D0F80CB0D0F810A0D0F81880F10748D027
:100D6000F90714D001218160B80703D5284600F0A7
:100D700050FA0CE0780702D54FF4006407E038071A
:100D800002D54FF4805402E0284600F041FAF805FD
:100D900016D529684FF480708860B80503D52846B9
:100DA00000F039FA0CE0780502D544F4005407E06D
:100DB000380502D544F4804402E0284600F02AFABF
:100DC000F80316D529684FF480308860B80303D53E
:100DD000284600F022FA0CE0780302D544F40044DF
:100DE00007E0380302D544F4803402E0284600F0DE
:100DF00013FA300707D55FEACB6004D529681020C5
:100E000044F40074C86070074FF0080707D55FEA24
:100E10000B7004D52868C760284600F099F9B00720
:100E200006D52868C068800702D0284600F092F9ED
:100E3000700607D55FEACA6004D52968102044F41B
:100E400080640861B00607D55FEA0A7004D5286897
:100E50000761284600F0ACF9F00606D5286800695D
:100E6000800702D0284600F0A4F9B00308D55FEA55
:100E7000C96005D5296810204860284600F09AF915
:100E8000F00307D55FEA097004D528684760284653
:100E900000F0C4F9300446D55FEA497040D5F0054A
:100EA00004D55FEAC87001D044F00104B00504D550
:100EB0005FEA887001D544F00204700504D55FEA4A
:100EC000487001D544F00404300529D518F0700F9E
:100ED00026D008F07000402815D006DC102809D074
:100EE00020280AD0302816D10AE050280ED06028D9
:100EF00011D10EE044F008040DE044F010040AE0C3
:100F000044F0200407E044F0400404E044F080048E
:100F100001E044F480742868816921F070018161E6
:100F2000296804204860002C05D0686A2043686264
:100F30002846FFF78FFEBDE8F09F70B5040003D090
:100F400094F8200010B104E0012070BD204600F0AC
:100F500081F82068016821F00201016000F006FCC0
:100F60000546052604E000F001FC401B0A2811D8C4
:100F7000206840688007F6D42068016841F00101CC
:100F8000016000F0F3FB05460BE000F0EFFB401BB7
:100F90000A2806D9606A40F40030606284F8206054
:100FA000D2E720684068C007EFD0207E0128206883
:100FB00001683DD021F080010160607E0128206839
:100FC000016838D021F040010160A07E012820682E
:100FD000016833D021F020010160E07E0128206803
:100FE00001682ED041F010010160207F01282068A7
:100FF000016829D021F008010160607F0128206884
:10100000016824D021F004010160D4E90201084301
:10101000D4E90412114308436168491E084321685A
:10102000C86100206062012084F82000002070BDAB
:1010300041F08001C0E741F04001C5E741F02001E7
:10104000CAE721F01001CFE741F00801D4E741F0F1
:101050000401D9E7F0B587B0044614216846FFF7CC
:10106000E7F8364B3648DFF8D0E01968D4F800C00E
:10107000334A03250226092710300024491CF44571
:1010800022D11960012907D1016841F00071016086
:10109000006800F000700590106840F008001060D3
:1010A0001068CDE9005600F00800CDE904706946EB
:1010B0002448CDE9024500F07DFA002211461420B3
:1010C00000F0C2FB142032E0DFF87CE0F44530D1C0
:1010D000D0F800C04CF0806CC0F800C0D0F800C060
:1010E00001290CF0806CCDF814C0196007D101689B
:1010F00041F000710160006800F000700590106818
:1011000040F002001060106802AB00F00200059091
:101110006020CDE9000683E8B00069460B4800F086
:1011200049FA00221146402000F08EFB402000F0DA
:101130007DFB07B0F0BD0000006400400800002007
:1011400030380240000C02400068004000040240B9
:101150007047000000B58BB001AB03AA0021FFF778
:101160007AFD0398A0F2012007281AD80E49C0B2D0
:1011700000EB800208700D4901EB420031F812309B
:101180000381BDF804305BBA21F81230BDF80610B7
:1011900049BA4180BDF8081049BA81809DF80A100B
:1011A00081710BB000BD00001C0000205403002022
:1011B000704770477047000070B5044690F82000F3
:1011C000012804D0606A40F40020606218E0022028
:1011D00084F820002068016821F00101016000F01E
:1011E000C5FA05460EE000BF00F0C0FA401B0A2811
:1011F00008D9606A40F400306062052084F820005D
:10120000012070BD20684068C007EDD1606270BDEC
:1012100070477047704770477047704770472DE9B7
:10122000F0410446876D00F0A1FA064694F83500B7
:101230000025022806D08020606584F83450012003
:10124000BDE8F0812068016821F016010160206886
:10125000416921F080014161206C08B9A06C20B186
:101260002068016821F0080101602068016821F010
:10127000010101600BE000F079FA801B052806D916
:101280002020606504F8345F03206070D8E7206890
:101290000068C007EFD194F85C103F208840B86028
:1012A00004F8345F012060700020C9E790F8351021
:1012B000022903D08021416501207047052180F873
:1012C00035100068016821F00101016000207047BD
:1012D0002DE9F84304464FF00009CDF8009063482B
:1012E0004FF41651A56D0068B0FBF1F72E6894F825
:1012F0005C10082000FA01F131420FD021680A6821
:1013000052070BD50A6822F004020A6094F85C10B8
:101310008840A860606D40F00100606594F85C1042
:101320004FF0010808FA01F0304208D021684969FD
:10133000090604D5A860606D40F00200606594F86D
:101340005C1004208840304208D021680968890771
:1013500004D5A860606D40F00400606594F85C10EE
:1013600010208840304218D021680968090714D538
:10137000A86020680168490304D50068000308D507
:10138000A16C07E00168C90503D4016821F00801D8
:101390000160216C09B12046884794F85C10202038
:1013A0008840304231D021680968C9062DD5A8602F
:1013B00094F8350005282068016806D0490347D510
:1013C000006800031DD4616C1CE021F0160101606F
:1013D0002068416921F080014161206C08B9A06C4E
:1013E00020B12068016821F00801016094F85C10C8
:1013F0003F208840A86084F8349084F83580216DBF
:101400001FE0E16B09B120468847606D00282BD0B2
:10141000606DC00714D0052084F83500206801688D
:1014200021F0010101600098401C0090B84203D8EF
:1014300020680068C007F6D184F8349084F83580BD
:10144000E16C002910D001B02046BDE8F043084708
:101450000168C905D5D4016821F01001016084F844
:10146000349084F83580CCE7BDE8F883180000207C
:101470002DE9F041044600F079F906465CB10025FB
:1014800084F83450022084F835002068016821F087
:10149000010101600DE00120BDE8F08100F066F976
:1014A000801B052805D920206065032084F83500BD
:1014B000F2E720680068C007F0D122681168204870
:1014C0000140D4E901031843D4E9033633431843F8
:1014D00063691843A3691843E3691843236A1843EF
:1014E0000843616A042903D1D4E90B131943084363
:1014F000106020684069666A20F0070130460E439C
:10150000012704280CD1A06A0643E06A40B12046B6
:10151000FFF732FA20B14020606584F83570BAE7F1
:10152000206846612046FFF713FA94F85C203F21BB
:1015300091408160656584F835700020ACE700005B
:101540003F8010F02DE9F0410446866D90F834009C
:10155000002501280DD0012084F8340094F835705E
:101560000020012F07D084F8340002252846BDE86A
:10157000F0810220FBE7022784F835706065204681
:10158000FFF724FA94F85C103F208840B060206890
:10159000016841F016010160206C20B120680168EB
:1015A00041F0080101602068016841F0010101601B
:1015B000DCE700002DE9F84F00224FF00108032579
:1015C0004FF00F0E0B6808FA02F42340A3426ED1CD
:1015D0004E68012E05D0022E03D0112E01D0122EFE
:1015E00012D186684FEA420C05FA0CF7BE43CF6869
:1015F00007FA0CF7374387604668A6430C79C4F3B3
:101600000014944034434460C668570005FA07FC50
:101610008C6826EA0C06BC403443C4604C68022C3B
:1016200001D0122C13D1D40800EB8404A346D4F8C3
:10163000209054074FEAD46A0EFA0AF629EA0609FE
:101640000E6906FA0AF646EA0906CBF82060066833
:101650000C7926EA0C0604F00304BC403443046011
:101660004C68E40065D5364C266846F48046266012
:10167000246822F0030604F480440094314C34447E
:10168000A446D4F808489607370F0EFA07F6B44375
:101690002D4EB04201D1002624E02C4EB04201D1A3
:1016A00001261FE02A4EB04202D102261AE040E095
:1016B000284EB04201D1032614E0274EB04201D19A
:1016C00004260FE0254EB04201D105260AE0244E43
:1016D000B04201D1062605E0224EB04201D10726D4
:1016E00000E00826BE402643CCF808681E4E346849
:1016F0004F689C43FF0300D51C4334601A4C241DE3
:1017000026684F689E43BF0300D51E432660164ED1
:10171000083634684F689C43FF0200D51C43346090
:10172000114E0C3634684F689C43BF0200D51C43F1
:101730003460521C102AFFF445AFBDE8F88F00005A
:1017400044380240003001400000024000040240E2
:1017500000080240000C0240001002400014024049
:1017600000180240001C0240003C01400148806813
:10177000704700000C000020024881680278114484
:10178000816070470C0000200B4810B5016841F4DF
:1017900000710160016841F480610160016841F4F9
:1017A00080710160032000F06FF8002000F006F85F
:1017B00000F024F8002010BD003C024070B50D4D33
:1017C00004464FF47A712878B1FBF0F00A490968B1
:1017D000B1FBF0F000F004FB48B9102C07D2002256
:1017E0002146501E00F030F800206C6070BD0120D2
:1017F00070BD00000C000020180000200A4808B549
:10180000016841F480410160006800F4804000906C
:101810000548001F016841F080510160006800F038
:101820008050009008BD000044380240002809DBC9
:1018300000F01F02012191404009800000F1E020EA
:10184000C0F8001170470000F0B40E4B1B680C4646
:10185000C3F30223C3F10705042D00D90425191D84
:10186000072901D2002300E0DB1E012606FA05F15C
:10187000491E214099409E40761E16403143F0BCDF
:1018800002F0ECBB0CED00E0064900F0070208682E
:101890004FF6FF03184040EA0220034A1043086055
:1018A000704700000CED00E00000FA052DE9F0475C
:1018B0000E46050065D0DFF81481D8F80000F7B2B5
:1018C00000F00F00B04207D288F80070D8F800008E
:1018D00000F00F00B04254D128683D4C810712D56A
:1018E000400703D5206840F4E050206028780007C6
:1018F00003D5206840F4604020602068A96820F08B
:10190000F000084320602878C0072DD0304968686F
:101910000839012812D0022813D0032811D00968F1
:10192000890700292DDA216821F003010143216094
:10193000FFF71CFF814641F2883A0EE009688903EF
:10194000EFE709688901ECE7FFF710FFA0EB090159
:10195000514502D90320BDE8F0872068696800F08E
:101960000C00B0EB810FEFD1D8F80010404601F029
:101970000F01B14207D90770006800F00F00B042B4
:1019800001D00120E7E72878400705D52068E968FD
:1019900020F4E050084320602878000706D520682E
:1019A000296920F4604040EAC100206000F038F866
:1019B0002168084AC1F30311515CC8400649086018
:1019C00006480068FFF7FAFE0020C4E7003C02402A
:1019D00008380240344A0008180000201000002097
:1019E0000448054900680968044AC1F38221515C32
:1019F000C84070471800002008380240444A0008D8
:101A00000448054900680968044AC1F34231515C41
:101A1000C84070471800002008380240444A0008B7
:101A2000154810B5006810F00C02144813D0144982
:101A3000042A0FD0082A0ED10F4C241F22682368D5
:101A400002F03F025B0207D52068C0F38810A0FBBC
:101A5000010106E0084610BD2168C1F38811A1FB11
:101A600000010023FEF7ACFB2168C1F30141491CD2
:101A70004900B0FBF1F010BD083802400024F4002A
:101A800040787D012DE9F84F04006ED02078DFF812
:101A90003C93C007A9F104054AD009F1040001688C
:101AA000C1F38101012908D00068C0F38100022838
:101AB0000AD1D9F80000400206D52868800337D53E
:101AC00060680028E1D033E06068B0F5803F10D056
:101AD000B0F5A02F286810D020F480302860286846
:101AE00020F4802028606068A8B1FFF73FFE06461A
:101AF0000DE0286840F48030F4E740F4802028604E
:101B0000F7E700BFFFF732FE801B642873D8286810
:101B10008003F7D50CE0FFF729FE064605E000BF7D
:101B2000FFF724FE801B6428F0D828688003F7D4D0
:101B30002078DFF89C8280074FF0000A3ED5A3484A
:101B4000001D016811F00C0F08D00068C0F381007F
:101B500002280BD1D9F80000400207D4286880077A
:101B600016D5E068012800D112E02BE1E068B8B199
:101B70000120C8F80000FFF7F9FD064605E000BFA8
:101B8000FFF7F4FD801B0228C0D828688007F7D52E
:101B90002868216920F0F80040EAC10028600DE0C3
:101BA000C8F800A0FFF7E2FD064604E0FFF7DEFDFF
:101BB000801B02281FD828688007F7D420780007E8
:101BC00022D5824E83486169703671B1012101606E
:101BD000FFF7CCFD074604E0FFF7C8FDC01B022855
:101BE00009D830688007F7D50EE0C0F800A0FFF7ED
:101BF000BDFD074605E082E0FFF7B8FDC01B0228E7
:101C00007DD830688007F7D42078400768D5DFF8A2
:101C1000BCB100270BF13C0BDBF80000C0000BD47B
:101C2000DBF8001041F08051CBF80010DBF8000029
:101C3000012700F080500090674E3068C00510D436
:101C4000306840F480703060FFF790FD009005E050
:101C5000FFF78CFD0099401A022850D83068C00563
:101C6000F6D55A4EA0686C3601280FD0052830688A
:101C700010D020F001003060306820F004003060A7
:101C8000A068B8B1FFF772FD00900FE0306840F037
:101C90000100F4E740F004003060F7E7FFF766FD6D
:101CA0000099411A41F28830814266D83068800735
:101CB000F4D50EE0FFF75AFD009007E0FFF756FD60
:101CC0000099411A41F28830814256D83068800725
:101CD000F4D42FB1DBF8001021F08051CBF80010C4
:101CE000A069C8B33949091D0968C1F381010229F6
:101CF0004AD00228504607D0C8F8600000E03CE017
:101D0000FFF734FD04463BE04746C8F86000FFF7A4
:101D10002DFD064605E000BFFFF728FD801B0228C9
:101D20002BD828688001F7D4D4E907010843A16AB9
:101D30002A4A490802EB0141626A41EA82110843DA
:101D400094F82C1040EA0161C9F8001001203866AF
:101D5000FFF70CFD044606E036E000BFFFF706FD86
:101D6000001B022809D828688001F7D52CE000BFA5
:101D7000FFF7FCFC001B022802D90320BDE8F88F06
:101D800028688001F4D41FE00128F7D0D9F80000BA
:101D9000E26900F48001914214D1226A00F03F010F
:101DA00091420FD147F6C071626A0140914209D158
:101DB000A26A00F44031914204D1E16A00F07060FF
:101DC000884201D00120D9E70020D7E7043802403B
:101DD00000004742800E4742007000400000FFFFB5
:101DE00010B5401EB0F1807F01D3012010BD4FF02F
:101DF000E02460610F21601702F030F90020A0613B
:101E000007202061002010BD7047704710B590F882
:101E10003C20012A22D0012280F83C20CA688C682C
:101E200022F4407222434C6822F4806222430C6800
:101E300022F4006222430C6922F4805222434C694E
:101E400022F400522243C969002322F480420A434B
:101E500001684A6480F83C30002010BD022010BDAB
:101E600070B590F83C20012A32D0012480F83C4023
:101E7000022280F83D2003685A689D6822F07006AF
:101E80000A6832435A60134B02689A4214D0B2F186
:101E9000804F11D0104B9A420ED0104B9A420BD06B
:101EA0000F4B9A4208D00F4B9A4205D00E4B9A42E4
:101EB00002D00E4B9A4204D1496825F080031943A1
:101EC000916080F83D40002180F83C10084670BDCC
:101ED000022070BD000001400004004000080040E6
:101EE000000C004000040140004001400018004088
:101EF00010B5040003D094F83D0010B107E00120B4
:101F000010BD002084F83C00204600F00DF80220AF
:101F100084F83D00211D206801F050FD012084F867
:101F20003D00002010BD000008B50068114988423E
:101F300009D11148016841F001010160006800F019
:101F40000100009008BDB0F1804FFBD10A48001F8E
:101F5000016841F0010101600068002200F0010009
:101F6000009011461C20FFF76FFCBDE808401C20C4
:101F7000FFF75CBC0000014044380240022180F8B9
:101F80003D1001688A6802F00702062A03D00A6839
:101F900042F001020A60012180F83D1000207047E4
:101FA0000168CA6842F00102CA600068816801F0F5
:101FB0000701062903D0016841F0010101600020FA
:101FC000704770B5044690F83C00012817D00125F1
:101FD00084F83C50022084F83D002068826822F09A
:101FE000770222F47F4282600868502830D00DDCEE
:101FF00020284DD005DC98B310283BD148E00220C2
:1020000070BD302844D0402834D139E0602828D031
:10201000702806D0B0F5805F2CD0B0F5005F29D1D4
:102020000AE0CB68D1E90121206801F038FD206881
:10203000816841F0770109E0CB68D1E9012120688E
:1020400001F02DFD2068816841F48041816011E03C
:10205000CA684968206801F0F7FD5021206807E050
:1020600016E0CA684968206801F0FFFD6021206819
:1020700001F01FFD84F83D50002084F83C0070BD45
:10208000CA684968206801F0DFFD40212068EFE759
:10209000226801461046EBE7704770B504460068B9
:1020A00001694FF00005C943890715D4C168C943C8
:1020B000890711D4E91E0161012020772068806919
:1020C0008007204602D0FFF7E7FF04E000F0C2F8E7
:1020D000204600F044F9257720680169C943490783
:1020E00017D4C168C943490713D46FF004010161D3
:1020F000022020772068806910F4407F204602D0BB
:10210000FFF7CAFF04E000F0A5F8204600F027F929
:10211000257720680169C943090716D4C168C943F6
:10212000090712D46FF008010161042020772068AC
:10213000C0698007204602D0FFF7AEFF04E000F040
:1021400089F8204600F00BF9257720680169C9431A
:10215000C90617D4C168C943C90613D46FF010016A
:102160000161082020772068C06910F4407F204674
:1021700002D0FFF791FF04E000F06CF8204600F079
:10218000EEF8257720680169C943C90708D1C168FD
:10219000C943C90704D1891E0161204600F002F934
:1021A00020680169C943090609D4C168C943090601
:1021B00005D46FF0800101612046FFF725FE2068FD
:1021C0000169C943490609D4C168C943490605D410
:1021D0006FF040010161204600F020F9206801699C
:1021E000C94389060BD4C168C943890607D46FF077
:1021F000200101612046BDE87040FFF706BE70BDBA
:1022000010B586B0044614216846FEF711F80E4951
:102210002068884216D10D480021026842F0100261
:102220000260006800F0100005904FF4D440009068
:102230000220CDE901010120CDE9031069460448DF
:10224000FFF7B8F906B010BD000001403038024079
:1022500000100240704770B5044690F83C000D46EF
:1022600001280DD0012684F83C60022084F83D004E
:1022700042B1042A18D0082A2AD00C2A4DD139E0BC
:10228000022070BD206801F01DFC2068816941F0CA
:10229000080181612068816921F004018161206861
:1022A00081692A69114311E0206801F03BFC206834
:1022B000816941F4006181612068816921F4806154
:1022C0008161206881692A6941EA0221816124E0F3
:1022D000206801F05DFC2068C16941F00801C1611E
:1022E0002068C16921F00401C1612068C1692A69BF
:1022F000114311E0206801F07FFC2068C16941F4BE
:102300000061C1612068C16921F48061C1612068F8
:10231000C1692A6941EA0221C16184F83D60002057
:1023200084F83C0070BD10B5040003D094F83D0063
:1023300010B107E0012010BD002084F83C002046C9
:1023400000F00CF8022084F83D00211D206801F007
:1023500035FB012084F83D00002010BD7047704718
:1023600010B504460068012201F08CFB0B4920687F
:10237000884202D00A49884203D1416C41F40041AD
:1023800041642068816801F00701062903D00168D3
:1023900041F001010160002010BD0000000001407B
:1023A0000004014070B50068B0F1804F28D1154C91
:1023B0006068401C6060144800F060FD1348124DD6
:1023C000B0F900002080B5F9041000EE900A00EE8C
:1023D000101A05F10C00F8EEE00AB8EEC00A00F0A1
:1023E000F1FD00231A461946FEF740FA6B88B5F94D
:1023F0000410B4F90020BDE8704005A001F01EBE35
:1024000070BD0000000000205004002038030020B0
:1024100025642C25642C25640A000000704710B543
:1024200004460068416994F83920C1F3C011212A9B
:102430000BD151B1416921F080014161206B08B19C
:10244000FEF7EDFE204601F080FC2068416994F81B
:102450003A20C1F38011222A0BD151B1416921F0F8
:1024600040014161606B08B1FEF7D9FE204601F0E2
:102470005EFC002010BD704770B50268044610680D
:10248000D168536910F00F0F52D003F0010501F429
:1024900090762E435FD0C20705D0CA0503D5E26B04
:1024A00042F00102E263420705D5DA0703D0E26B8E
:1024B00042F00202E263820705D5DA0703D0E26B3D
:1024C00042F00402E263020707D501F020022A432A
:1024D00003D0E26B42F00802E263E26B002A33D0E1
:1024E000800604D5880602D5204601F037FC206816
:1024F0004069E16BC0F38010090700D428B320467F
:1025000001F015FC2068416949061AD5416921F09E
:1025100040014161606BA0B11B490165606BFEF732
:10252000C5FE002810D0606B016DBDE87040084703
:10253000830610D58B060ED52046BDE8704001F00D
:102540000DBC2046FFF797FF70BD2046FFF793FFB5
:102550000020E06370BD030606D50B0604D52046B7
:10256000BDE8704001F0DABC4006F3D54806F1D56D
:10257000D168204621F04001D160202184F8391033
:1025800000F0C3F970BD00008F3C000870B5040076
:1025900004D094F83900002510B106E0012070BD88
:1025A00084F83850204600F023F8242084F83900BD
:1025B0002068C16821F40051C160204601F01AFC76
:1025C0002068016921F4904101612068416921F08E
:1025D0002A0141612068C16841F40051C160E5638E
:1025E000202084F8390084F83A00002070BD0000F3
:1025F0002DE9F04F87B0054614216846FDF718FE17
:102600006248614B2A6800246049143802264FF062
:1026100003084FF007099A4232D10A6842F01002CB
:102620000A60096801F010010591016841F002019A
:102630000160016801F002010591016841F00101AA
:102640000160006802AA00F0010005908020CDE939
:10265000000682E8100369464D48FEF7ABFF3002E2
:10266000CDE9000602AA694682E810034948FEF750
:10267000A1FF002211462520FFF7E6F8252040E0C3
:10268000454B4FF4807A1F154FF4403B9A423DD1A1
:102690003E49091F0A6842F480220A60096801F471
:1026A00080210591016841F004010160006802AADF
:1026B00000F0040005904FF44060CDE9000682E888
:1026C000100369463548FEF775FF364E344806F16B
:1026D000180130607804C6E90104C6E90347746153
:1026E00081E8100C30467462FEF7C2FE08B1FEF7B6
:1026F0008BF96E63002211462720B563FFF7A4F81B
:102700002720FFF793F807B0BDE8F08F264B9A42D9
:10271000F9D10A6842F020020A60096801F020013C
:102720000591016841F0400101600068029400F0E9
:10273000400005904FF48440CDE900060820CDE923
:10274000038069461948FEF735FF164E1848603673
:1027500006F1180230608005C6E90104C6E90347A6
:10276000746182E8100C30467462FEF781FE08B195
:10277000FEF74AF96E63002211464720B563FFF762
:1027800063F84720BDE700000010014044380240D4
:1027900000040240000002400048004000080240DF
:1027A000286002404C020020001401400018024042
:1027B00028640240F8B5044690F83A0020283CD13D
:1027C000C1B3BAB394F83800012836D0012084F898
:1027D0003800A162A2850025E563222084F83A0032
:1027E000636B1748D863636B16481864636B1648AD
:1027F000D864606B134605650846666B216802461F
:102800003046091DFEF79EFE206801684168009170
:1028100084F83850C16841F48071C1602068416912
:1028200041F0010141612068416941F0400141618D
:102830000020F8BDFFE70120FBE70220F9E70000D8
:10284000E93C0008253D00089F3C000870477047A0
:102850002DE9F843044690F839001F4616460D4608
:10286000202850D1B5B1AEB194F8380001284AD033
:10287000012084F838004FF00008C4F83C80212083
:1028800084F83900FEF772FFA6848146E68484F856
:10289000388026E00120BDE8F883E08C401EE0840B
:1028A000A0684B46B0F5805F4FF000024FF080010A
:1028B0002046009703D001F062FBE8B90DE001F07B
:1028C0005EFBC8B928882168C0F308004860206909
:1028D00008B16D1C05E0AD1C03E0216815F8010B83
:1028E0004860E08C0028D8D14B4600224021204689
:1028F000009701F044FB08B10320CCE7202084F8C6
:1029000039000020C7E70220C5E77047FEE7000056
:10291000104808B500680168C943C90619D40168A0
:10292000406800900B48FFF77AFD0B48006840684C
:10293000D0F10B0005D1094800F0A6F8074800F0D7
:1029400035F806490B22BDE80840C91C0148FFF7CD
:1029500031BF08BD0C020020AC020020D4030020CF
:102960000F4808B500680168C943C90617D4016853
:10297000406800900A48FFF752FD0A480068406826
:10298000D0F1120008D000F091FEBDE808401222FC
:1029900005490348FFF70EBF00F04EFEF5E708BDFE
:1029A000CC0100204C02002026030020F0B50028B6
:1029B00026D0234901224C681CB3D0ED060A91EDC4
:1029C000000A204D022630EEC00A1F4F10EE103ACA
:1029D000AB421CD8022C1AD010EE103ABB4220DCBD
:1029E000032C1ED04A60C0ED090A00BF90ED040A16
:1029F00080ED070A90ED050A80ED080AC1ED000A96
:102A0000F0BD90ED060A81ED000A4A60F0BD10EEBF
:102A1000103ABB4201DD4A60E8E79FED0C0A4E60C8
:102A200009E010EE102AAA4201D94E60DEE7032227
:102A30009FED070A4A6030EE800A80ED090AD5E76B
:102A4000300000200000AAC30000AA430000B443E5
:102A50000000B4C308B50A4801F0DFFA094800686D
:102A6000016841680091C16841F01001C1600449EA
:102A70000B22BDE80840C91C0248FFF79BBE0000BE
:102A8000D40300200C0200202DE9F04104002DEDBC
:102A9000048B74D060780B2871D3774E00259FED9E
:102AA000778A00BF05EB450000EBC5002044A27803
:102AB000C178914263D101795139092922D2DFE8E5
:102AC00001F00522405FD1768CD1B90050F8051F86
:102AD000B1604068F060684900200831F3EE000AF8
:102AE00031F9102000EE102A04EB8002401CB8EEF1
:102AF000C00AC0B2032820EE080A20EE200A82EDA8
:102B00000A0AEDD3AEE050F8051F316140687061EC
:102B1000594900201031DFED5A0A00BF31F9102069
:102B200000EE102A04EB8002401CB8EEC00AC0B2CE
:102B3000032820EE080A20EE200A82ED0D0AEDD3CC
:102B400090E050F8051FB1614068F0614A490020EB
:102B500018319FED4C0A00BF31F9102000EE902A89
:102B600004EB8002401CF8EEE00AC0B2032860EEDD
:102B7000880A60EE800AC2ED040AEDD372E076E0C6
:102B800050F8051F3162406870623B4900202031D7
:102B900031F9102000EE102A04EB8002401CB8EE40
:102BA000C00AC0B2032882ED100AF1D35AE050F8EF
:102BB000051FB16200EE101A4068F062B8EEC00A5C
:102BC000DFED310A84ED130A00EE100AB8EEC00AF8
:102BD00080EE201A84ED141A44E050F8051F71634A
:102BE0004068B0632948244A91FBF0F130329FEDF0
:102BF000289B1768DFED288A97FBF0F100FB117026
:102C0000FDF7A9FC53EC192BFDF736FC00EE107A0A
:102C100041EC190BF8EEC00A80EEA80A10EE100A7B
:102C2000FDF7C9FC53EC192BFDF70DFBFDF7D6FCA6
:102C3000206617E050F8051FB1634068F0630E4945
:102C40000020383131F9102000EE102A04EB800208
:102C5000401CB8EEC00AC0B2042820EE080A82ED7B
:102C60001B0AEFD36D1CEDB20B2DFFF41BAFBDECB7
:102C7000048BBDE8F0810000300000200000003827
:102C80000000FA44000034430000C84280969800D7
:102C900000000000006AF8408096184B2DE9F041D2
:102CA000424C02282DED028B01D003286FD1404DFC
:102CB0004FF00006E88A00F0010100F00202D14264
:102CC00040F6C411C1F1000201D1268014E0374B57
:102CD000C707B3F9003006D00F331BB223808B42F5
:102CE0000ADD218008E0870706D50F3B1BB2238051
:102CF0005B42934200DA228000F0040300F00807F0
:102D0000FB4201D1668014E0284B4607B3F902303C
:102D100006D50F3B18B2608088420ADD618008E06A
:102D2000000706D50F3318B260804042904200DAA7
:102D30006280B5F90E00FDF70EFC9FED1E1B53ECF3
:102D4000112BFDF727FB41EC180BB4F90600FDF73A
:102D500002FC53EC182BFDF717FBFDF70DFCE08090
:102D6000B5F91000FDF7F7FB9FED141B53EC112B89
:102D7000FDF710FB41EC180BB4F90800FDF7EBFB75
:102D800053EC182BFDF700FBFDF7F6FB2081B4F99F
:102D900008004FF49451884203DC40F63C218842FD
:102DA00000DA2181BDEC028BBDE8F08146030020F2
:102DB0000C0300207B14AE47E17A943F0AD7A3703E
:102DC0003D0AB73F30B50C462DED028B89B0014668
:102DD00020704FF000006060A060A081E081608200
:102DE000E0822082207503900590019002909FED73
:102DF000210A15000490009006900790A1F10701A8
:102E0000089002D0012D08D010E0F2EE040A09B1BA
:102E100001290BD1CDED000A04E009B1012905D14A
:102E20008DED000A8DED010A8DED020A9FED128AEB
:102E300003AA2946F0EE480AB0EE480A04F1180049
:102E400000F096FBF0EE480AB0EE480A6A462946C2
:102E500004F1640000F08CFBF0EE480AB0EE480A82
:102E600006AA294604F1B00000F082FB09B0BDECCF
:102E7000028B30BD000000000000804610B5040049
:102E800029D02078401E05D0012803D0022801D087
:102E9000032820D1C0B201F093FD00886080207823
:102EA000401EC0B201F08CFD8088E0802078401E7A
:102EB000C0B201F085FD008960812078401EC0B25B
:102EC00001F07EFD4088A0802078401EC0B201F055
:102ED00077FD8079207210BD30B50C462DED028B48
:102EE00087B008704FF000016180E1806181A180AE
:102EF000217200919FED2F0A15000191029103911B
:102F00000491B2EE041AA0F10100059102D0012D46
:102F10001BD034E0DFED280AF2EE031A30B10128AD
:102F200004D0022805D0032829D10BE0CDED001AEA
:102F300005E0F3EE040ACDED000ADFED200ACDED49
:102F4000010A1AE08DED001AF9E730B1012809D025
:102F500002280ED0032812D10BE08DED001AF7EEF7
:102F6000000AECE7F3EE0E0ACDED000AF6EE000AD9
:102F7000E5E78DED000A8DED010A8DED020A9FED6A
:102F8000108A6A462946F0EE480AB0EE480A04F173
:102F90000C0000F0EDFAF0EE480AB0EE480A03AA81
:102FA000294604F1580000F0E3FA07B0BDEC028BAB
:102FB00030BD000000000000CDCCCC3DAE47E13D6F
:102FC00000008046002814D0D0ED101AC0ED111A70
:102FD00090ED0F1A80ED101AC0ED060A80ED070A79
:102FE00030EEC00A80ED0F0A017819B101294BD0EB
:102FF00000207047D0ED010A60EE801AC0ED091A7A
:10300000D0ED0A0A90ED022A42EE000A30EE410AA3
:10301000C0ED0A0A90ED0D2A80ED0E2A90ED0C2AE3
:1030200080ED0D2A80ED0C0A90ED031A21EE001AB6
:1030300080ED0B1A90ED050AF4EEC00AF1EE10FADD
:1030400009DCB1EE400AF4EEC00AF1EE10FA02D348
:1030500090ED0A0A01E080ED0A0A31EE800A30EEB6
:10306000010A3DE0F1EE600AB4EEE00AF1EE10FA7A
:1030700002D200BFC0ED080A90ED080ABDEEC00AFA
:1030800010EE100A00B2704770EE410A90ED012A6E
:1030900060EE820AC0ED090A90ED022A22EE002AB3
:1030A00080ED0A2AD0ED0D2A70EE820AC0ED0E2ABC
:1030B000D0ED0C2AC0ED0D2AF0EE002A01EE620AD6
:1030C00030EE210A80ED0C0A90ED031A21EE000A81
:1030D00080ED0B0A30EE800AD0ED080A30EE200AAF
:1030E00080ED080AD0ED040AB4EEE00AF1EE10FA21
:1030F000C0DCB7E7F0B50C002DED028B89B01546AA
:1031000001466DD02170637000206080E080608196
:10311000A080207200900190029003909FED328A6F
:103120009FED320A0490059006900790089035BBF9
:10313000DFED2F0A491E0ED0012920D19FED2D1A57
:103140008DED001A8DED018AB7EE081A8DED021A89
:103150008DED030A0DE09FED281A8DED001A9FED0D
:10316000271A8DED011A9FED261A8DED028A8DED3D
:10317000031A8DED048A8DED058AB0EE608ADFEDCD
:10318000218A04F10C0704F15806FE2B02D0FF2B14
:103190000AD019E0F0EE400A6A462946384600F0A7
:1031A000E7F9B0EE680A08E0F0EE400A6A46294600
:1031B000384600F0DDF99FED140A03AA2946F0EE27
:1031C000400A304600F0D4F9B0EE680A06AAF0EEE4
:1031D000400A294604F1A40000F0CAF984ED158ADA
:1031E00009B0BDEC028BF0BD000000000000AF4351
:1031F00000007042CDCCCC3D9A99193F89D2DE3A7D
:1032000000008743000080460050C3460F4810B5B9
:103210000D4901600321416000214FF410228160BB
:10322000C0E903124FF400124261017641768176C3
:10323000C17601774177FDF780FE002803D0BDE815
:103240001040FDF7E1BB10BD00640040BC00002051
:103250000F4810B50D4901600321416000214FF472
:1032600010228160C0E903124FF40012426101761E
:1032700041768176C17601774177FDF75EFE0028C1
:1032800003D0BDE81040FDF7BFBB10BD0068004093
:10329000E4000020114808B5016841F40011016004
:1032A000016801F400110091016841F4800101609E
:1032B0000068002200F48000009011460C20FEF708
:1032C000C3FA0C20FEF7B2FA002211463920FEF7AD
:1032D000BBFABDE808403920FEF7A8BA30380240F2
:1032E0001D4808B5016841F002010160016801F064
:1032F00002010091016841F040010160016801F0A4
:1033000040010091016841F001010160016801F094
:1033100001010091016841F008010160016801F0BC
:1033200008010091016841F004010160016801F0A9
:1033300004010091016841F080010160016801F021
:1033400080010091016841F010010160006800F007
:103350001000009008BD00003038024010B596B053
:1033600000240F9410941194129413941C21684615
:103370001494FCF75DFF202107A8FCF759FF34489F
:1033800032490160A721C0E9011440F2CF71C0E9C0
:10339000031444618461FEF7ABFD08B1FDF734FB13
:1033A0004FF480500F900FA92948FEF70AFE08B18C
:1033B000FDF72AFB2648FEF7B6FF08B1FDF724FB10
:1033C000139413A922481494FEF74AFD08B1FDF79F
:1033D0001BFB6020CDE9000402940394049405943F
:1033E000002269461A480694FEF735FF08B1FDF73A
:1033F0000BFB042269461648FEF72DFF08B1FDF7C6
:1034000003FB082269461248FEF725FF08B1FDF7C5
:10341000FBFA0C2269460E48FEF71DFF08B1FDF7C6
:10342000F3FA0794089409944FF400500A94CDE9F4
:103430000B4007A906480E94FEF7E8FC08B1FDF71B
:10344000E3FA0348FEF7DCFE16B010BD00000140B1
:103450000C01002010B586B0002416480094019499
:103460000294039404944FF0804105940160532129
:10347000C0E9011441F28731C0E903148461FEF709
:1034800037FD08B1FDF7C0FA4FF48050009069464F
:103490000848FEF796FD08B1FDF7B6FA049404A9B2
:1034A00004480594FEF7DCFC002801D0FDF7ACFAD7
:1034B00006B010BD4C0100200C4810B50A4901604F
:1034C0004FF4E1314160002181600C22C160C0E90C
:1034D00004128161C161FFF759F8002803D0BDE8EB
:1034E0001040FDF791BA10BD001001408C01002082
:1034F0000E4810B50C4901600D4941604FF48051F0
:10350000816000214FF48062C0E903120C22C0E9FF
:103510000521C161FFF73AF8002803D0BDE810404B
:10352000FDF772BA10BD000000480040CC01002039
:10353000A08601000C4810B50A4901604FF4E13142
:103540004160002181600C22C160C0E904128161E8
:10355000C161FFF71BF8002803D0BDE81040FDF75C
:1035600053BA10BD001401400C020020FEE7704762
:1035700000282AD0002A28D0017092ED001A80ED90
:10358000011A92ED011A80ED021A92ED021A80EDF5
:10359000031A80ED040A9FED0D0AC0ED050A80EDC7
:1035A0000E0A80ED0D0A80ED0C0A80ED080A80ED10
:1035B0000B0A80ED0A0A80ED090A80ED110A80ED00
:1035C000100A80ED0F0A80ED120A7047000000001B
:1035D0007047000070B5144C144A4FF00001A07DF4
:1035E000800608D51078401C1070C00702D001205A
:1035F000207600E021760E4D6089AB7A984201D0AA
:103600002176117000F078F8E18A0A484A0601D55F
:10361000032102E0090601D502210173007BFFF7B7
:103620003DFBA07AA87270BD0C030020AC00002006
:1036300038030020460300201B480188C1F30A021A
:10364000A0F11A010A804278D308827843EA421333
:10365000C3F30A034B80C378920942EA83030279D9
:1036600043EA8223C3F30A038B805308427943EA77
:10367000C213C3F30A03CB8093094B81C2F3011237
:103680008A81028AC2F30A020A81C288CA81028937
:103690000A8242894A82027B0A75427B4A75807B94
:1036A000C882FFF797BF00002603002038B51048F6
:1036B00000240068016841680091C16841F0100170
:1036C000C16012220B490A48FFF774F8094840F616
:1036D0004D511230048044808480C18084810E303A
:1036E000048044808480C48001813A38047638BDE7
:1036F000CC010020260300202DE9F0474E4C8046E7
:103700002DED048B9FED4D8BE088B4F808C0800050
:10371000A0F5805002B2A0882388658880004A4CBA
:10372000A0F5805001B2DFF81C91B4F90660ACF549
:103730008060A5F58065B8F1010F1ED09FED439B19
:103740002746B8F1020FB7F9087056D0B8F1030F49
:1037500022D0002189F80110FFF7A8FFB4F9060074
:103760004FF49451884203DC40F63C21884200DA51
:10377000E180BDEC048BBDE8F0874FF0010C89F8C7
:1037800001C02280C0EB803061808000A3F5985397
:10379000A080FC3B58421BE04FF0030C89F801C0AD
:1037A00022806180FCF7D7FE53EC192BFCF7F2FD69
:1037B0009FED281B53EC112BFCF7ECFD41EC190B92
:1037C0003846FCF7C8FE53EC192BFCF73CFD30E003
:1037D00020812846FCF7BFFE53EC182BFCF7DAFDDE
:1037E00041EC180B3046FCF7B6FE53EC182BFCF7F7
:1037F0002AFDFCF7C1FEE080B0E74FF0020889F82F
:10380000018022804FEA8C006180A0F58050A0806A
:10381000A3F58060FCF79FFE53EC192BFCF7BAFD73
:1038200041EC190B3846FCF796FE53EC192BFCF7CC
:10383000ABFDFCF7A1FECBE70C0300209A99999908
:103840009999B93FAC000020380300207B14AE47A3
:10385000E17A843F000000000000E03F01490020C1
:1038600048707047AC0000207047000010B500F0B1
:103870002BF813494FF4916040F2CF7208804A80D0
:10388000091D08804A800A1D40F24C40108040F219
:10389000C9715180121D10805180002209490720F2
:1038A000FFF790FA07490022FC390820FFF78AFA4F
:1038B0000348002110300160491E416010BD000026
:1038C00094000020200A002010B50F48FEF756FB98
:1038D00000210D48FEF744FD04210B48FEF740FD92
:1038E00008210948FEF73CFD0C210748FEF738FD8A
:1038F000054840F2F2310268516302689163026840
:10390000D1630068016410BD0C010020FDF734BFD5
:1039100030B593B030216846FCF78AFC14210CA81E
:10392000FCF786FC19480025016841F080510160D0
:10393000006800F0805011901548016841F4804102
:1039400001600068022400F480401190012003907F
:1039500010200490009406940820CDE90750A82078
:10396000CDE9090404200B906846FEF78BF80CA9FA
:103970000F2081E831004FF4A0500F90E00210902A
:1039800005210CA8FDF792FF13B030BD403802406E
:10399000007000400548016841F47001016003496E
:1039A0004FF00060803908607047000088ED00E04B
:1039B0000148FEF772BB00004C010020F0B5026820
:1039C000254C264D264E274F274B4FF0804CA042CA
:1039D00009D0604507D0A84205D0B04203D0B84214
:1039E00001D0984204D122F0700E4A6842EA0E02D9
:1039F000A0421BD0604519D0A84217D0B04215D0C4
:103A0000B84213D0984211D0184DA8420ED0184D8C
:103A1000A8420BD0174DA84208D0174DA84205D098
:103A2000164DA84202D0164DA84203D122F440758B
:103A3000CA682A434D6922F080022A4302608A68DC
:103A4000C2620A688262A04201D0984201D109692B
:103A5000016301214161F0BD00000140000400400C
:103A600000080040000C00400004014000400140FC
:103A7000004401400048014000180040001C004084
:103A80000020004010B501F01F030121046A994095
:103A90008C430462016A9A401143016210BD10B563
:103AA000846842EA032224F47F440A43224382606A
:103AB00010BD826822F070020A4342F00701816063
:103AC00070470000F0B5026A22F001020262036A48
:103AD00042688469124E24F073050C682C4323F06D
:103AE00002058B682B430D4DA84201D0B04205D191
:103AF00023F00807CB683B4323F00403A84201D01E
:103B0000B04205D14D6922F4407215438A692A43B7
:103B100042608461496841630362F0BD0000014076
:103B200000040140F0B5026A22F010020262026A4B
:103B3000436884690D6824F4E64444EA05248D68EA
:103B400022F0200242EA05120F4D104EA84201D089
:103B5000B04206D1CF6822F0800242EA071222F07A
:103B60004002A84201D0B04207D14D6923F440631E
:103B700043EA85038D6943EA8503436084614968AC
:103B800081630262F0BD00000000014000040140BA
:103B9000F0B5026A22F480720262026A4368C46964
:103BA00022F4007224F073050C68124E2C438D68C9
:103BB00042EA05220E4DA84201D0B04206D1CF689C
:103BC00022F4006242EA072222F48062A84201D075
:103BD000B04207D14D6923F4405343EA05138D6980
:103BE00043EA05134360C4614968C1630262F0BDE2
:103BF000000001400004014030B5026A22F4805206
:103C00000262046A4268C3690D6823F4E64343EA2A
:103C100005238D6824F4005444EA0534084DA84275
:103C200002D0084DA84204D14D6922F4804242EAF4
:103C300085124260C36149680164046230BD0000BE
:103C4000000001400004014010B5036A046A24F03A
:103C500001040462846924F0F00444EA021423F0AD
:103C60000A020A438461026210BD10B5036A23F0A0
:103C7000100303628369046A23F4704343EA023247
:103C800024F0A00343EA01118261016210BD10B566
:103C9000806B0021C185C184FEF7EDFB10BD70B5BE
:103CA000846B2068406994F83910C0F3C010002577
:103CB000212904D118B1E584204600F046F8206897
:103CC000406994F83A10C0F38010222904D118B149
:103CD000E585204600F02BF8E06B40F01000E06333
:103CE0002046FEF7C8FB70BD10B50146806B096821
:103CF0000968C90513D40021C1850168CA6822F486
:103D00008072CA6001684A6922F001024A61016852
:103D10004A6922F040024A61202180F83A10FEF7F9
:103D200095FD10BD10B5806BFEF791FD10BD0168CB
:103D3000CA6822F49072CA6001684A6922F00102DE
:103D40004A61202180F83A1070470168CA6822F061
:103D5000C002CA60202180F83910704710B590F871
:103D60003A10222901D0022010BD8168B1F5805F90
:103D700011D00169002901681FD0496801F07F0353
:103D8000816A4A1C82620B70C18D491E0904090CAC
:103D9000C18518D02BE00269816A002A0268526846
:103DA00005D0D2B20A80816A491C8162ECE7C2F375
:103DB00008020A80816A891CF7E74A68816A4B1CFD
:103DC00083620A70E0E70168CA6822F02002CA60D4
:103DD0000168CA6822F48072CA6001684A6922F0E8
:103DE00001024A61202180F83A10FEF72FFD0020E1
:103DF00010BD00002DE9F041044600680169E26849
:103E000021F44051114301612169A068E26908432E
:103E10006169114308432168CA6849F20C639A43F7
:103E20000243CA6020684169A26921F440711143CC
:103E30004161E069192764253226B0F5004F354A03
:103E4000354920684FF0000806D0884201D09042E2
:103E500036D1FDF7D5FD35E0884201D0904202D140
:103E6000FDF7CEFD01E0FDF7BBFD61684A18A0FB40
:103E7000070148EB0803FCF7A3F90146B0FBF5F096
:103E80000201B1FBF5F06FF01803584301EB80001D
:103E900006EBC000B0FBF5F000F0F80002EB4002CA
:103EA000B1FBF5F0584301EB800006EBC000B0FB1E
:103EB000F5F000F00700216810448860BDE8F0814B
:103EC000FDF78EFD61688B0F8A00A0FB0701FCF7F0
:103ED00077F90146B0FBF5F06FF01802504301EBA3
:103EE000800006EB0010B0FBF5F000F0F002B1FB33
:103EF000F5F002EB0012B1FBF5F06FF01803584338
:103F000001EB800006EB0010B0FBF5F000F00F00B5
:103F1000D1E70000001401400010014090F8391072
:103F2000212901D0022070478168B1F5805F016AC4
:103F30000BD04A1C0262026809785160C18C491E8C
:103F40000904090CC1840ED017E009880268C1F386
:103F50000801516001690029016A02D0491C01620F
:103F6000ECE7891CFBE70168CA6822F08002CA609E
:103F70000068C16841F04001C160002070472DE930
:103F8000F041984617460E460446069D1DE0681C03
:103F90001BD02DB1FDF7EAFBA0EB0800A84214D915
:103FA0002068C16821F4D071C1602068416921F0A6
:103FB00001014161202084F8390084F83A00002092
:103FC00084F838000320BDE8F0812068006836EAF4
:103FD000000004D00020B842D9D00020F3E701202F
:103FE000F9E700000148FEF747BA00008C01002005
:103FF00010B50348FEF740FABDE81040FEF7B0BC2C
:10400000CC01002010B50348FEF736FABDE8104099
:10401000FEF77EBC0C020020FEE700280CD0002139
:104020000A464318491C89B2DA700B29F9D3552185
:10403000817002700B214170704700000FB4054B76
:1040400010B503A9044A029800F0EAF810BC5DF824
:1040500014FB0000A9490008B80000200907090E58
:10406000002804DB00F1E02080F80014704700F025
:104070000F0000F1E02080F8141D704702E008C82E
:10408000121F08C1002AFAD170477047002001E0D2
:1040900001C1121F002AFBD1704700002DE9FF5F0C
:1040A00082B00021DDE90430020DDDF840B00343A9
:1040B00018D044F61050A2F2FF3242431514119862
:1040C00001281FD0A5EB0B00401C5FEA000A4FF04F
:1040D00000064E4FDFF83891B046504615D5CAF16C
:1040E000000413E0119801244AA3012801D16FEACA
:1040F0000B010298119AC0E90031C0E9024206B0F2
:10410000BDE8F09FCBF10000DFE704460021404A04
:10411000491842EB0450CDE9001012E0E00707D047
:1041200032463B4640464946FCF734F980468946CC
:1041300032463B4610461946FCF72CF906460F4618
:104140006410002CEAD1DDE90401DDE90023BAF1B5
:10415000000F06DAFCF71EF942464B46FCF71AF947
:1041600005E0FCF789F942464B46FCF785F9044621
:104170000E460022284BFCF741FB03D84FF0FF30DE
:10418000014607E00022254B20463146FCF75BF84C
:10419000FCF71BFB102409E0002C0ADB0A22002399
:1041A000FCF70EF8039B30321A55641E50EA0102E8
:1041B000F2D1641C039AC4F111031444119A012A28
:1041C00003D0012208430DD10AE0084304D00020A7
:1041D0004FF0110B119072E7A3EB0B056D1E0DE074
:1041E0005B4504DD4FF0000205F1010504E003DA50
:1041F0004FF00002A5F10105002AECD002981199B8
:10420000C0E90231C0E9004579E700000000144030
:104210000000F03F300000000000F0430000E03FED
:104220002DE9FF4F95B09B468946064600250FE2D3
:10423000252877D100242746F84A0121059400E07B
:10424000044316F8013F203B01FA03F01042F7D176
:1042500030782A2811D06FF02F033078A0F1300287
:10426000092A16D8059A44F0020402EB820203EBF5
:1042700042021044761C0590EFE759F8042B059292
:10428000002A03DA504244F40054059044F002043A
:10429000761C30782E2816D116F8010F44F004044D
:1042A0002A280DD06FF02F023078A0F13003092BAF
:1042B00009D807EB870302EB4303C718761CF3E723
:1042C00059F8047B761C30786C280FD006DC4C281B
:1042D00017D068280DD06A2814D104E0742810D0B3
:1042E0007A280FD10DE044F400140AE044F480145D
:1042F00001E044F440147278824202D104F5801443
:10430000761C761C307866280BD013DC582877D0C2
:1043100009DC002875D04528F6D04628F4D0472877
:104320001AD19DE118E0632835D0642879D065283A
:1043300012D195E1702873D008DC6728F1D0692884
:104340006FD06E280DD06F2806D1B5E073282CD021
:10435000752875D0782874D05A46179990476D1CE7
:1043600075E1C4F30250022809D003280DD0D9F812
:10437000001004280DD00D6009F1040967E1D9F897
:104380000010EA17C1E90052F6E7D9F800100D80D5
:10439000F2E70D70F0E719F8041B8DF8001000200B
:1043A0008DF80100EA46012003E059F804AB4FF014
:1043B000FF3061074FF0000102D40DE008F1010168
:1043C0008846B9420FDA8045F8DB1AF80810002950
:1043D000F4D108E008F1010188468142FADB1AF8BD
:1043E00008100029F6D105985B46A0EB0807214686
:1043F0003846179A00F094FA284400EB080507E0C5
:104400004DE029E10DE01AF8010B5A461799904743
:10441000B8F10108F7D25B4621463846179A13E1F6
:1044200042E00A220092C4F302524FF0000A022A2C
:1044300008D059F804CB032A4FEAEC710AD00DE0FA
:1044400029E02AE009F1070121F00702F2E802C1A0
:10445000914609E00FFA8CFC4FEAEC71042A03D173
:104460004FFA8CFC4FEAEC71002907DA0A4600216A
:10447000DCF1000C61EB02012D2202E0220504D5E3
:104480002B228DF80420012203E0E20701D0202234
:10449000F7E7904659E00A2102E010220DE01021D2
:1044A0004FF0000A00910BE010224FF0000A44F098
:1044B00004040827009203E008224FF0000A00924B
:1044C000C4F30252022A05D059F804CB0021032A72
:1044D00008D009E009F1070121F00702F2E802C162
:1044E000914605E01FFA8CFC042A01D10CF0FF0C68
:1044F0004FF00008220728D5702806D0009B83F0D3
:10450000100353EA0A0305D00EE040228DF8042080
:10451000012208E05CEA010206D030228DF8042076
:104520008DF8050002229046009B83F0080353EAB1
:104530000A030AD15CEA010201D1620705D53022E3
:104540008DF804204FF001087F1E582804D034A0B5
:1045500003900EA802900DE036A0F9E7534660469E
:10456000009AFBF72DFE84460398825C0298401E59
:10457000029002705CEA0100F0D1029806A9081AC4
:1045800000F1200A600702D524F4803400E00127FE
:10459000574502DDA7EB0A0000E0002000EB0A010E
:1045A000009005984144401A0590E00306D45B460C
:1045B0002146179A059800F0B3F90544002706E054
:1045C00001A85A46C05D179990476D1C7F1C47454E
:1045D000F6DBE0030CD55B462146179A059800F000
:1045E0009FF9054404E030205A46179990476D1C06
:1045F0000099481E00900029F5DC08E00298029915
:104600005A460078491C0291179990476D1CBAF1DF
:104610000001AAF1010AF1DC65E1000009280100AE
:104620003031323334353637383961626364656628
:1046300000000000303132333435363738394142EA
:10464000434445460000000000F058F90544761C3C
:10465000307800287FF4ECAD19B02846BDE8F08F23
:10466000620700D4062709F1070222F0070CFCE8D4
:104670000223E14603F000485FEA080C02D00FF283
:10468000702C0DE05FEA045C02D50FF2682C07E0A5
:104690005FEAC47C02D00FF2602C01E0AFF2700C34
:1046A0004FF0FF3823F00043CDF850C065280CD000
:1046B00006DC452809D046281DD047283DD13DE0DD
:1046C000662818D067287ED138E00021112F01DB41
:1046D000112000E0781CCDE9000106A90EA8FFF723
:1046E000DDFCDDE90F010E9A03910021009207F134
:1046F000010A04914DE04FF000400097CDE9011010
:1047000006A90EA8FFF7CAFCDDE90F0203920E9B73
:1047100011990022DDF80CA00093049211B9791CC4
:1047200000EB010AB7EB0A0004D4C0F1FF3007F137
:10473000010A0490AAEB0700019044E0012F00DA7F
:1047400001270021112F01DD112000E03846CDE9BD
:10475000000106A90EA8FFF7A1FCDDE90F010E9AE2
:104760000391002104910092BA4621070CD40399C9
:10477000514500DA8A46BAF1010F05DD009AAAF127
:104780000101515C302908D0B84202DA10F1040F5F
:1047900006DA0121CDE9011015E0AAF10101E9E7EE
:1047A000002805DC049901440491AAEB000102E011
:1047B000411C514500DD8A460499401A401C019075
:1047C0004FF000400290200704D40198504501DBCF
:1047D000CDF8048000208DF84F0002980DF14F07AE
:1047E000B0F1004F25D02B200E9002984FF0020818
:1047F00000280CDA404202902D200E9007E00A219A
:104800000298FBF707FF3031029007F8011DB8F15D
:104810000001A8F10108F2DC02980028EFD1791E0E
:104820000E980870307800F0200040F0450007F83E
:10483000020D12A8C01B00F107081498007800B1FF
:10484000012000EB0A01019801EBE0710598414459
:10485000401A401E0590E00306D45B462146179A95
:10486000059800F05DF805441498007818B15A4690
:10487000179990476D1CE00324D55B462146179A93
:10488000059800F04DF805441CE00498002807DB6B
:10489000DDE90301884203DD0098405C179901E0DF
:1048A000179930205A469047049805F10105401C9D
:1048B00004900198401E019004D12E205A46179969
:1048C00090476D1CBAF10001AAF1010ADDDC05E098
:1048D00017F8010B5A46179990476D1CB8F1000163
:1048E000A8F10108F4DC5B462146179A0598ABE66F
:1048F0002D0000002B000000200000002DE9F041F9
:10490000044600251E461746880404D405E03946AF
:104910002020B0476D1C641EF9D52846BDE8F08103
:104920002DE9F041044600251E469046C80301D5F6
:10493000302700E02027880404D505E041463846AA
:10494000B0476D1C641EF9D52846BDE8F081000013
:1049500000B58BB000200121CDE90601089100903F
:104960000190029003900590049069460C48FCF772
:10497000EBF80B48FCF720FC02210948FCF76EF825
:104980000E200990059069460648FCF7DDF80548B9
:10499000FCF712FC02210348FCF760F80BB000BDE5
:1049A000BC000020E400002013B54FF6FF73012285
:1049B00069460248FDF74CFF00981CBD8C010020A1
:1049C00000F00300024900EB800001EB400070475B
:1049D00054030020FCF7D8FEFEF79AFFFEF780FC98
:1049E000FEF758FCFEF7BAFCFEF734FDFEF70EFCAE
:1049F000FEF72EFCFEF760FDFEF77AFDFEF79AFD4E
:104A0000FEF728F8FFF7A4FF0748FDF7C9FAFEF7FD
:104A10004DFEFBF74FFFFBF7F9FFFEF727FFFEF711
:104A20001DFFFBF7E9FFFEE74C0100200006101612
:104A30000006101600000000000000000102030440
:104A40000607080900000000010203040000C03F3F
:104A50000000000000000000784A0008000000206C
:104A6000BC0000007C400008344B0008BC00002063
:104A7000640E00008C4000080000000000000000F0
:104A80000000000001000000100000000000000015
:104A90000024F400000000000000000000000000FE
:104AA0000000000000000000000000000000000006
:104AB00000000000000000000000000000000000F6
:104AC00000000000000000000000000000000000E6
:104AD00000000000000000000000000000000000D6
:104AE00000000000000000000000000000000000C6
:104AF00000000000000000000000000000000000B6
:104B000000000000000000000000000000000000A5
:104B10000000000000000000000000000000000095
:104B20000000000000000000000000000000000085
:044B30000000000081
:040000050800018965
:00000001FF
