:020000040800F2
:10000000E81100209D01000837340008452B000846
:10001000353400084D080008F13C000800000000DD
:100020000000000000000000000000008936000809
:10003000210B00080000000099340008AD360008CC
:10004000B7010008B7010008B7010008B7010008B0
:10005000B7010008B7010008B7010008B7010008A0
:10006000B7010008B7010008B7010008B701000890
:10007000650A0008B7010008B7010008B7010008C9
:10008000B7010008B7010008B7010008B701000870
:1000900051080008B7010008B7010008B7010008BF
:1000A000B7010008B7010008B7010008B701000850
:1000B00051370008B7010008B7010008B701000870
:1000C000B7010008B7010008B7010008B701000830
:1000D000B7010008B7010008B7010008C93C0008D3
:1000E000B7010008B7010008B7010008B701000810
:1000F000B7010008B7010008B7010008B701000800
:10010000B7010008B7010008B7010008B7010008EF
:10011000B7010008B7010008B7010008B7010008DF
:10012000B7010008710A0008B7010008B70100080C
:10013000B7010008B7010008B7010008B7010008BF
:100140005D080008B7010008B7010008B701000802
:10015000B7010008B7010008B7010008DD3C00083E
:10016000B7010008B7010008B7010008B70100088F
:10017000B7010008B7010008B7010008000000003F
:10018000B7010008B7010008DFF80CD000F008FB49
:1001900000480047F53D0008E81100200648804768
:1001A00006480047FEE7FEE7FEE7FEE7FEE7FEE75C
:1001B000FEE7FEE7FEE7FEE73537000889010008A5
:1001C0002DE9F05F0546002092469B46884606468C
:1001D000814640241BE0284641464746224600F01F
:1001E00028FA53465A46C01A914110D31146184670
:1001F000224600F00FFA2D1A67EB01084F462246FF
:100200000120002100F006FA17EB00094E41201EE4
:10021000A4F10104DFDC484631462A464346BDE8E6
:10022000F09FD2B201E000F8012B491EFBD27047CB
:100230000022F6E710B513460A4604461946FFF7B2
:10024000F0FF204610BD2DE9FE4F804681EA0300F5
:10025000C00F0C46009021F0004123F00045B8EBA0
:100260000200A94105D24046214690461C460B4655
:10027000024623F00040104347D0270DC7F30A0081
:10028000C3F30A510290401A019040286BDAC3F37D
:10029000130040F4801B0098924620B10023D2EB5B
:1002A000030A63EB0B0B01985946C0F1400250461C
:1002B00000F0B0F906460D4650465946019A00F046
:1002C000C8F910EB08006141002487EA115284EA62
:1002D000E7731A4340D0009A62B3019A012A4FEAA9
:1002E000075215DC001B61EB02014FF0004202EAED
:1002F0000752CDE90042001C41F5801132462B46E1
:1003000000F0FFF903B0BDE8F08F40462146F9E761
:10031000001B61EB0201001C41F5801300185B41DA
:100320002018A2F5001747EB030140EAD570B61973
:100330006D4111E06D084FEA360645EAC0754FEA97
:100340000752001B61EB0201001C41F580114908B6
:100350004FEA30000019514132462B4603B0BDE848
:10036000F04F00F0BFB90098012240000023D0EB0D
:10037000020263EBE073009821464FEAE074B8EBA9
:10038000000061EB0401E9E783F000435BE781F0E3
:10039000004158E72DE9FE4F81EA030404F00044D0
:1003A00021F0004100944FF0000B23F0004350EA8D
:1003B00001045ED052EA03045BD0C3F30A54C1F3D4
:1003C0000A552C44A4F2F3340194A0FB0254C1F367
:1003D000130141F48011C3F3130343F4801301FBB1
:1003E000024400FB034E840A970A44EA815447EA18
:1003F0008357A4FB076802958D0A05FB07854FEA22
:10040000932C04FB0C542705029D4FEA065847EA3B
:100410001637B5EB08056EEB070C870E920E47EA10
:10042000811742EA8312A7FB0201B6EB0B0164EBD2
:1004300000042B0D43EA0C335E1844EB1C50DA46E3
:100440005146E7FB0201C5F313044FEA0B3343EABD
:1004500014534FEA0432019C43EA0603A4F10C044E
:100460000294009CCDE900B400F04BF903B0BDE864
:10047000F08F00200146F9E72DE9F04D81EA0304F1
:1004800004F0004B21F0004514464FF0000A23F021
:10049000004150EA050220D054EA01021DD0C5F304
:1004A0000A570246C5F31303C1F31300C1F30A56FA
:1004B00040F4801543F48013A7EB0608101BD646C2
:1004C00008F2FD3873EB050002D308F1010801E0E2
:1004D00092185B41B8F1000F03DA00200146BDE835
:1004E000F08D00204FF48011064684460EE0171B65
:1004F00073EB050705D3121B63EB050306434CEAB8
:10050000010C49084FEA300092185B4150EA01079C
:10051000EDD152EA030012D082EA040083EA050119
:10052000084305D0101BAB4106D20122002306E090
:1005300000224FF0004302E06FF0010253101AEB6B
:1005400006004CEB085110EB0A0041EB0B01BDE833
:10055000F04D00F0C7B80EB5C10F80EAE070084456
:10056000CA07002140F233438DE80E000A460B46CD
:1005700000F0C7F803B000BD70B5C1F30A5201F036
:1005800000450024C1F3130140F2FF3341F4801110
:100590009A4201DA002070BD40F233439A42A2F23F
:1005A000334203DC524200F044F800E090402C4318
:1005B000F1D0404270BD00F0004230F000400AD05F
:1005C000C10D01F56071C0F3160042EA0151C20885
:1005D00040071143704700200146704701F0004377
:1005E00030B421F0004150EA010206D00A0DA2F514
:1005F0006072C1F31301002A02DC30BC0020704796
:10060000440F44EAC104C100E01830BC00EBC25002
:1006100000F031B8202A04DB203A00FA02F1002071
:1006200070479140C2F1200320FA03F31943904030
:100630007047202A04DB203A21FA02F0002170479B
:1006400021FA02F3D040C2F120029140084319463A
:100650007047202A06DBCB17203A41FA02F043EA22
:10066000E07306E041FA02F3D040C2F1200291406B
:100670000843194670470029A8BF7047401C49002D
:1006800008BF20F00100704710B4B0FA80FC00FAF7
:100690000CF050EA010404BF10BC704749B1CCF122
:1006A000200421FA04F411FA0CF118BF01212143AE
:1006B0000843A3EB0C01CB1D4FEA00614FEA102069
:1006C00042BF002010BC704700EBC350104400290B
:1006D000A4BF10BC7047401C490008BF20F00100B7
:1006E00010BC704710B5141E73F1000408DA401CEA
:1006F00041F1000192185B411A4301D120F0010041
:1007000010BD2DE9F04D92469B4611B1B1FA81F230
:1007100002E0B0FA80F220329046FFF77BFF0446F9
:100720000F4640EA0A0041EA0B0153465A46084385
:1007300013D0114653EA010019D0C8F140025046C7
:10074000FFF777FF05460E46504659464246FFF7EB
:1007500061FF084305D0012004E020463946BDE88A
:10076000F08D0020054346EAE0762C4337430A9893
:100770006305E40AA0EB08000022FD0A44EA47549E
:100780000A3002D500200146E9E701051019694148
:10079000DDE9084500196941BDE8F04DA2E7000018
:1007A000064C074D06E0E06840F0010394E80700BE
:1007B00098471034AC42F6D3FFF7EAFC0C4200082D
:1007C0002C42000810B50C4B0C4C4FF4804138B152
:1007D000012810D10122184601F032F9012204E06B
:1007E0000022184601F02CF900222046BDE81040F6
:1007F000402101F025B910BD001002400008024060
:1008000008B50F4B002200F5A070C3E90002DA60C2
:1008100008209A6018610B48A72303704270827009
:10082000C27001710A0A42710A0C8271090EC1710B
:1008300002466B460249044800F06EFA08BD00000B
:100840005803002021000020A8000020FEE700003F
:10085000014800F0C0BB000080000020014800F00B
:10086000BABB0000A800002038B50E4C4FF400754C
:1008700025600025A560E560082525610A4C050A6C
:1008800025706070080AA070E170100A2071627112
:10089000180AA071E3716B4622460249034800F032
:1008A0003BFA38BD0C030020190000208000002016
:1008B00038B50E4C40F2FF1525600025A560E560B7
:1008C000082525610A4C050A25706070080AA07089
:1008D000E170100A20716271180AA071E3716B4611
:1008E00022460249034800F017FA38BDF4020020FE
:1008F00011000020A80000200EB500221849012098
:1009000002F0E2FA00221749022002F0DDFA00228A
:100910001549032002F0D8FA00221449042002F0FD
:10092000D3FA134800219FED130A01804180818092
:1009300080ED040A80ED050A80ED020A80ED030ACD
:100940000D4A9FED0E0A07CA8DE807000848F0EE31
:10095000400A6A460021183002F06EFD0EBD00000C
:10096000F0030020F8040020000600200807002003
:100970001008002000000000F841000800409C45DD
:100980002DE9F04107461C4615460E46314802F057
:100990004BFA314802F048FA304802F045FA304844
:1009A00002F042FAB919BA1B05FB041005FB042337
:1009B00005FB142205FB14110CB2264900B200EE0F
:1009C000900AB1F90410234800EE101A1EB217B2B3
:1009D000B8EEC00AF8EEE00A0C3002F0F3FA054671
:1009E0001D48B0F9040000EE100A784200EE900AAB
:1009F0001948B8EEC00AF8EEE00A0C3002F0E2FA4C
:100A000007461648B0F9040000EE100A604200EEF6
:100A1000900A1248B8EEC00AF8EEE00A0C3002F074
:100A2000D1FA04460E4800EE906AB0F90400F8EEE0
:100A3000E00A00EE100A0A48B8EEC00A0C3002F0D4
:100A4000C1FA0346224639462846BDE8F041FFF781
:100A50000BBF0000F0030020F80400200006002077
:100A600008070020014800F081BD0000E4010020DB
:100A7000014800F07BBD00004402002001681823FB
:100A8000CAB2103AB2FBF3F2054B6FF30901032A25
:100A90009B5CC36500D9091D81650846704700004D
:100AA0000442000810B5014600208B698A6A4FF0A5
:100AB000C07453B1B3F5005F15D072B1012A0CD0E8
:100AC000022A0AD0032A09D104E01AB1012A06D069
:100AD000022A03D1C96AC90100D5012010BDC96A23
:100AE000A142FAD010BD002AF7D0012AF2D0022A82
:100AF000F3D0032AF3D010BD30B50468256825F47F
:100B000080252560046863608368402B036803D0F8
:100B100099600068C26030BD9A600068C16030BDF5
:100B20007047000070B51D4C00202DED048B012591
:100B3000F0EE418A20849FED1A8A658484ED098A4B
:100B400084ED0A0A84ED0B8ADFED169A84ED0C8A97
:100B5000B0EE609AC4ED0D9A04F14001204602F017
:100B600077FD2584658484ED098A84ED0A9A84EDF5
:100B70000B8A84ED0C8A04F1C001C4ED0D9AA1F139
:100B8000400002F065FDBDEEE80ABDEC048B0120DB
:100B900010EE101ABDE87040FFF732BEE80C0020DE
:100BA00000000000CDCC4C3D704700000EB5002287
:100BB0001049052002F088F900220F49062002F0B2
:100BC00083F900220D49072002F07EF900220C492A
:100BD000082002F079F900209FED0A0A00900190A8
:100BE00001460290F0EE400A6A46074802F024FCF3
:100BF0000EBD00007808002080090020880A00202F
:100C0000900B002000008046980C00202DE9F04752
:100C100005460C46314802F007F9314802F004F964
:100C2000304802F001F9304802F0FEF82B4E00EE99
:100C3000905AB6F90400F8EEE00A00EE100A06F148
:100C40000C00B8EEC00A02F0BDF9254F814600EE57
:100C5000905AB7F9040000EE100AF8EEE00A06F523
:100C60008A70B8EEC00A02F0ADF980461D4800EE69
:100C7000904AB0F90400F8EEE00A00EE100A06F51A
:100C80000770B8EEC00A02F09DF90546164800EE5E
:100C9000904AB0F90400F8EEE00A00EE100A06F5FA
:100CA0004970B8EEC00A02F08DF90446B088B988E0
:100CB000DFED0F0A084400B20C4900EE100A08806C
:100CC000B8EEC00A06F5846002F0E3F923462A462E
:100CD00041464846BDE8F047FFF7EABD78080020E6
:100CE00080090020880A0020900B0020700000205E
:100CF0000000000090F82020012A07D0022A05D029
:100D0000416A41F4802141620120704700684269D4
:100D10000A43426100207047F0B590F82050046803
:100D2000A468012D05D0022D03D0416A41F4802131
:100D300053E014F0406F01D1E5004BD5C4F30164DA
:100D4000022C03D9416A41F4000146E00125A54087
:100D50001D608D684FF4C0739DB1CE6835434E68F9
:100D600045EAC605066803EB0417F5514FF4C27552
:100D7000076805EB04150E697E51097D012905D030
:100D800009E00E88CD6845EA4655EBE701684E5903
:100D900046F480764E511179D2F805504FF4C6765C
:100DA00041EA0525016806EB04168D511178D2F849
:100DB00001204FF4C47541EA0221026805EB0415D5
:100DC0005151006803EB0411425842F001024250B5
:100DD0000020F0BD416A41F4001141620120F0BDE4
:100DE00010B590F82020012A07D0022A05D0416AC8
:100DF00041F480214162012010BD3B48D0F800221F
:100E000042F00102C0F80022D0F8002222F47C5205
:100E1000C0F80022D0F800224B6A42EA0322C0F850
:100E200000220A7D02F01F0301229A40D0F81C32F2
:100E30009343C0F81C32CB69B3B9D0F80C3293435A
:100E4000C0F80C328C894B6864F31F434C6900EB8B
:100E5000C404C4F840320C890B6864F31F434C6926
:100E600000EBC404C4F84432CB69012B16D1D0F88E
:100E70000C321343C0F80C320C884B6864F31F43E8
:100E80004C6900EBC404C4F840320C89CB6864F3AD
:100E90001F434C6900EBC404C4F844328B69002B37
:100EA000D0F804320ED01343C0F804320B69002B83
:100EB000D0F8143208D01343C0F81432096A01295B
:100EC00004D008E09343EFE79343F5E7D0F81C1212
:100ED0001143C0F81C12D0F8001221F00101C0F833
:100EE0000012002010BD000000640040704730B5C3
:100EF00090F82040012C05D0022C03D0416A41F427
:100F000080215DE00468002955D02469A40754D0ED
:100F10004FF4D874056804EB01142D5915F004053D
:100F2000956005682D594ED0ED08556005682C591F
:100F300004F00204D4604FF4DA74056804EB011481
:100F40002D5905F00F05156105682D59C5F30725C5
:100F5000956105682C59240C54614FF4DC720468C7
:100F600002EB0112A4581C700468A458240A5C7097
:100F70000468A458240C9C700468A258120EDA70FD
:100F80004FF4DE72046802EB0112A4581C7104686D
:100F9000A458240A5C710468A458240C9C71046849
:100FA000A258120EDA71006881B1016941F0200186
:100FB0000161002030BDE468A8E7416A41F40011F6
:100FC0004162012030BD6D0D1560AFE7C16841F091
:100FD0002001C160EDE72DE9F05F054600680024BF
:100FE0004669D0F804908768D0F80CB0D0F810A00B
:100FF000D0F81880F10748D0F90714D0012181609A
:10100000B80703D5284600F050FA0CE0780702D55F
:101010004FF4006407E0380702D54FF4805402E033
:10102000284600F041FAF80516D529684FF480707B
:101030008860B80503D5284600F039FA0CE0780539
:1010400002D544F4005407E0380502D544F4804446
:1010500002E0284600F02AFAF80316D529684FF472
:1010600080308860B80303D5284600F022FA0CE0EF
:10107000780302D544F4004407E0380302D544F471
:10108000803402E0284600F013FA300707D55FEA03
:10109000CB6004D52968102044F40074C860700740
:1010A0004FF0080707D55FEA0B7004D52868C760C2
:1010B000284600F099F9B00706D52868C06880076F
:1010C00002D0284600F092F9700607D55FEACA60A0
:1010D00004D52968102044F480640861B00607D55F
:1010E0005FEA0A7004D528680761284600F0ACF969
:1010F000F00606D528680069800702D0284600F06F
:10110000A4F9B00308D55FEAC96005D529681020A5
:101110004860284600F09AF9F00307D55FEA0970A5
:1011200004D528684760284600F0C4F9300446D545
:101130005FEA497040D5F00504D55FEAC87001D078
:1011400044F00104B00504D55FEA887001D544F08D
:101150000204700504D55FEA487001D544F0040428
:10116000300529D518F0700F26D008F070004028FF
:1011700015D006DC102809D020280AD0302816D136
:101180000AE050280ED0602811D10EE044F0080487
:101190000DE044F010040AE044F0200407E044F0BD
:1011A000400404E044F0800401E044F480742868C2
:1011B000816921F070018161296804204860002C58
:1011C00005D0686A204368622846FFF78FFEBDE8B5
:1011D000F09F70B5040003D094F8200010B104E033
:1011E000012070BD204600F081F82068016841F0C0
:1011F0000101016000F02AFC0546052604E000F02C
:1012000025FC401B0A2811D820684068C007F6D08A
:101210002068016821F00201016000F017FC05461A
:101220000BE000F013FC401B0A2806D9606A40F46A
:101230000030606284F82060D2E720684068800750
:10124000EFD4207E0128206801683DD021F0800184
:101250000160607E01282068016838D021F04001DB
:101260000160A07E01282068016833D021F02001B0
:101270000160E07E0128206801682ED041F0100155
:101280000160207F01282068016829D021F0080131
:101290000160607F01282068016824D021F00401EA
:1012A0000160D4E902010843D4E904121143084360
:1012B0006168491E08432168C861002060620120FE
:1012C00084F82000002070BD41F08001C0E741F0AB
:1012D0004001C5E741F02001CAE721F01001CFE746
:1012E00041F00801D4E741F00401D9E7F0B587B037
:1012F000044614216846FEF79BFF364B3648DFF85C
:10130000D0E01968D4F800C0334A03250226092723
:1013100010300024491CF44522D11960012907D15D
:10132000016841F000710160006800F000700590F4
:10133000106840F0080010601068CDE9005600F019
:101340000800CDE9047069462448CDE9024500F063
:101350007FFA00221146142000F0E6FB142032E050
:10136000DFF87CE0F44530D1D0F800C04CF0806C60
:10137000C0F800C0D0F800C001290CF0806CCDF896
:1013800014C0196007D1016841F000710160006864
:1013900000F000700590106840F0020010601068C6
:1013A00002AB00F0020005906020CDE9000683E862
:1013B000B00069460B4800F04BFA0022114640206D
:1013C00000F0B2FB402000F0A1FB07B0F0BD000030
:1013D000006400400800002030380240000C024049
:1013E00000680040000402407047000000B58BB068
:1013F00001AB03AA0021FFF77AFD0398A0F20120B8
:1014000007281AD80E49C0B200EB800208700D49B7
:1014100001EB420031F812300381BDF804305BBAB1
:1014200021F81230BDF8061049BA4180BDF8081005
:1014300049BA81809DF80A1081710BB000BD00008F
:1014400010000020A4020020704770477047000081
:1014500070B5044690F82000012804D0606A40F47A
:101460000020606218E0022084F8200020680168F3
:1014700021F00101016000F0E9FA05460EE000BF2D
:1014800000F0E4FA401B0A2808D9606A40F40030F2
:101490006062052084F82000012070BD206840684B
:1014A000C007EDD1606270BD7047704770477047EC
:1014B0007047704770472DE9F0410446876D00F092
:1014C000C5FA064694F835000025022806D080208B
:1014D000606584F834500120BDE8F081206801681F
:1014E00021F0160101602068416921F0800141610D
:1014F000206C08B9A06C20B12068016821F00801B7
:1015000001602068016821F0010101600CE000F039
:101510009DFA801B052807D920206065032084F8E8
:10152000350084F83450D7E720680068C007EED152
:1015300094F85C103F208840B860012084F83500A2
:1015400084F834500020C7E790F83510022903D002
:101550008021416501207047052180F83510006821
:10156000016821F001010160002070472DE9F84376
:1015700004464FF00009CDF8009063484FF416512F
:10158000A56D0068B0FBF1F72E6894F85C10082098
:1015900000FA01F131420FD021680A6852070BD5D9
:1015A0000A6822F004020A6094F85C108840A8607F
:1015B000606D40F00100606594F85C104FF0010828
:1015C00008FA01F0304208D021684969090604D5BB
:1015D000A860606D40F00200606594F85C10042023
:1015E0008840304208D021680968890704D5A8607E
:1015F000606D40F00400606594F85C101020884035
:10160000304218D021680968090714D5A8602068FD
:101610000168490304D50068000308D5A16C07E000
:101620000168C90503D4016821F008010160216C3B
:1016300009B12046884794F85C1020208840304249
:1016400031D021680968C9062DD5A86094F8350005
:1016500005282068016806D0490347D500680003C3
:101660001DD4616C1CE021F0160101602068416905
:1016700021F080014161206C08B9A06C20B1206884
:10168000016821F00801016094F85C103F20884057
:10169000A86084F8358084F83490216D1FE0E16BF8
:1016A00009B120468847606D00282BD0606DC007C7
:1016B00014D0052084F835002068016821F001016C
:1016C00001600098401C0090B84203D82068006870
:1016D000C007F6D184F8358084F83490E16C002995
:1016E00010D001B02046BDE8F04308470168C905A5
:1016F000D5D4016821F01001016084F8358084F8A8
:101700003490CCE7BDE8F8830C0000202DE9F041CF
:10171000044600F09BF906465CB1022084F83500CF
:10172000002584F834502068016821F0010101602F
:101730000DE00120BDE8F08100F088F9801B05284C
:1017400005D920206065032084F83500F2E7206881
:101750000068C007F0D12268116820480140D4E930
:1017600001031843D4E9033633431843636918432C
:10177000A3691843E3691843236A18430843616A5D
:10178000042903D1D4E90B131943084310602068DE
:101790004069666A20F0070130460E43012704289D
:1017A0000CD1A06A0643E06A40B12046FFF77AF9FF
:1017B00020B14020606584F83570BAE72068466142
:1017C0002046FFF75BF994F85C203F21914081604F
:1017D000656584F835700020ACE700003F8010F0AC
:1017E0002DE9F0410446866D90F83400002501286B
:1017F0000DD0012084F8340094F835700020012FBA
:1018000007D084F8340002252846BDE8F081022084
:10181000FBE7022784F8357060652046FFF76CF916
:1018200094F85C103F208840B0602068016841F067
:1018300016010160206C20B12068016841F00801A8
:1018400001602068016841F001010160DCE70000EF
:101850002DE9F84FDFF8BCA10022012503264FF047
:101860000F090AF1040BAAF1040E00BF0B6805FA78
:1018700002F42340A34270D10F7907F00307012F30
:1018800001D0022F16D187684FEA420806FA08FCF9
:1018900027EA0C07D1F80CC00CFA08FC4CEA070C3C
:1018A000C0F808C04768A7430C79C4F300149440FB
:1018B0003C4344600C79E443A4070AD0C4684FEA6F
:1018C000420C06FA0CF7BC438F6807FA0CF7274363
:1018D000C7600C7904F00304022C12D1D40800EB89
:1018E000840CDCF820405707FF0E09FA07F824EAB9
:1018F0000804D1F8108008FA07F848EA0408CCF880
:10190000208004684FEA420C06FA0CF7BC430F79BA
:1019100007F0030707FA0CF7274307604C6814F435
:10192000403F70D03C4C276847F4804727602468CC
:1019300022F0030704F480440094384C07EB040CB5
:10194000DCF8084897074FEA177809FA08F7BC430C
:10195000334FB84202D1002724E054E0314FB8425F
:1019600001D101271EE0304FB84201D1022719E012
:101970002E4FB84201D1032714E02D4FB84201D1B8
:1019800004270FE02B4FB84201D105270AE02A4F68
:10199000B84201D1062705E0284FB84201D10727F8
:1019A00000E0082707FA08F72743CCF80878DAF8A8
:1019B00000405746D1F804C09C435FEACC2C00D5C8
:1019C0001C433C60DBF800405F46D1F804C09C43F8
:1019D0005FEA8C2C00D51C433C60DEF80040774663
:1019E000D1F804C09C435FEA8C3C00D51C433C60AA
:1019F000084F083F3C68D1F804C09C435FEACC3CE8
:101A000000D51C433C60521C102AFFF42FAFBDE8E8
:101A1000F88F0000083C014044380240003001408B
:101A2000000002400004024000080240000C024096
:101A3000001002400014024000180240001C024046
:101A40000AB1816170470904FBE700000148806822
:101A50007047000074000020024881680278114439
:101A600081607047740000200B4810B5016841F494
:101A700000710160016841F480610160016841F416
:101A800080710160032000F06FF8002000F006F87C
:101A900000F024F8002010BD003C024070B50D4D50
:101AA00004464FF47A712878B1FBF0F00A490968CE
:101AB000B1FBF0F000F00CFB48B9102C07D200226B
:101AC0002146501E00F030F800206C6070BD0120EF
:101AD00070BD0000740000200C0000200A4808B50A
:101AE000016841F480410160006800F4804000908A
:101AF0000548001F016841F080510160006800F056
:101B00008050009008BD000044380240002809DBE6
:101B100000F01F02012191404009800000F1E02007
:101B2000C0F8001170470000F0B40E4B1B680C4663
:101B3000C3F30223C3F10705042D00D90425191DA1
:101B4000072901D2002300E0DB1E012606FA05F179
:101B5000491E214099409E40761E16403143F0BCFC
:101B600002F0D7B80CED00E0064900F00702086863
:101B70004FF6FF03184040EA0220034A1043086072
:101B8000704700000CED00E00000FA052DE9F04779
:101B90000E46050065D0DFF81481D8F80000F7B2D2
:101BA00000F00700B04207D288F80070D8F80000B3
:101BB00000F00700B04254D128683D4C810712D58F
:101BC000400703D5206840F4E050206028780007E3
:101BD00003D5206840F4604020602068A96820F0A8
:101BE000F000084320602878C0072DD0304968688D
:101BF0000839012812D0022813D0032811D009680F
:101C0000890700292DDA216821F0030101432160B1
:101C1000FFF71CFF814641F2883A0EE0096889030C
:101C2000EFE709688901ECE7FFF710FFA0EB090176
:101C3000514502D90320BDE8F0872068696800F0AB
:101C40000C00B0EB810FEFD1D8F80010404601F046
:101C50000701B14207D90770006800F00700B042E1
:101C600001D00120E7E72878400705D52068E9681A
:101C700020F4E050084320602878000706D520684B
:101C8000296920F4604040EAC100206000F038F883
:101C90002168084AC1F30311515CC8400649086035
:101CA00006480068FFF7FAFE0020C4E7003C024047
:101CB00008380240E03F00080C00002078000020B7
:101CC0000448054900680968044AC1F38221515C4F
:101CD000C84070470C00002008380240F03F000860
:101CE0000448054900680968044AC1F34231515C5F
:101CF000C84070470C00002008380240F03F000840
:101D0000154810B5006810F00C02144813D014499F
:101D1000042A0FD0082A0ED10F4C241F22682368F2
:101D200002F03F025B0207D52068C0F38810A0FBD9
:101D3000010106E0084610BD2168C1F38811A1FB2E
:101D400000010023FEF73CFA2168C1F30141491C60
:101D50004900B0FBF1F010BD083802400024F40047
:101D600040787D012DE9F84F04006ED02078DFF82F
:101D70004C93C007A9F104054AD009F10400016899
:101D8000C1F38101012908D00068C0F38100022855
:101D90000AD1D9F80000400206D52868800337D55B
:101DA00060680028E1D033E06068B0F5803F10D073
:101DB000B0F5A02F286810D020F480302860286863
:101DC00020F4802028606068A8B1FFF73FFE064637
:101DD0000DE0286840F48030F4E740F4802028606B
:101DE000F7E700BFFFF732FE801B642873D828682E
:101DF0008003F7D50CE0FFF729FE064605E000BF9B
:101E0000FFF724FE801B6428F0D828688003F7D4ED
:101E10002078DFF8AC8280074FF0000A3ED5A74853
:101E2000001D016811F00C0F08D00068C0F381009C
:101E300002280BD1D9F80000400207D42868800797
:101E400016D5E068012800D112E033E1E068B8B1AE
:101E50000120C8F80000FFF7F9FD064605E000BFC5
:101E6000FFF7F4FD801B0228C0D828688007F7D54B
:101E70002868216920F0F80040EAC10028600DE0E0
:101E8000C8F800A0FFF7E2FD064604E0FFF7DEFD1C
:101E9000801B02281FD828688007F7D42078000705
:101EA00022D5864F87486169703771B10121016081
:101EB000FFF7CCFD064604E0FFF7C8FD801B0228B3
:101EC00009D838688007F7D50EE0C0F800A0FFF702
:101ED000BDFD064605E082E0FFF7B8FD801B022845
:101EE0007DD838688007F7D42078400768D5DFF8B8
:101EF000CCB100270BF13C0BDBF80000C0000BD489
:101F0000DBF8001041F08051CBF80010DBF8000046
:101F1000012700F0805000906B4E3068C00510D44F
:101F2000306840F480703060FFF790FD009005E06D
:101F3000FFF78CFD0099401A022850D83068C00580
:101F4000F6D55E4EA0686C3601280FD005283068A3
:101F500010D020F001003060306820F004003060C4
:101F6000A068B8B1FFF772FD00900FE0306840F054
:101F70000100F4E740F004003060F7E7FFF766FD8A
:101F80000099411A41F28830814266D83068800752
:101F9000F4D50EE0FFF75AFD009007E0FFF756FD7D
:101FA0000099411A41F28830814256D83068800742
:101FB000F4D42FB1DBF8001021F08051CBF80010E1
:101FC000A069C8B33D49091D0968C1F3810102290F
:101FD0004AD00228504607D0C8F8600000E03CE034
:101FE000FFF734FD04463BE04746C8F86000FFF7C2
:101FF0002DFD064605E000BFFFF728FD801B0228E7
:102000002BD828688001F7D4D4E907010843A16AD6
:102010002E4A490802EB0141626A41EA82110843F3
:1020200094F82C1040EA0161C9F8001001203866CC
:10203000FFF70CFD044606E03EE000BFFFF706FD9B
:10204000001B022809D828688001F7D534E000BFBA
:10205000FFF7FCFC001B022802D90320BDE8F88F23
:1020600028688001F4D427E00128F7D0D9F80000CF
:10207000E26900F4800191421CD1226A00F03F0124
:10208000914217D147F6C071626A0140B1EB821FDD
:1020900010D1A26A4FF0FF3300F4403103EB52023B
:1020A000B1EB024F06D194F82C1000F07060B0EB49
:1020B000016F01D00120D1E70020CFE704380240B2
:1020C00000004742800E4742007000400000FFFFC2
:1020D00010B5401EB0F1807F01D3012010BD4FF03C
:1020E000E02460610F21601701F013FE0020A06161
:1020F00007202061002010BD7047704770B590F830
:102100003C20012A32D0012480F83C40022280F891
:102110003D2003685A689D6822F070060A683243C1
:102120005A60134B02689A4214D0B2F1804F11D01A
:10213000104B9A420ED0104B9A420BD00F4B9A4242
:1021400008D00F4B9A4205D00E4B9A4202D00E4B4C
:102150009A4204D1496825F080031943916080F8C0
:102160003D40002180F83C10084670BD022070BD43
:10217000000001400004004000080040000C004046
:1021800000040140004001400018004010B5040068
:1021900003D094F83D0010B107E0012010BD0020ED
:1021A00084F83C00204600F01FF8022084F83D002F
:1021B000211D206801F0D2FA012084F8460084F83D
:1021C0003E0084F83F0084F8400084F8410084F821
:1021D000420084F8430084F8440084F8450084F801
:1021E0003D00002010BD000008B50068B0F1804F30
:1021F00012D10A48016841F0010101600068002223
:1022000000F00100009011461C20FFF78DFCBDE896
:1022100008401C20FFF77ABC08BD0000403802408F
:1022200090F83D10012901D001207047022180F86B
:102230003D100168CA6842F00102CA600068114995
:10224000884214D0B0F1804F11D00F4988420ED08F
:102250000E4988420BD00E49884208D00D49884269
:1022600005D00D49884202D00C49884204D18168CA
:1022700001F00701062903D0016841F00101016066
:1022800000207047000001400004004000080040AA
:10229000000C0040000401400040014000180040D4
:1022A00070B5044690F83C000025012817D001269F
:1022B00084F83C60022084F83D002068826822F0A7
:1022C000770222F47F4282600868502838D00DDC03
:1022D00020284FD005DC90B3102811D14AE002200D
:1022E00070BD302846D040280AD13BE060282FD06E
:1022F00070280DD0B0F5805F03D0B0F5005F12D02C
:10230000012584F83D60002084F83C00284670BD1B
:10231000CB68D1E90121206801F084FA2068816846
:1023200041F0770109E0CB68D1E90121206801F093
:1023300079FA2068816841F480418160E1E719E021
:10234000CA684968206801F07FFA5021206806E0D9
:10235000CA684968206801F088FA6021206801F0A5
:102360006BFACEE7CA684968206801F06DFA40212F
:102370002068F4E7226801461046F0E7704770B520
:102380000446006801694FF00005C943890715D468
:10239000C168C943890711D4E91E01610120207772
:1023A000206880698007204602D0FFF7E7FF04E03D
:1023B00000F098F8204600F096F82577206801692B
:1023C000C943490717D4C168C943490713D46FF0FB
:1023D00004010161022020772068806910F4407FA9
:1023E000204602D0FFF7CAFF04E000F07BF8204649
:1023F00000F079F8257720680169C943090716D4E8
:10240000C168C943090712D46FF0080101610420B3
:1024100020772068C0698007204602D0FFF7AEFF12
:1024200004E000F05FF8204600F05DF825772068B2
:102430000169C943C90617D4C168C943C90613D481
:102440006FF010010161082020772068C06910F446
:10245000407F204602D0FFF791FF04E000F042F8F1
:10246000204600F040F8257720680169C943C90774
:1024700008D1C168C943C90704D1891E016120463A
:1024800000F032F820680169C943090609D4C1681F
:10249000C943090605D46FF0800101612046FFF7AA
:1024A0002BFE20680169C943490609D4C168C943A4
:1024B000490605D46FF040010161204600F066F83E
:1024C00020680169C94389060BD4C168C9438906DC
:1024D00007D46FF0200101612046BDE87040FFF78E
:1024E0000CBE70BD7047704770B50068B0F1804F8A
:1024F00040D1234D2868401C28606868401C6860F3
:10250000052837D11F4C0123B4F90420B4F9021077
:10251000B4F90000FEF734FAB4F90810B4F9060073
:10252000FEF774FB1848C07A012804D0022822D094
:10253000032809D104E0002001F0A8F8012001E0FF
:10254000002019E0FEF73EF9B4F9040000EE100A8D
:10255000B4F90200B8EEC01A00EE100AB4F9000097
:10256000F8EEC00A00EE100AB8EEC00AFEF7DAFA7A
:102570000020686070BD012001F088F80020E1E7CC
:10258000000000204C030020240300207047704707
:1025900010B504460068406994F83D10C0F3C010BF
:1025A000212911D180B12068143050E8001F21F09A
:1025B000800140E80012002AF5D1606B08B1FEF7F7
:1025C0007AFF204601F005FA2068406994F83E1031
:1025D000C0F38010222911D180B12068143050E856
:1025E000001F21F0400140E80012002AF5D1A06B45
:1025F00008B1FEF760FF204601F0C4F9002010BDCD
:1026000070470000F8B5016804460868CA684B695D
:1026100010F00F0F4FF0000559D003F0010602F43F
:102620009077374365D0C10705D0D10503D5216C1C
:1026300041F001012164410705D5D90703D0216C80
:1026400041F002012164810705D5D90703D0216C2F
:1026500041F004012164010707D502F02001314354
:1026600003D0216C41F008012164216C00293AD08B
:10267000800604D5900602D5204601F0B8F92068FE
:102680004069216CC0F38010090700D460B3204674
:1026900001F078F920684069400621D5206814309F
:1026A00050E8001F21F0400140E80012002AF5D157
:1026B000A06BA8B16C490165A06BFEF745FF00282F
:1026C00011D0A06B016D01B0BDE8F0400847830652
:1026D0000FD593060DD52046BDE8F84001F087B927
:1026E0002046FFF78DFFF8BD2046FFF789FF2564E0
:1026F000F8BD266B2023012E79D1C60677D5D606E4
:1027000075D50868486800904869400640D5A16BB7
:10271000086840680004000CEAD0A28D8242E7D924
:10272000E085C869B0F5807F2DD020680C3050E876
:10273000001F21F4807140E80012002AF5D12068C2
:10274000143050E8001F21F0010140E80012002A77
:10275000F5D12068143050E8001F21F0400140E816
:102760000012002AF5D184F83E30256320680C3031
:1027700050E8001F21F0100140E80012002AF5D1B6
:10278000A06BFEF798FEA08DE18D401A81B229E082
:10279000A08DE18D401A81B2E08D0028A8D00029DB
:1027A000A6D020680C3050E8002F22F4907240E848
:1027B0000026002EF5D12068143050E8002F22F0BA
:1027C000010240E80026002EF5D184F83E30256352
:1027D00020680C3050E8002F22F0100240E800235F
:1027E000002BF5D12046FFF7D2FEF8BDFFE7050626
:1027F0002BD5150629D594F83D002128F5D1A068E0
:10280000B0F5805F01D12069B0B1206A411C21621E
:10281000216800784860E08C401E0004000CE084D1
:10282000E3D12068C16821F08001C1602068C168DF
:1028300041F04001C160D8E7206A0088C0F3080079
:102840004860206A801C2062E5E74006CDD550062E
:10285000CBD5CA68204622F04002CA6084F83D30D9
:1028600000F06FF9C1E700008F38000870B5040070
:1028700004D094F83D00002510B106E0012070BDA1
:1028800084F83C50204600F023F8242084F83D00D2
:102890002068C16821F40051C160204601F008F9A8
:1028A0002068016921F4904101612068416921F0AB
:1028B0002A0141612068C16841F40051C16025646A
:1028C000202084F83D0084F83E00002070BD000008
:1028D0002DE9F04387B0064614216846FDF7A8FCB1
:1028E0005648554FD6F800C00024544914380222E7
:1028F00003230725BC451BD10E6846F010060E6069
:10290000096801F010010591016841F001010160C1
:102910000068694600F00100059058028DE8150036
:10292000CDE903354648FEF793FF07B0BDE8F083D5
:10293000DFF810814FF480674FF48079C4453BD1B4
:102940003E49091FD1F800C04CF4802CC1F800C0EA
:10295000096801F480210591016841F004010160DA
:102960000068694600F0040005904FF440608DE86F
:102970001500CDE903353448FEF76AFF344D33487E
:1029800028607804C5E90104C5E903476C61C5E91D
:1029900006494FF44030C5E908042846FEF7B6FE64
:1029A00008B1FEF701F9B563002211462720AE6396
:1029B000FFF7BAF827203BE0264DAC45B5D10D68AE
:1029C00045F020050D60096801F0200105910168BE
:1029D00041F0400101600068694600F04000059048
:1029E0004FF484408DE815000820CDE903301A48E3
:1029F000FEF72EFF164D1948603528608005C5E9A1
:102A00000104C5E903476C61C5E906494FF400308C
:102A1000C5E908042846FEF779FE08B1FEF7C4F8B8
:102A2000B563002211464720AE63FFF77DF84720CB
:102A3000FFF76CF879E700000010014044380240CD
:102A400000000240004800400008024028600240A8
:102A5000E4010020001401400018024028640240F4
:102A600090F83E30202B0ED159B152B190F83C3045
:102A7000012B08D0012380F83C300023036301F0D0
:102A80009DB80120704702207047704770470000D2
:102A90002DE9F843044690F83D001F4616460D46C2
:102AA00020284CD1C5B1BEB194F83C00012846D0D5
:102AB000012084F83C004FF00008C4F84080212039
:102AC00084F83D00FEF7C2FFA6848146E684A06834
:102AD000B0F5805F03D004E00120BDE8F8832069F1
:102AE00028B12E465FF0000584F83C800EE00026F9
:102AF000FAE78021204601F0ABF8A0B9AEB116F894
:102B0000010B21684860E08C401EE084E08C4B465D
:102B10004FF0000200970028EBD14FF04001204613
:102B200001F096F830B10320D7E735F8020BC0F377
:102B30000800E6E7202084F83D000020CDE70220D1
:102B4000CBE77047FEE700000F4808B50068016852
:102B5000C943C90616D40168406800900A48FFF7C7
:102B600017FD0A4800684068D0F10B0002D1084800
:102B700000F050F806490B22BDE80840C91C024885
:102B8000FFF76EBF08BD0000A00100204402002036
:102B9000700300200F4808B500680168C943C906E2
:102BA00017D40168406800900A48FFF7F1FC0A4812
:102BB00000684068D0F1120008D000F02FFDBDE899
:102BC0000840122205490348FFF74ABF00F066FC9F
:102BD000F5E708BD5C010020E40100203A03002075
:102BE00008B50A4801F085F809480068016841689D
:102BF0000091C16841F01001C16004490B22BDE899
:102C00000840C91C0248FFF72BBF000070030020DA
:102C1000A00100202DE9F04104002DED048B74D0BB
:102C200060780B2871D3774E00259FED778A00BF1F
:102C300005EB450000EBC5002044A278C178914225
:102C400063D101795139092922D2DFE801F0052247
:102C5000405FD1768CD1B90050F8051FB160406853
:102C6000F060684900200831F3EE000A31F91020C5
:102C700000EE102A04EB8002401CB8EEC00AC0B27D
:102C8000032820EE080A20EE200A82ED0A0AEDD37E
:102C9000AEE050F8051F316140687061594900206D
:102CA0001031DFED5A0A00BF31F9102000EE102A72
:102CB00004EB8002401CB8EEC00AC0B2032820EE2C
:102CC000080A20EE200A82ED0D0AEDD390E050F8BC
:102CD000051FB1614068F0614A49002018319FED3D
:102CE0004C0A00BF31F9102000EE902A04EB80025C
:102CF000401CF8EEE00AC0B2032860EE880A60EEDD
:102D0000800AC2ED040AEDD372E076E050F8051FA8
:102D10003162406870623B490020203131F9102057
:102D200000EE102A04EB8002401CB8EEC00AC0B2CC
:102D3000032882ED100AF1D35AE050F8051FB16262
:102D400000EE101A4068F062B8EEC00ADFED310AFA
:102D500084ED130A00EE100AB8EEC00A80EE201AC5
:102D600084ED141A44E050F8051F71634068B063A5
:102D70002948244A91FBF0F130329FED289B1768D7
:102D8000DFED288A97FBF0F100FB1170FDF7E3FB04
:102D900053EC192BFDF770FB00EE107A41EC190B88
:102DA000F8EEC00A80EEA80A10EE100AFDF703FC48
:102DB00053EC192BFDF747FAFDF710FC206617E0DE
:102DC00050F8051FB1634068F0630E4900203831A8
:102DD00031F9102000EE102A04EB8002401CB8EEFE
:102DE000C00AC0B2042820EE080A82ED1B0AEFD305
:102DF0006D1CEDB20B2DFFF41BAFBDEC048BBDE8D9
:102E0000F08100002C000020000000380000FA448F
:102E1000000034430000C842809698000000000083
:102E2000006AF8408096184B10B504004AD020780C
:102E3000401E082846D2DFE800F0040404042424DD
:102E40002424C0B200F0C2FF008860802078401EB9
:102E5000C0B200F0BBFF8088E0802078401EC0B286
:102E600000F0B4FF008960812078401EC0B200F0FD
:102E7000ADFF4088A0802078401EC0B200F0A6FFC1
:102E80001EE0C0B200F0ACFF008860802078401ED9
:102E9000C0B200F0A5FF8088E0802078401EC0B25C
:102EA00000F09EFF008960812078401EC0B200F0D3
:102EB00097FF4088A0802078401EC0B200F090FFAD
:102EC0008079207210BD000030B50C462DED028BCC
:102ED00089B0014620704FF000006080E080608182
:102EE000A0802072C4F8F000C4E93D000090019079
:102EF00002900890150006900790039004900590AA
:102F000032D1491E9FED2A1A9FED2A0AF2EE060AD7
:102F1000F3EE041A072927D2DFE801F00404090CB4
:102F2000131320008DED020ACDEC020A1CE0F2EE34
:102F3000080AF7E7CDED000ADFED1F0ACDED010A23
:102F400010E0CDED001A8DED010A8DED020A8DED38
:102F5000030A8DED040A8DED050A05E0CDED001A9A
:102F60008DED010A8DED020A9FED148A6A4629460D
:102F7000F0EE480AB0EE480A04F10C0000F05CFAEA
:102F8000F0EE480AB0EE480A06AA294604F15800B5
:102F900000F052FA9FED0A0A03AA2946F0EE400A11
:102FA00004F1A40000F048FA09B0BDEC028B30BD7A
:102FB000CDCCCC3D00000000CDCC4C3D0000804687
:102FC00000007A45002812D090ED101A80ED111AF9
:102FD000D0ED0F1AC0ED101AC0ED060A80ED070AF9
:102FE00030EEC00A80ED0F0A017809B10020704769
:102FF000D0ED010A20EE801A80ED091AD0ED0A0A00
:1030000090ED022A42EE000A30EE610AC0ED0A0A93
:1030100090ED0D2A80ED0E2A90ED0C2A80ED0D2A00
:1030200080ED0C0AD0ED031A61EE801AC0ED0B1A88
:1030300090ED050AF4EEC00AF1EE10FA09DCB1EEEB
:10304000400AF4EEC00AF1EE10FA02D390ED0A0A3B
:1030500001E080ED0A0A31EE000A30EE210A80ED2F
:10306000080AD0ED040AB4EEE00AF1EE10FA06DC2C
:10307000F1EE600AB4EEE00AF1EE10FA01D2C0ED12
:10308000080A90ED080ABDEEC00A10EE100A00B260
:103090007047002812D090ED101A80ED111AD0ED73
:1030A0000F1AC0ED101AC0ED060A80ED070A30EEC7
:1030B000C00A80ED0F0A017809B100207047D0EDF9
:1030C000010A20EE801A80ED091AD0ED0A0A90ED6F
:1030D000022A42EE000A30EE610AC0ED0A0A90EDC3
:1030E0000D2A80ED0E2A90ED0C2A80ED0D2A80ED40
:1030F0000C0AD0ED031A61EE801AC0ED0B1A90EDA8
:10310000050AF4EEC00AF1EE10FA09DCB1EE400A4D
:10311000F4EEC00AF1EE10FA02D390ED0A0A01E0D3
:1031200080ED0A0A31EE000A30EE210A80ED080A2D
:10313000D0ED040AB4EEE00AF1EE10FA06DCF1EE8E
:10314000600AB4EEE00AF1EE10FA01D2C0ED080A0E
:1031500090ED080ABDEEC00A10EE100A00B27047EA
:103160000F4810B50D4901600321416000214FF463
:1031700010228160C0E903124FF40012426101760F
:1031800041768176C17601774177FEF722F80028F3
:1031900003D0BDE81040FDF707BD10BD006400403E
:1031A000800000200F4810B50D49016003214160E7
:1031B00000214FF410228160C0E903124FF4001285
:1031C0004261017641768176C17601774177FEF7DB
:1031D00000F8002803D0BDE81040FDF7E5BC10BDA5
:1031E00000680040A8000020114808B5016841F4BB
:1031F00000110160016801F400110091016841F4BF
:10320000800101600068002200F4800000901146F7
:103210000C20FEF789FC0C20FEF778FC00221146FA
:103220003920FEF781FCBDE808403920FEF76EBC6E
:1032300030380240F0B587B014216846FCF7F8FF3B
:1032400032480025016841F002010160016801F087
:1032500002010591016841F040010160016801F03F
:1032600040010591016841F001010160016801F030
:1032700001010591016841F008010160016801F058
:1032800008010591016841F004010160016801F045
:1032900004010591016841F080010160016801F0BD
:1032A00080010591016841F0100101600068184E2D
:1032B00000F010000590002240213046FEF7C0FBD0
:1032C000144F00224FF4D4413846FEF7B9FB0124D5
:1032D0004020CDE9000469463046CDE90245FEF7BD
:1032E000B7FA4FF4C040CDE9000469463846CDE94D
:1032F0000245FEF7ADFA4FF420608DE831006946D3
:1033000038460395FEF7A4FA07B0F0BD3038024006
:10331000000802400010024010B586B00024164894
:10332000009401940294039404944FF08041059416
:1033300001605321C0E9011440F2E731C0E90314F0
:103340008461FEF723FF08B1FDF72EFC4FF4805097
:10335000009069460848FEF7A3FF08B1FDF724FC7A
:10336000049404A904480594FEF7C8FE002801D07F
:10337000FDF71AFC06B010BDD00000200C4810B5B7
:103380000A4901600B494160002181600C22C16043
:10339000C0E904128161C161FFF768FA002803D017
:1033A000BDE81040FDF700BC10BD0000001001405A
:1033B0001801002000093D000E4810B50C490160BD
:1033C0000D4941604FF48051816000214FF48062CB
:1033D000C0E903120C22C0E90521C161FFF746FADA
:1033E000002803D0BDE81040FDF7DEBB10BD000093
:1033F000004800405C010020A08601000C4810B588
:103400000A4901604FF4E1314160002181600C22E2
:10341000C160C0E904128161C161FFF727FA002889
:1034200003D0BDE81040FDF7BFBB10BD0014014044
:10343000A0010020FEE7704700282AD0002A28D0EB
:10344000017092ED001A80ED011A92ED011A80EDE3
:10345000021A92ED021A80ED031A80ED040A9FED24
:103460000D0AC0ED050A80ED0E0A80ED0D0A80ED13
:103470000C0A80ED080A80ED0B0A80ED0A0A80ED47
:10348000090A80ED110A80ED100A80ED0F0A80ED27
:10349000120A704700000000704700002DE9F04755
:1034A0005849584F2DED028B0888C0F30A02A1F14C
:1034B000160002804A788B78D20842EA4312C2F39F
:1034C0000A024280CC789A090D7942EA840242EAE3
:1034D0008522C2F30A0282804A796C0844EAC21447
:1034E000C4F30A04C4804FEA921880F80A80C2F339
:1034F0000114C4720C8AC4F30A040481A146CC8866
:1035000084810C89C4814C8904820C7B84744C7B3B
:10351000C474C989818200F12804680840EAC21095
:10352000C0F30A00A0F580628100FE78980940EAA5
:10353000860040EA85203D8AC0F30A00C5F30A05EB
:10354000A5F58065C5EB8535AD000FFA85FC3D8896
:103550007F78A0F58066FF0847EA43135B051B09E7
:103560008000A3F100631F14274BC5F30A05A0F5E3
:103570008050A1F58051A5F58065B8F1010F0DD0FF
:10358000B8F1020F32D0B8F1030F09D00020187043
:10359000BDEC028BBDE8F04700F040B8022226E007
:1035A000012018701046FCF7D6FF9FED188B53ECE6
:1035B000182BFCF7EFFEFCF7DFFF20803046FCF70E
:1035C000CAFF53EC182BFCF7E5FEFCF7D5FF608033
:1035D000C9F58060FCF7BFFF9FED0E1B53EC112B6C
:1035E000FCF7D8FEFCF7C8FFA08005E003221A70A4
:1035F00021806080A4F804C0E5802781BDEC028BA7
:10360000BDE8F0873A0300206E0000209A9999994E
:103610009999A93F9A9999999999B93F38B50A48C2
:1036200000240068016841680091C16841F0100100
:10363000C160122205490448FFF712FA034812300C
:1036400004804480848038BD5C0100203A0300205F
:1036500070B5044600F0F2FB094D012251022846E4
:10366000FEF7EEF90122D1022846FEF7E9F90A2316
:10367000112221460348FFF70BFA032070BD00001A
:10368000001002401801002070470000064B4FF464
:10369000005118B1012805D1012200E0002218468E
:1036A000FEF7CEB97047000000100240FEF7D4B913
:1036B00030B593B030216846FCF7BAFD14210CA850
:1036C000FCF7B6FD19480025016841F08051016002
:1036D000006800F0805011901548016841F4804165
:1036E00001600068022400F48040119001200390E2
:1036F00010200490009406940820CDE90750A820DB
:10370000CDE9090404200B906846FEF72BFB0CA9B9
:103710000F2081E831004FF4A0500F90E00210908C
:1037200005210CA8FEF732FA13B030BD4038024034
:10373000007000400548016841F4700101600349D0
:103740004FF00060803908607047000088ED00E0AD
:103750000148FEF714BE0000D0000020F0B502685A
:10376000254C264D264E274F274B4FF0804CA0422C
:1037700009D0604507D0A84205D0B04203D0B84276
:1037800001D0984204D122F0700E4A6842EA0E023B
:10379000A0421BD0604519D0A84217D0B04215D026
:1037A000B84213D0984211D0184DA8420ED0184DEF
:1037B000A8420BD0174DA84208D0174DA84205D0FB
:1037C000164DA84202D0164DA84203D122F44075EE
:1037D000CA682A434D6922F080022A4302608A683F
:1037E000C2620A688262A04201D0984201D109698E
:1037F000016301214161F0BD00000140000400406F
:1038000000080040000C004000040140004001405E
:10381000004401400048014000180040001C0040E6
:103820000020004010B5846842EA032224F47F445B
:103830000A432243826010BD826822F070020A436C
:1038400042F007018160704710B5036A046A24F0F2
:1038500001040462846924F0F00444EA021423F0B1
:103860000A020A438461026210BD10B5036A23F0A4
:10387000100303628369046A23F4704343EA02324B
:1038800024F0A00343EA01118261016210BD10B56A
:10389000806B0021C185C184FEF7B2FE10BD70B5FA
:1038A000846B2068406994F83D10C0F3C010002577
:1038B000212904D118B1E584204600F08AF8206857
:1038C000406994F83E10C0F38010222904D118B149
:1038D000E585204600F056F8206C40F0100020648A
:1038E0002046FEF78DFE70BD10B50146806B09685D
:1038F0000968C9052FD40021C18501680C3151E840
:10390000002F22F4807241E80023002BF5D10168DA
:10391000143151E8002F22F0010241E80023002B6E
:10392000F5D10168143151E8002F22F0400241E83E
:103930000023002BF5D1202180F83E10016B0129D6
:1039400009D101680C3151E8002F22F0100241E842
:103950000023002BF5D1016B012902D0FFF795F868
:1039600010BD818DFEF713FE10BD10B5806B016B8D
:10397000012902D0FFF78AF810BD818D4908FEF7B2
:1039800006FE10BD01680C3151E8002F22F4907240
:1039900041E80023002BF5D10168143151E8002FD4
:1039A00022F0010241E80023002BF5D1016B01292F
:1039B00009D101680C3151E8002F22F0100241E8D2
:1039C0000023002BF5D1202180F83E100021016357
:1039D000704701680C3151E8002F22F0C00241E825
:1039E0000023002BF5D1202180F83D10704708B549
:1039F00090F83E10222901D0022008BD82684FF4C1
:103A000080539A4201D1016921B1816A9A421BD047
:103A10004AB10AE00268816A5268C2F308020A8069
:103A2000816A891C08E0026972B10268526802F07A
:103A30007F020A70816A491C8162C18D491E090496
:103A4000090CC18503D019E002685268F1E70168EA
:103A5000CA6822F02002CA600168CA6822F4807233
:103A6000CA6001684A6922F001024A61202180F897
:103A70003E10016B012903D0FFF707F8002008BDB5
:103A80000021016301680C3151E8002F22F010027F
:103A900041E80023002BF5D101680A68D20602D55F
:103AA0000A6849680091818DFEF771FDE6E7000024
:103AB00070B5044600680169E26821F44051114381
:103AC00001612169A068E269084361691143084303
:103AD0002168CA6849F20C639A430243CA602068AD
:103AE0004169A26921F44071114341613149206863
:103AF000884202D03049884202D1FEF7F1F801E055
:103B0000FEF7DEF8E2690023192164253226B2F5BA
:103B1000004F626828D0A0FB0101930F9200FCF7D0
:103B20004FFB0146B0FBF5F06FF01802504301EB7C
:103B3000800006EB0010B0FBF5F000F0F002B1FBE6
:103B4000F5F002EB0012B1FBF5F06FF018035843EB
:103B500001EB800006EB0010B0FBF5F000F00F0069
:103B600021681044886070BDA0FB010192185B4180
:103B7000FCF726FB0146B0FBF5F00201B1FBF5F0C6
:103B80006FF01803584301EB800006EBC000B0FB58
:103B9000F5F000F0F80002EB4002B1FBF5F05843FD
:103BA00001EB800006EBC000B0FBF5F000F0070071
:103BB000D6E70000001001400014014038B58162D2
:103BC00082850025134604460564222084F83E00C1
:103BD000A26B1C48D063A26B1B481064A26B1B48ED
:103BE000D064A06B0A4605652168A06B091DFDF72E
:103BF000F7FD206801684068009084F83C50206917
:103C000048B120680C3050E8001F41F4807140E852
:103C10000012002AF5D12068143050E8001F41F04E
:103C2000010140E80012002AF5D12068143050E864
:103C3000001F41F0400140E80012002AF5D10020A9
:103C400038BD0000E93800086B3900089F380008CB
:103C50002DE9F041984617460E460446069D27E09A
:103C6000681C25D02DB1FDF7F1FEA0EB0800A8429D
:103C70001ED920680C3050E8001F21F4D07140E8B4
:103C80000012002AF5D12068143050E8001F21F0FE
:103C9000010140E80012002AF5D1202084F83D00FF
:103CA00084F83E00002084F83C000320BDE8F08149
:103CB0002068006836EA000004D00020B842CFD067
:103CC0000020F3E70120F9E710B50348FEF79AFC5E
:103CD000BDE81040FEF75EBF5C01002010B5034850
:103CE000FEF790FCBDE81040FEF72EBFA0010020BB
:103CF000FEE700280CD000210A464318491C89B26F
:103D0000DA700B29F9D35521817002700B214170B3
:103D100070470907090E002804DB00F1E02080F855
:103D20000014704700F00F0000F1E02080F8141D2F
:103D3000704702E008C8121F08C1002AFAD1704774
:103D40007047002001E001C1121F002AFBD170471B
:103D500000B58BB000200121CDE90601089100904B
:103D60000190029003900590049069460C48FDF77D
:103D700037F80B48FDF76CFB02210948FCF7BAFF46
:103D80000E200990059069460648FDF729F8054878
:103D9000FDF75EFB02210348FCF7ACFF0BB000BD52
:103DA00080000020A800002010B5074C08E000BFEC
:103DB00011F8013B4340DBB234F8133083EA1020A2
:103DC000521EF5D210BD0000F83F000800F00300BD
:103DD000024900EB800001EB40007047A402002084
:103DE00000F00700024900EB800001EB4000704743
:103DF000A4020020FDF738FEFFF75AFCFFF71AFA7D
:103E0000FFF7F2F9FFF7ACF9FFF7CCF9FFF784FA07
:103E1000FFF7B4FAFFF7D0FAFFF7F0FA0648FEF71B
:103E2000FFF9FFF795FFFFF7F9FBFCF765FDFCF7DE
:103E3000BDFEFEF7D5FEFEE7D000002010B504461B
:103E400011206061FE202070EE20607094ED0C0A5D
:103E5000DFED500A50489FED511AB5EEC00AF1EE61
:103E600010FA02D2C4ED0C0A05E010EE101A8142DD
:103E700001DD84ED0C1A94ED0D0AB5EEC00AF1EEE9
:103E800010FA02D2C4ED0D0A05E010EE101A8142BC
:103E900001DD84ED0D1A4249606A884202D99FED26
:103EA000410A04E04049884203DD9FED400A84ED69
:103EB000090A3F49A06A884202D99FED3E0A04E000
:103EC0003D49884203DD9FED3D0A84ED0A0A3C49E5
:103ED000E06A884202D99FED3B0A04E03A498842F1
:103EE00003DD9FED3A0A84ED0B0A94F82010A078C8
:103EF0009FED371A61F3030094F822100F2261F34B
:103F00000610A07094ED0C0A2146C0EE010A9FED48
:103F1000310A60EE800AFDEEE00A10EE900AA4F885
:103F20000B00D4ED0D0AC0EE811A61EE800AFDEEA1
:103F3000E00A10EE900ADFED280AA4F80D00D4ED97
:103F40000B1A81EEA01A21EE000ABDEEC00A10EE97
:103F5000100AC4F8070094ED0A1A81EE200ADFED7A
:103F60001F0A20EE200ABDEEC00A10EE100AA4F8C7
:103F7000050094ED090A20EE200ABDEEC00A10EEFD
:103F8000100AA4F803000020FFF70EFFA4F80F00AA
:103F9000002010BD00000000C1CACC41C1CACC4104
:103FA000E1FAFFC2E1FAFFC2E1FAFF42E1FAFF42A1
:103FB000000049C4000049C40000494400004944CD
:103FC000C00FC9C8C00FC9C8C00FC948C00FC94871
:103FD000CDCCCC4100000047F90FC9400000804320
:103FE00000000000000000000102030406070809A9
:103FF00000000000010203040000891112239B321B
:104000002446AD573665BF74488CC19D5AAFD3BEA8
:104010006CCAE5DB7EE9F7F88110080193331A22B8
:10402000A5562C47B7753E64C99C408DDBBF52AE88
:10403000EDDA64CBFFF976E802218B301002991398
:104040002667AF763444BD554AADC3BC588ED19F68
:104050006EEBE7FA7CC8F5D983310A209112180378
:10406000A7772E66B5543C45CBBD42ACD99E508F48
:10407000EFFB66EAFDD874C904428D5316619F7048
:104080002004A9153227BB364CCEC5DF5EEDD7FC28
:104090006888E1997AABF3BA85520C4397711E6038
:1040A000A1142805B3373A26CDDE44CFDFFD56EC08
:1040B000E9986089FBBB72AA06638F7214409D5118
:1040C0002225AB343006B9174EEFC7FE5CCCD5DDE8
:1040D0006AA9E3B8788AF19B87730E6295501C41F8
:1040E000A3352A24B1163807CFFF46EEDDDC54CDC8
:1040F000EBB962A8F99A708B088481951AA793B6D8
:104100002CC2A5D33EE1B7F04008C919522BDB3AC7
:10411000644EED5F766DFF7C899400859BB712A697
:10412000ADD224C3BFF136E0C1184809D33B5A2AA7
:10413000E55E6C4FF77D7E6C0AA583B41886919777
:104140002EE3A7F23CC0B5D14229CB38500AD91B87
:10415000666FEF7E744CFD5D8BB502A49996108757
:10416000AFF326E2BDD034C1C3394A28D11A580B67
:10417000E77F6E6EF55C7C4D0CC685D71EE597F427
:104180002880A1913AA3B3B2444ACD5B5669DF7847
:10419000600CE91D722FFB3E8DD604C79FF516E417
:1041A000A9902081BBB332A2C55A4C4BD7795E6827
:1041B000E11C680DF33F7A2E0EE787F61CC495D5F7
:1041C0002AA1A3B03882B193466BCF7A5448DD5907
:1041D000622DEB3C700EF91F8FF706E69DD414C5D7
:1041E000ABB122A0B9923083C77B4E6AD5585C49E7
:1041F000E33D6A2CF11E780F0000C03F0000000074
:104200000000000000061016000610162C420008E0
:104210000000002080000000323D0008AC42000891
:104220008000002068110000423D000800000000EE
:1042300000000000000000000024F4000000000066
:10424000000000000000000000000000000000006E
:10425000000000000000000000000000000000005E
:10426000000000000000000000000000000000004E
:10427000000000000000000000000000000000003E
:10428000000000000000000000000000000000002E
:10429000000000000000000000000000000000001E
:0C42A00001000000100000000000000001
:040000050800018965
:00000001FF
